{
  "transactions": [
    {
      "hash": "0xec77d56880f7b14b8c4d63941617884bc14514af08f1df2eaa1e2d5ea4a6d07e",
      "transactionType": "CALL",
      "contractName": "MCPRegistry",
      "contractAddress": "0x62402b65bfb4fd022285a6fc2f26d8caeec3d055",
      "function": "registerTool(string,string,string)",
      "arguments": [
        "getBalance",
        "Get the native token balance of an address on a specific chain",
        "0.1.0"
      ],
      "transaction": {
        "from": "0x19bd49ae6e4732c91d541f9bd486dc75e3888971",
        "to": "0x62402b65bfb4fd022285a6fc2f26d8caeec3d055",
        "gas": "0x46f95",
        "value": "0x0",
        "input": "0x9e01510c000000000000000000000000000000000000000000000000000000000000006000000000000000000000000000000000000000000000000000000000000000a00000000000000000000000000000000000000000000000000000000000000100000000000000000000000000000000000000000000000000000000000000000a67657442616c616e636500000000000000000000000000000000000000000000000000000000000000000000000000000000000000000000000000000000003e47657420746865206e617469766520746f6b656e2062616c616e6365206f6620616e2061646472657373206f6e206120737065636966696320636861696e00000000000000000000000000000000000000000000000000000000000000000005302e312e30000000000000000000000000000000000000000000000000000000",
        "nonce": "0x4",
        "chainId": "0xa86a"
      },
      "additionalContracts": [],
      "isFixedGasLimit": false
    },
    {
      "hash": "0x766d4e1e1e6d384e1a45655bd962728164721417b5db35f1897a1142555f150e",
      "transactionType": "CALL",
      "contractName": "MCPRegistry",
      "contractAddress": "0x62402b65bfb4fd022285a6fc2f26d8caeec3d055",
      "function": "registerTool(string,string,string)",
      "arguments": [
        "getTokenBalance",
        "Get ERC20 token balance for an address on a specific chain",
        "0.1.0"
      ],
      "transaction": {
        "from": "0x19bd49ae6e4732c91d541f9bd486dc75e3888971",
        "to": "0x62402b65bfb4fd022285a6fc2f26d8caeec3d055",
        "gas": "0x41363",
        "value": "0x0",
        "input": "0x9e01510c000000000000000000000000000000000000000000000000000000000000006000000000000000000000000000000000000000000000000000000000000000a00000000000000000000000000000000000000000000000000000000000000100000000000000000000000000000000000000000000000000000000000000000f676574546f6b656e42616c616e63650000000000000000000000000000000000000000000000000000000000000000000000000000000000000000000000003a47657420455243323020746f6b656e2062616c616e636520666f7220616e2061646472657373206f6e206120737065636966696320636861696e0000000000000000000000000000000000000000000000000000000000000000000000000005302e312e30000000000000000000000000000000000000000000000000000000",
        "nonce": "0x5",
        "chainId": "0xa86a"
      },
      "additionalContracts": [],
      "isFixedGasLimit": false
    },
    {
      "hash": "0x0e22c89a50145ab67975c3019574c6da425bab334adb270413e6bb36860b7a7e",
      "transactionType": "CALL",
      "contractName": "MCPRegistry",
      "contractAddress": "0x62402b65bfb4fd022285a6fc2f26d8caeec3d055",
      "function": "registerTool(string,string,string)",
      "arguments": [
        "getMultiChainBalance",
        "Get native balance across all 4 chains in parallel",
        "0.1.0"
      ],
      "transaction": {
        "from": "0x19bd49ae6e4732c91d541f9bd486dc75e3888971",
        "to": "0x62402b65bfb4fd022285a6fc2f26d8caeec3d055",
        "gas": "0x4508e",
        "value": "0x0",
        "input": "0x9e01510c000000000000000000000000000000000000000000000000000000000000006000000000000000000000000000000000000000000000000000000000000000a0000000000000000000000000000000000000000000000000000000000000010000000000000000000000000000000000000000000000000000000000000000146765744d756c7469436861696e42616c616e63650000000000000000000000000000000000000000000000000000000000000000000000000000000000000032476574206e61746976652062616c616e6365206163726f737320616c6c203420636861696e7320696e20706172616c6c656c00000000000000000000000000000000000000000000000000000000000000000000000000000000000000000005302e312e30000000000000000000000000000000000000000000000000000000",
        "nonce": "0x6",
        "chainId": "0xa86a"
      },
      "additionalContracts": [],
      "isFixedGasLimit": false
    },
    {
      "hash": "0xd546077de5b5965b9f1b49caa69c426970754fb64989d9d0e70b8adb0574e330",
      "transactionType": "CALL",
      "contractName": "MCPRegistry",
      "contractAddress": "0x62402b65bfb4fd022285a6fc2f26d8caeec3d055",
      "function": "registerTool(string,string,string)",
      "arguments": [
        "getBlock",
        "Get block details by hash on a specific chain",
        "0.1.0"
      ],
      "transaction": {
        "from": "0x19bd49ae6e4732c91d541f9bd486dc75e3888971",
        "to": "0x62402b65bfb4fd022285a6fc2f26d8caeec3d055",
        "gas": "0x41217",
        "value": "0x0",
        "input": "0x9e01510c000000000000000000000000000000000000000000000000000000000000006000000000000000000000000000000000000000000000000000000000000000a000000000000000000000000000000000000000000000000000000000000001000000000000000000000000000000000000000000000000000000000000000008676574426c6f636b000000000000000000000000000000000000000000000000000000000000000000000000000000000000000000000000000000000000002d47657420626c6f636b2064657461696c732062792068617368206f6e206120737065636966696320636861696e000000000000000000000000000000000000000000000000000000000000000000000000000000000000000000000000000005302e312e30000000000000000000000000000000000000000000000000000000",
        "nonce": "0x7",
        "chainId": "0xa86a"
      },
      "additionalContracts": [],
      "isFixedGasLimit": false
    },
    {
      "hash": "0xc2aaf0aaaad52c2a74ae96284d78ae7757dc2470d0b1710b5d9d5a0ddf80e15f",
      "transactionType": "CALL",
      "contractName": "MCPRegistry",
      "contractAddress": "0x62402b65bfb4fd022285a6fc2f26d8caeec3d055",
      "function": "registerTool(string,string,string)",
      "arguments": [
        "getBlockByNumber",
        "Get block details by number or latest",
        "0.1.0"
      ],
      "transaction": {
        "from": "0x19bd49ae6e4732c91d541f9bd486dc75e3888971",
        "to": "0x62402b65bfb4fd022285a6fc2f26d8caeec3d055",
        "gas": "0x41217",
        "value": "0x0",
        "input": "0x9e01510c000000000000000000000000000000000000000000000000000000000000006000000000000000000000000000000000000000000000000000000000000000a000000000000000000000000000000000000000000000000000000000000001000000000000000000000000000000000000000000000000000000000000000010676574426c6f636b42794e756d62657200000000000000000000000000000000000000000000000000000000000000000000000000000000000000000000002547657420626c6f636b2064657461696c73206279206e756d626572206f72206c61746573740000000000000000000000000000000000000000000000000000000000000000000000000000000000000000000000000000000000000000000005302e312e30000000000000000000000000000000000000000000000000000000",
        "nonce": "0x8",
        "chainId": "0xa86a"
      },
      "additionalContracts": [],
      "isFixedGasLimit": false
    },
    {
      "hash": "0xb265b3855bb9c75a22f66ae2adcb79c827354f99498811edc2085efd6b502583",
      "transactionType": "CALL",
      "contractName": "MCPRegistry",
      "contractAddress": "0x62402b65bfb4fd022285a6fc2f26d8caeec3d055",
      "function": "registerTool(string,string,string)",
      "arguments": [
        "getLatestBlock",
        "Get the latest block number and timestamp for a chain",
        "0.1.0"
      ],
      "transaction": {
        "from": "0x19bd49ae6e4732c91d541f9bd486dc75e3888971",
        "to": "0x62402b65bfb4fd022285a6fc2f26d8caeec3d055",
        "gas": "0x412ff",
        "value": "0x0",
        "input": "0x9e01510c000000000000000000000000000000000000000000000000000000000000006000000000000000000000000000000000000000000000000000000000000000a00000000000000000000000000000000000000000000000000000000000000100000000000000000000000000000000000000000000000000000000000000000e6765744c6174657374426c6f636b000000000000000000000000000000000000000000000000000000000000000000000000000000000000000000000000003547657420746865206c617465737420626c6f636b206e756d62657220616e642074696d657374616d7020666f72206120636861696e00000000000000000000000000000000000000000000000000000000000000000000000000000000000005302e312e30000000000000000000000000000000000000000000000000000000",
        "nonce": "0x9",
        "chainId": "0xa86a"
      },
      "additionalContracts": [],
      "isFixedGasLimit": false
    },
    {
      "hash": "0xe476d0cc65acf4cb40cfe68a77a7386261f3da78bc985b84c12eabb311417489",
      "transactionType": "CALL",
      "contractName": "MCPRegistry",
      "contractAddress": "0x62402b65bfb4fd022285a6fc2f26d8caeec3d055",
      "function": "registerTool(string,string,string)",
      "arguments": [
        "getTransaction",
        "Get transaction details by hash",
        "0.1.0"
      ],
      "transaction": {
        "from": "0x19bd49ae6e4732c91d541f9bd486dc75e3888971",
        "to": "0x62402b65bfb4fd022285a6fc2f26d8caeec3d055",
        "gas": "0x3215b",
        "value": "0x0",
        "input": "0x9e01510c000000000000000000000000000000000000000000000000000000000000006000000000000000000000000000000000000000000000000000000000000000a000000000000000000000000000000000000000000000000000000000000000e0000000000000000000000000000000000000000000000000000000000000000e6765745472616e73616374696f6e000000000000000000000000000000000000000000000000000000000000000000000000000000000000000000000000001f476574207472616e73616374696f6e2064657461696c732062792068617368000000000000000000000000000000000000000000000000000000000000000005302e312e30000000000000000000000000000000000000000000000000000000",
        "nonce": "0xa",
        "chainId": "0xa86a"
      },
      "additionalContracts": [],
      "isFixedGasLimit": false
    },
    {
      "hash": "0x8b05baf543d458af97f5c54b596dc9ed01278067f0cf0fdd10a6b555ed09278a",
      "transactionType": "CALL",
      "contractName": "MCPRegistry",
      "contractAddress": "0x62402b65bfb4fd022285a6fc2f26d8caeec3d055",
      "function": "registerTool(string,string,string)",
      "arguments": [
        "getTransactionReceipt",
        "Get transaction receipt with status, gasUsed, and logs",
        "0.1.0"
      ],
      "transaction": {
        "from": "0x19bd49ae6e4732c91d541f9bd486dc75e3888971",
        "to": "0x62402b65bfb4fd022285a6fc2f26d8caeec3d055",
        "gas": "0x41383",
        "value": "0x0",
        "input": "0x9e01510c000000000000000000000000000000000000000000000000000000000000006000000000000000000000000000000000000000000000000000000000000000a0000000000000000000000000000000000000000000000000000000000000010000000000000000000000000000000000000000000000000000000000000000156765745472616e73616374696f6e5265636569707400000000000000000000000000000000000000000000000000000000000000000000000000000000000036476574207472616e73616374696f6e20726563656970742077697468207374617475732c20676173557365642c20616e64206c6f6773000000000000000000000000000000000000000000000000000000000000000000000000000000000005302e312e30000000000000000000000000000000000000000000000000000000",
        "nonce": "0xb",
        "chainId": "0xa86a"
      },
      "additionalContracts": [],
      "isFixedGasLimit": false
    },
    {
      "hash": "0xfffb26896a0cc7bbf1bf96a56a99d33af562acfaedc9db8a542790fe650c7eb0",
      "transactionType": "CALL",
      "contractName": "MCPRegistry",
      "contractAddress": "0x62402b65bfb4fd022285a6fc2f26d8caeec3d055",
      "function": "registerTool(string,string,string)",
      "arguments": [
        "decodeTransaction",
        "Decode transaction function call and parameters",
        "0.1.0"
      ],
      "transaction": {
        "from": "0x19bd49ae6e4732c91d541f9bd486dc75e3888971",
        "to": "0x62402b65bfb4fd022285a6fc2f26d8caeec3d055",
        "gas": "0x45025",
        "value": "0x0",
        "input": "0x9e01510c000000000000000000000000000000000000000000000000000000000000006000000000000000000000000000000000000000000000000000000000000000a0000000000000000000000000000000000000000000000000000000000000010000000000000000000000000000000000000000000000000000000000000000116465636f64655472616e73616374696f6e000000000000000000000000000000000000000000000000000000000000000000000000000000000000000000002f4465636f6465207472616e73616374696f6e2066756e6374696f6e2063616c6c20616e6420706172616d657465727300000000000000000000000000000000000000000000000000000000000000000000000000000000000000000000000005302e312e30000000000000000000000000000000000000000000000000000000",
        "nonce": "0xc",
        "chainId": "0xa86a"
      },
      "additionalContracts": [],
      "isFixedGasLimit": false
    },
    {
      "hash": "0x5adee6786353e8d9f407fe00ec60abbd3e7fd0f3060cae9e08f9cc518826ac87",
      "transactionType": "CALL",
      "contractName": "MCPRegistry",
      "contractAddress": "0x62402b65bfb4fd022285a6fc2f26d8caeec3d055",
      "function": "registerTool(string,string,string)",
      "arguments": [
        "readContract",
        "Call a read-only contract function and return decoded result",
        "0.1.0"
      ],
      "transaction": {
        "from": "0x19bd49ae6e4732c91d541f9bd486dc75e3888971",
        "to": "0x62402b65bfb4fd022285a6fc2f26d8caeec3d055",
        "gas": "0x450b2",
        "value": "0x0",
        "input": "0x9e01510c000000000000000000000000000000000000000000000000000000000000006000000000000000000000000000000000000000000000000000000000000000a00000000000000000000000000000000000000000000000000000000000000100000000000000000000000000000000000000000000000000000000000000000c72656164436f6e74726163740000000000000000000000000000000000000000000000000000000000000000000000000000000000000000000000000000003c43616c6c206120726561642d6f6e6c7920636f6e74726163742066756e6374696f6e20616e642072657475726e206465636f64656420726573756c74000000000000000000000000000000000000000000000000000000000000000000000005302e312e30000000000000000000000000000000000000000000000000000000",
        "nonce": "0xd",
        "chainId": "0xa86a"
      },
      "additionalContracts": [],
      "isFixedGasLimit": false
    },
    {
      "hash": "0x4c123af60ceb43b632658135beb35621390ce7846089d4aba973dad56c318b6c",
      "transactionType": "CALL",
      "contractName": "MCPRegistry",
      "contractAddress": "0x62402b65bfb4fd022285a6fc2f26d8caeec3d055",
      "function": "registerTool(string,string,string)",
      "arguments": [
        "getContractCode",
        "Check if an address has contract code and get bytecode metadata",
        "0.1.0"
      ],
      "transaction": {
        "from": "0x19bd49ae6e4732c91d541f9bd486dc75e3888971",
        "to": "0x62402b65bfb4fd022285a6fc2f26d8caeec3d055",
        "gas": "0x4511b",
        "value": "0x0",
        "input": "0x9e01510c000000000000000000000000000000000000000000000000000000000000006000000000000000000000000000000000000000000000000000000000000000a00000000000000000000000000000000000000000000000000000000000000100000000000000000000000000000000000000000000000000000000000000000f676574436f6e7472616374436f64650000000000000000000000000000000000000000000000000000000000000000000000000000000000000000000000003f436865636b20696620616e20616464726573732068617320636f6e747261637420636f646520616e64206765742062797465636f6465206d65746164617461000000000000000000000000000000000000000000000000000000000000000005302e312e30000000000000000000000000000000000000000000000000000000",
        "nonce": "0xe",
        "chainId": "0xa86a"
      },
      "additionalContracts": [],
      "isFixedGasLimit": false
    },
    {
      "hash": "0x18207ab32aa3995cff0fda79749a6aee7969260d1df54b1f913384f455c80beb",
      "transactionType": "CALL",
      "contractName": "MCPRegistry",
      "contractAddress": "0x62402b65bfb4fd022285a6fc2f26d8caeec3d055",
      "function": "registerTool(string,string,string)",
      "arguments": [
        "getStorageAt",
        "Read raw storage slot value at an address",
        "0.1.0"
      ],
      "transaction": {
        "from": "0x19bd49ae6e4732c91d541f9bd486dc75e3888971",
        "to": "0x62402b65bfb4fd022285a6fc2f26d8caeec3d055",
        "gas": "0x41217",
        "value": "0x0",
        "input": "0x9e01510c000000000000000000000000000000000000000000000000000000000000006000000000000000000000000000000000000000000000000000000000000000a00000000000000000000000000000000000000000000000000000000000000100000000000000000000000000000000000000000000000000000000000000000c67657453746f7261676541740000000000000000000000000000000000000000000000000000000000000000000000000000000000000000000000000000002952656164207261772073746f7261676520736c6f742076616c756520617420616e206164647265737300000000000000000000000000000000000000000000000000000000000000000000000000000000000000000000000000000000000005302e312e30000000000000000000000000000000000000000000000000000000",
        "nonce": "0xf",
        "chainId": "0xa86a"
      },
      "additionalContracts": [],
      "isFixedGasLimit": false
    },
    {
      "hash": "0x04bef7d0e0df84a328110dca3f1a075980f5e3a0f94d5c05ac3e4c1e9bb2e352",
      "transactionType": "CALL",
      "contractName": "MCPRegistry",
      "contractAddress": "0x62402b65bfb4fd022285a6fc2f26d8caeec3d055",
      "function": "registerTool(string,string,string)",
      "arguments": [
        "getERC20Info",
        "Get ERC20 token metadata via Multicall3 batch",
        "0.1.0"
      ],
      "transaction": {
        "from": "0x19bd49ae6e4732c91d541f9bd486dc75e3888971",
        "to": "0x62402b65bfb4fd022285a6fc2f26d8caeec3d055",
        "gas": "0x41259",
        "value": "0x0",
        "input": "0x9e01510c000000000000000000000000000000000000000000000000000000000000006000000000000000000000000000000000000000000000000000000000000000a00000000000000000000000000000000000000000000000000000000000000100000000000000000000000000000000000000000000000000000000000000000c6765744552433230496e666f0000000000000000000000000000000000000000000000000000000000000000000000000000000000000000000000000000002d47657420455243323020746f6b656e206d6574616461746120766961204d756c746963616c6c33206261746368000000000000000000000000000000000000000000000000000000000000000000000000000000000000000000000000000005302e312e30000000000000000000000000000000000000000000000000000000",
        "nonce": "0x10",
        "chainId": "0xa86a"
      },
      "additionalContracts": [],
      "isFixedGasLimit": false
    },
    {
      "hash": "0x35c97b82be4ae1d7cc23fcdb97a071783b76928a6407e9df58a08fdde26f9c11",
      "transactionType": "CALL",
      "contractName": "MCPRegistry",
      "contractAddress": "0x62402b65bfb4fd022285a6fc2f26d8caeec3d055",
      "function": "registerTool(string,string,string)",
      "arguments": [
        "getTokenAllowance",
        "Get ERC20 allowance for an owner/spender pair",
        "0.1.0"
      ],
      "transaction": {
        "from": "0x19bd49ae6e4732c91d541f9bd486dc75e3888971",
        "to": "0x62402b65bfb4fd022285a6fc2f26d8caeec3d055",
        "gas": "0x45002",
        "value": "0x0",
        "input": "0x9e01510c000000000000000000000000000000000000000000000000000000000000006000000000000000000000000000000000000000000000000000000000000000a000000000000000000000000000000000000000000000000000000000000001000000000000000000000000000000000000000000000000000000000000000011676574546f6b656e416c6c6f77616e6365000000000000000000000000000000000000000000000000000000000000000000000000000000000000000000002d47657420455243323020616c6c6f77616e636520666f7220616e206f776e65722f7370656e6465722070616972000000000000000000000000000000000000000000000000000000000000000000000000000000000000000000000000000005302e312e30000000000000000000000000000000000000000000000000000000",
        "nonce": "0x11",
        "chainId": "0xa86a"
      },
      "additionalContracts": [],
      "isFixedGasLimit": false
    },
    {
      "hash": "0x4942f953291bc8358ea1c5aadb7786e72c150a16e56956839c3a09238817f468",
      "transactionType": "CALL",
      "contractName": "MCPRegistry",
      "contractAddress": "0x62402b65bfb4fd022285a6fc2f26d8caeec3d055",
      "function": "registerTool(string,string,string)",
      "arguments": [
        "getGasPrice",
        "Get current gas price and EIP-1559 fee data for a chain",
        "0.1.0"
      ],
      "transaction": {
        "from": "0x19bd49ae6e4732c91d541f9bd486dc75e3888971",
        "to": "0x62402b65bfb4fd022285a6fc2f26d8caeec3d055",
        "gas": "0x45048",
        "value": "0x0",
        "input": "0x9e01510c000000000000000000000000000000000000000000000000000000000000006000000000000000000000000000000000000000000000000000000000000000a00000000000000000000000000000000000000000000000000000000000000100000000000000000000000000000000000000000000000000000000000000000b676574476173507269636500000000000000000000000000000000000000000000000000000000000000000000000000000000000000000000000000000000374765742063757272656e742067617320707269636520616e64204549502d3135353920666565206461746120666f72206120636861696e0000000000000000000000000000000000000000000000000000000000000000000000000000000005302e312e30000000000000000000000000000000000000000000000000000000",
        "nonce": "0x12",
        "chainId": "0xa86a"
      },
      "additionalContracts": [],
      "isFixedGasLimit": false
    },
    {
      "hash": "0x696476992f22e6726e36691faa84b2fe46a30e535761683e4e960fba7442fadd",
      "transactionType": "CALL",
      "contractName": "MCPRegistry",
      "contractAddress": "0x62402b65bfb4fd022285a6fc2f26d8caeec3d055",
      "function": "registerTool(string,string,string)",
      "arguments": [
        "estimateGas",
        "Estimate gas cost for a transaction",
        "0.1.0"
      ],
      "transaction": {
        "from": "0x19bd49ae6e4732c91d541f9bd486dc75e3888971",
        "to": "0x62402b65bfb4fd022285a6fc2f26d8caeec3d055",
        "gas": "0x44ee9",
        "value": "0x0",
        "input": "0x9e01510c000000000000000000000000000000000000000000000000000000000000006000000000000000000000000000000000000000000000000000000000000000a00000000000000000000000000000000000000000000000000000000000000100000000000000000000000000000000000000000000000000000000000000000b657374696d6174654761730000000000000000000000000000000000000000000000000000000000000000000000000000000000000000000000000000000023457374696d6174652067617320636f737420666f722061207472616e73616374696f6e00000000000000000000000000000000000000000000000000000000000000000000000000000000000000000000000000000000000000000000000005302e312e30000000000000000000000000000000000000000000000000000000",
        "nonce": "0x13",
        "chainId": "0xa86a"
      },
      "additionalContracts": [],
      "isFixedGasLimit": false
    },
    {
      "hash": "0x7474b92f2bab7abb7459767ad9cbe230f40d5c9bbe25ff911bd75e75b4b24c8b",
      "transactionType": "CALL",
      "contractName": "MCPRegistry",
      "contractAddress": "0x62402b65bfb4fd022285a6fc2f26d8caeec3d055",
      "function": "registerTool(string,string,string)",
      "arguments": [
        "compareGasAcrossChains",
        "Compare current gas prices across all 4 supported chains",
        "0.1.0"
      ],
      "transaction": {
        "from": "0x19bd49ae6e4732c91d541f9bd486dc75e3888971",
        "to": "0x62402b65bfb4fd022285a6fc2f26d8caeec3d055",
        "gas": "0x4511b",
        "value": "0x0",
        "input": "0x9e01510c000000000000000000000000000000000000000000000000000000000000006000000000000000000000000000000000000000000000000000000000000000a000000000000000000000000000000000000000000000000000000000000001000000000000000000000000000000000000000000000000000000000000000016636f6d706172654761734163726f7373436861696e73000000000000000000000000000000000000000000000000000000000000000000000000000000000038436f6d706172652063757272656e742067617320707269636573206163726f737320616c6c203420737570706f7274656420636861696e7300000000000000000000000000000000000000000000000000000000000000000000000000000005302e312e30000000000000000000000000000000000000000000000000000000",
        "nonce": "0x14",
        "chainId": "0xa86a"
      },
      "additionalContracts": [],
      "isFixedGasLimit": false
    },
    {
      "hash": "0xe0e0d8fc0f62f453d144ea78faf1385ae89562212df10d9794d7fa858d769447",
      "transactionType": "CALL",
      "contractName": "MCPRegistry",
      "contractAddress": "0x62402b65bfb4fd022285a6fc2f26d8caeec3d055",
      "function": "registerTool(string,string,string)",
      "arguments": [
        "resolveENS",
        "Resolve an ENS name to an address via Ethereum L1",
        "0.1.0"
      ],
      "transaction": {
        "from": "0x19bd49ae6e4732c91d541f9bd486dc75e3888971",
        "to": "0x62402b65bfb4fd022285a6fc2f26d8caeec3d055",
        "gas": "0x4127a",
        "value": "0x0",
        "input": "0x9e01510c000000000000000000000000000000000000000000000000000000000000006000000000000000000000000000000000000000000000000000000000000000a00000000000000000000000000000000000000000000000000000000000000100000000000000000000000000000000000000000000000000000000000000000a7265736f6c7665454e530000000000000000000000000000000000000000000000000000000000000000000000000000000000000000000000000000000000315265736f6c766520616e20454e53206e616d6520746f20616e20616464726573732076696120457468657265756d204c310000000000000000000000000000000000000000000000000000000000000000000000000000000000000000000005302e312e30000000000000000000000000000000000000000000000000000000",
        "nonce": "0x15",
        "chainId": "0xa86a"
      },
      "additionalContracts": [],
      "isFixedGasLimit": false
    },
    {
      "hash": "0x8e62386d64cef105833d5fbefef054534ad84f910b721d8b6f5c764f5d3301be",
      "transactionType": "CALL",
      "contractName": "MCPRegistry",
      "contractAddress": "0x62402b65bfb4fd022285a6fc2f26d8caeec3d055",
      "function": "registerTool(string,string,string)",
      "arguments": [
        "lookupAddress",
        "Reverse lookup an address to its ENS name",
        "0.1.0"
      ],
      "transaction": {
        "from": "0x19bd49ae6e4732c91d541f9bd486dc75e3888971",
        "to": "0x62402b65bfb4fd022285a6fc2f26d8caeec3d055",
        "gas": "0x44f76",
        "value": "0x0",
        "input": "0x9e01510c000000000000000000000000000000000000000000000000000000000000006000000000000000000000000000000000000000000000000000000000000000a00000000000000000000000000000000000000000000000000000000000000100000000000000000000000000000000000000000000000000000000000000000d6c6f6f6b75704164647265737300000000000000000000000000000000000000000000000000000000000000000000000000000000000000000000000000002952657665727365206c6f6f6b757020616e206164647265737320746f2069747320454e53206e616d6500000000000000000000000000000000000000000000000000000000000000000000000000000000000000000000000000000000000005302e312e30000000000000000000000000000000000000000000000000000000",
        "nonce": "0x16",
        "chainId": "0xa86a"
      },
      "additionalContracts": [],
      "isFixedGasLimit": false
    },
    {
      "hash": "0xb59d9e63950a8283a5f88f32c7dd68f6acac617c192e8439690b7a1ad5cbe85d",
      "transactionType": "CALL",
      "contractName": "MCPRegistry",
      "contractAddress": "0x62402b65bfb4fd022285a6fc2f26d8caeec3d055",
      "function": "registerTool(string,string,string)",
      "arguments": [
        "getContractEvents",
        "Get decoded event logs for a contract",
        "0.1.0"
      ],
      "transaction": {
        "from": "0x19bd49ae6e4732c91d541f9bd486dc75e3888971",
        "to": "0x62402b65bfb4fd022285a6fc2f26d8caeec3d055",
        "gas": "0x44f76",
        "value": "0x0",
        "input": "0x9e01510c000000000000000000000000000000000000000000000000000000000000006000000000000000000000000000000000000000000000000000000000000000a000000000000000000000000000000000000000000000000000000000000001000000000000000000000000000000000000000000000000000000000000000011676574436f6e74726163744576656e74730000000000000000000000000000000000000000000000000000000000000000000000000000000000000000000025476574206465636f646564206576656e74206c6f677320666f72206120636f6e74726163740000000000000000000000000000000000000000000000000000000000000000000000000000000000000000000000000000000000000000000005302e312e30000000000000000000000000000000000000000000000000000000",
        "nonce": "0x17",
        "chainId": "0xa86a"
      },
      "additionalContracts": [],
      "isFixedGasLimit": false
    },
    {
      "hash": "0x100e627ca977e144861a2224e514608060b118df25c86e54ca12afcad433c60e",
      "transactionType": "CALL",
      "contractName": "MCPRegistry",
      "contractAddress": "0x62402b65bfb4fd022285a6fc2f26d8caeec3d055",
      "function": "registerTool(string,string,string)",
      "arguments": [
        "decodeEventLog",
        "Decode a raw event log using a provided ABI",
        "0.1.0"
      ],
      "transaction": {
        "from": "0x19bd49ae6e4732c91d541f9bd486dc75e3888971",
        "to": "0x62402b65bfb4fd022285a6fc2f26d8caeec3d055",
        "gas": "0x41259",
        "value": "0x0",
        "input": "0x9e01510c000000000000000000000000000000000000000000000000000000000000006000000000000000000000000000000000000000000000000000000000000000a00000000000000000000000000000000000000000000000000000000000000100000000000000000000000000000000000000000000000000000000000000000e6465636f64654576656e744c6f67000000000000000000000000000000000000000000000000000000000000000000000000000000000000000000000000002b4465636f6465206120726177206576656e74206c6f67207573696e6720612070726f7669646564204142490000000000000000000000000000000000000000000000000000000000000000000000000000000000000000000000000000000005302e312e30000000000000000000000000000000000000000000000000000000",
        "nonce": "0x18",
        "chainId": "0xa86a"
      },
      "additionalContracts": [],
      "isFixedGasLimit": false
    },
    {
      "hash": "0xb1de85ee05cb6455f05dd36b8b884a617354a01979b88e58e207e2bd4646d620",
      "transactionType": "CALL",
      "contractName": "MCPRegistry",
      "contractAddress": "0x62402b65bfb4fd022285a6fc2f26d8caeec3d055",
      "function": "registerTool(string,string,string)",
      "arguments": [
        "getChainInfo",
        "Get chain metadata including block height and native symbol",
        "0.1.0"
      ],
      "transaction": {
        "from": "0x19bd49ae6e4732c91d541f9bd486dc75e3888971",
        "to": "0x62402b65bfb4fd022285a6fc2f26d8caeec3d055",
        "gas": "0x41341",
        "value": "0x0",
        "input": "0x9e01510c000000000000000000000000000000000000000000000000000000000000006000000000000000000000000000000000000000000000000000000000000000a00000000000000000000000000000000000000000000000000000000000000100000000000000000000000000000000000000000000000000000000000000000c676574436861696e496e666f0000000000000000000000000000000000000000000000000000000000000000000000000000000000000000000000000000003b47657420636861696e206d6574616461746120696e636c7564696e6720626c6f636b2068656967687420616e64206e61746976652073796d626f6c00000000000000000000000000000000000000000000000000000000000000000000000005302e312e30000000000000000000000000000000000000000000000000000000",
        "nonce": "0x19",
        "chainId": "0xa86a"
      },
      "additionalContracts": [],
      "isFixedGasLimit": false
    },
    {
      "hash": "0x441f35bd7f117166dd1e3047ae741ce11eba2ba30608e27bafbcdd443431bdbb",
      "transactionType": "CALL",
      "contractName": "MCPRegistry",
      "contractAddress": "0x62402b65bfb4fd022285a6fc2f26d8caeec3d055",
      "function": "registerTool(string,string,string)",
      "arguments": [
        "isContractDeployed",
        "Check if a contract is deployed across all supported chains",
        "0.1.0"
      ],
      "transaction": {
        "from": "0x19bd49ae6e4732c91d541f9bd486dc75e3888971",
        "to": "0x62402b65bfb4fd022285a6fc2f26d8caeec3d055",
        "gas": "0x413a5",
        "value": "0x0",
        "input": "0x9e01510c000000000000000000000000000000000000000000000000000000000000006000000000000000000000000000000000000000000000000000000000000000a0000000000000000000000000000000000000000000000000000000000000010000000000000000000000000000000000000000000000000000000000000000126973436f6e74726163744465706c6f7965640000000000000000000000000000000000000000000000000000000000000000000000000000000000000000003b436865636b206966206120636f6e7472616374206973206465706c6f796564206163726f737320616c6c20737570706f7274656420636861696e7300000000000000000000000000000000000000000000000000000000000000000000000005302e312e30000000000000000000000000000000000000000000000000000000",
        "nonce": "0x1a",
        "chainId": "0xa86a"
      },
      "additionalContracts": [],
      "isFixedGasLimit": false
    },
    {
      "hash": "0x83e35049b859c8ae573c873b0430579737862b03ec8587f70ccc2c8c52ee3ffc",
      "transactionType": "CALL",
      "contractName": "MCPRegistry",
      "contractAddress": "0x62402b65bfb4fd022285a6fc2f26d8caeec3d055",
      "function": "registerTool(string,string,string)",
      "arguments": [
        "healthCheck",
        "Test all RPC connections and report status",
        "0.1.0"
      ],
      "transaction": {
        "from": "0x19bd49ae6e4732c91d541f9bd486dc75e3888971",
        "to": "0x62402b65bfb4fd022285a6fc2f26d8caeec3d055",
        "gas": "0x41217",
        "value": "0x0",
        "input": "0x9e01510c000000000000000000000000000000000000000000000000000000000000006000000000000000000000000000000000000000000000000000000000000000a00000000000000000000000000000000000000000000000000000000000000100000000000000000000000000000000000000000000000000000000000000000b6865616c7468436865636b000000000000000000000000000000000000000000000000000000000000000000000000000000000000000000000000000000002a5465737420616c6c2052504320636f6e6e656374696f6e7320616e64207265706f727420737461747573000000000000000000000000000000000000000000000000000000000000000000000000000000000000000000000000000000000005302e312e30000000000000000000000000000000000000000000000000000000",
        "nonce": "0x1b",
        "chainId": "0xa86a"
      },
      "additionalContracts": [],
      "isFixedGasLimit": false
    },
    {
      "hash": "0xf0d75c7cafee2404b76af7611cf6b25f0295441f1af3b615fd18a5eb04e37477",
      "transactionType": "CALL",
      "contractName": "MCPRegistry",
      "contractAddress": "0x62402b65bfb4fd022285a6fc2f26d8caeec3d055",
      "function": "registerTool(string,string,string)",
      "arguments": [
        "batchQuery",
        "Execute batch read calls via Multicall3",
        "0.1.0"
      ],
      "transaction": {
        "from": "0x19bd49ae6e4732c91d541f9bd486dc75e3888971",
        "to": "0x62402b65bfb4fd022285a6fc2f26d8caeec3d055",
        "gas": "0x411d5",
        "value": "0x0",
        "input": "0x9e01510c000000000000000000000000000000000000000000000000000000000000006000000000000000000000000000000000000000000000000000000000000000a00000000000000000000000000000000000000000000000000000000000000100000000000000000000000000000000000000000000000000000000000000000a626174636851756572790000000000000000000000000000000000000000000000000000000000000000000000000000000000000000000000000000000000274578656375746520626174636820726561642063616c6c7320766961204d756c746963616c6c33000000000000000000000000000000000000000000000000000000000000000000000000000000000000000000000000000000000000000005302e312e30000000000000000000000000000000000000000000000000000000",
        "nonce": "0x1c",
        "chainId": "0xa86a"
      },
      "additionalContracts": [],
      "isFixedGasLimit": false
    }
  ],
  "receipts": [
    {
      "status": "0x1",
      "cumulativeGasUsed": "0x294b4f",
      "logs": [
        {
          "address": "0x62402b65bfb4fd022285a6fc2f26d8caeec3d055",
          "topics": [
            "0x429fa3f2cc8331e73fa6082c4dc1b89b5be0a13383f325d93cb26d83a47ea298",
            "0xc6e48e23057a9367006698ee62874f5ca25b4faf8da0114dbac8e0f6787004c4"
          ],
          "data": "0x00000000000000000000000000000000000000000000000000000000000000400000000000000000000000000000000000000000000000000000000069ccba2a0000000000000000000000000000000000000000000000000000000000000005302e312e30000000000000000000000000000000000000000000000000000000",
          "blockHash": "0x2e0b73659af289d06a7e7487f41fafe9cc7f18883020da5a0ee261b5586d8508",
          "blockNumber": "0x4e0596b",
          "transactionHash": "0xc2aaf0aaaad52c2a74ae96284d78ae7757dc2470d0b1710b5d9d5a0ddf80e15f",
          "transactionIndex": "0x12",
          "logIndex": "0x2b",
          "removed": false
        }
      ],
      "logsBloom": "0x00000000000000000000000000000000000000000000000000000000000000000000000000000000000000000000000000000000000000000000000000000000000000000000000000000000400000000000000000000000000000000000000000000004000000000000000000000000000000000000000000000000000001000000000000000000002000000000000000000000000000000000000000000000000000000000001000000000000000000000000000000000000000000000000000000000000000000000000000000000000000000080000000000000000200000000000000000000000800000000040000000000000000000000000000000000",
      "type": "0x2",
      "transactionHash": "0xc2aaf0aaaad52c2a74ae96284d78ae7757dc2470d0b1710b5d9d5a0ddf80e15f",
      "transactionIndex": "0x12",
      "blockHash": "0x2e0b73659af289d06a7e7487f41fafe9cc7f18883020da5a0ee261b5586d8508",
      "blockNumber": "0x4e0596b",
      "gasUsed": "0x33625",
      "effectiveGasPrice": "0x116870b2",
      "from": "0x19bd49ae6e4732c91d541f9bd486dc75e3888971",
      "to": "0x62402b65bfb4fd022285a6fc2f26d8caeec3d055",
      "contractAddress": null
    },
    {
      "status": "0x1",
      "cumulativeGasUsed": "0x2c3eb4",
      "logs": [
        {
          "address": "0x62402b65bfb4fd022285a6fc2f26d8caeec3d055",
          "topics": [
            "0x429fa3f2cc8331e73fa6082c4dc1b89b5be0a13383f325d93cb26d83a47ea298",
            "0xdce17bd92bab6573d1db7bc84cb508b87d2b7a0d2581148e4a23d0dc75fddafd"
          ],
          "data": "0x00000000000000000000000000000000000000000000000000000000000000400000000000000000000000000000000000000000000000000000000069ccba2a0000000000000000000000000000000000000000000000000000000000000005302e312e30000000000000000000000000000000000000000000000000000000",
          "blockHash": "0x2e0b73659af289d06a7e7487f41fafe9cc7f18883020da5a0ee261b5586d8508",
          "blockNumber": "0x4e0596b",
          "transactionHash": "0x0e22c89a50145ab67975c3019574c6da425bab334adb270413e6bb36860b7a7e",
          "transactionIndex": "0x13",
          "logIndex": "0x2c",
          "removed": false
        }
      ],
      "logsBloom": "0x00000000000000000000000000004000000000000000000000000000000000000000000000000000000000000000000000000000004000000000000000000000000000000000000000000000400000000000000000000000000000000000000000000004000000001000000000000000000000000000000000000000000000000000000000000000000000000000000000000000000000000000000000000000000000000000001000000000000000000000000000000000000000000000000000000000000000000000000000000000000000000080000000000000000000000000000000000000000800000000040000000000000000000000000000000000",
      "type": "0x2",
      "transactionHash": "0x0e22c89a50145ab67975c3019574c6da425bab334adb270413e6bb36860b7a7e",
      "transactionIndex": "0x13",
      "blockHash": "0x2e0b73659af289d06a7e7487f41fafe9cc7f18883020da5a0ee261b5586d8508",
      "blockNumber": "0x4e0596b",
      "gasUsed": "0x2f365",
      "effectiveGasPrice": "0x116870b2",
      "from": "0x19bd49ae6e4732c91d541f9bd486dc75e3888971",
      "to": "0x62402b65bfb4fd022285a6fc2f26d8caeec3d055",
      "contractAddress": null
    },
    {
      "status": "0x1",
      "cumulativeGasUsed": "0x2f31f5",
      "logs": [
        {
          "address": "0x62402b65bfb4fd022285a6fc2f26d8caeec3d055",
          "topics": [
            "0x429fa3f2cc8331e73fa6082c4dc1b89b5be0a13383f325d93cb26d83a47ea298",
            "0xd94888843b87e0ddc5cf70ddce7bb26b6b85b0dc4ccbb70a3d427e5f1a58bb36"
          ],
          "data": "0x00000000000000000000000000000000000000000000000000000000000000400000000000000000000000000000000000000000000000000000000069ccba2a0000000000000000000000000000000000000000000000000000000000000005302e312e30000000000000000000000000000000000000000000000000000000",
          "blockHash": "0x2e0b73659af289d06a7e7487f41fafe9cc7f18883020da5a0ee261b5586d8508",
          "blockNumber": "0x4e0596b",
          "transactionHash": "0x8b05baf543d458af97f5c54b596dc9ed01278067f0cf0fdd10a6b555ed09278a",
          "transactionIndex": "0x14",
          "logIndex": "0x2d",
          "removed": false
        }
      ],
      "logsBloom": "0x00000000000000000000001000000000000000000200000000000000000000000000000000000000000000000000000000000000000000000000000000000000000000000000000000000000400000000000000000000000000000000000000000000004000000000000000000000000000000000000000000000002000000000000000000000000000000000000000000000000000000000000000000000000000000000000001000000000000000000000000000000000000000000000000000000000000000000000000000000000000000000080000000000000000000000000000000000000000800000000040000000000000000000000000000000000",
      "type": "0x2",
      "transactionHash": "0x8b05baf543d458af97f5c54b596dc9ed01278067f0cf0fdd10a6b555ed09278a",
      "transactionIndex": "0x14",
      "blockHash": "0x2e0b73659af289d06a7e7487f41fafe9cc7f18883020da5a0ee261b5586d8508",
      "blockNumber": "0x4e0596b",
      "gasUsed": "0x2f341",
      "effectiveGasPrice": "0x116870b2",
      "from": "0x19bd49ae6e4732c91d541f9bd486dc75e3888971",
      "to": "0x62402b65bfb4fd022285a6fc2f26d8caeec3d055",
      "contractAddress": null
    },
    {
      "status": "0x1",
      "cumulativeGasUsed": "0x32246a",
      "logs": [
        {
          "address": "0x62402b65bfb4fd022285a6fc2f26d8caeec3d055",
          "topics": [
            "0x429fa3f2cc8331e73fa6082c4dc1b89b5be0a13383f325d93cb26d83a47ea298",
            "0x842a8ad6212e42c435505d02a4b7e89141d91318ffea3fe899f02cf0832fa4bb"
          ],
          "data": "0x00000000000000000000000000000000000000000000000000000000000000400000000000000000000000000000000000000000000000000000000069ccba2a0000000000000000000000000000000000000000000000000000000000000005302e312e30000000000000000000000000000000000000000000000000000000",
          "blockHash": "0x2e0b73659af289d06a7e7487f41fafe9cc7f18883020da5a0ee261b5586d8508",
          "blockNumber": "0x4e0596b",
          "transactionHash": "0xec77d56880f7b14b8c4d63941617884bc14514af08f1df2eaa1e2d5ea4a6d07e",
          "transactionIndex": "0x15",
          "logIndex": "0x2e",
          "removed": false
        }
      ],
      "logsBloom": "0x00000000000000000000000000000000000000000000000000000000000000000000000000000000008000000000000000000000000000000000000000000000000000000000000000000000400000000000000000000000000000000000000000000004000000000000000000000000000000000000000000000000000000000000000000000000000000000000000000000000000000000000000000000000000000000000001000000000000000000000000000000000000000000000000000000000000000000000000000000000000000000080000002000000000000000000000000000000000800000000040000000040000000000000000000000000",
      "type": "0x2",
      "transactionHash": "0xec77d56880f7b14b8c4d63941617884bc14514af08f1df2eaa1e2d5ea4a6d07e",
      "transactionIndex": "0x15",
      "blockHash": "0x2e0b73659af289d06a7e7487f41fafe9cc7f18883020da5a0ee261b5586d8508",
      "blockNumber": "0x4e0596b",
      "gasUsed": "0x2f275",
      "effectiveGasPrice": "0x116870b2",
      "from": "0x19bd49ae6e4732c91d541f9bd486dc75e3888971",
      "to": "0x62402b65bfb4fd022285a6fc2f26d8caeec3d055",
      "contractAddress": null
    },
    {
      "status": "0x1",
      "cumulativeGasUsed": "0x3516df",
      "logs": [
        {
          "address": "0x62402b65bfb4fd022285a6fc2f26d8caeec3d055",
          "topics": [
            "0x429fa3f2cc8331e73fa6082c4dc1b89b5be0a13383f325d93cb26d83a47ea298",
            "0x2953357ad8f50b1ca2aa2600a4bac2cc64fc74ebc13e659225e3a4b39ed8dbb0"
          ],
          "data": "0x00000000000000000000000000000000000000000000000000000000000000400000000000000000000000000000000000000000000000000000000069ccba2a0000000000000000000000000000000000000000000000000000000000000005302e312e30000000000000000000000000000000000000000000000000000000",
          "blockHash": "0x2e0b73659af289d06a7e7487f41fafe9cc7f18883020da5a0ee261b5586d8508",
          "blockNumber": "0x4e0596b",
          "transactionHash": "0x5adee6786353e8d9f407fe00ec60abbd3e7fd0f3060cae9e08f9cc518826ac87",
          "transactionIndex": "0x16",
          "logIndex": "0x2f",
          "removed": false
        }
      ],
      "logsBloom": "0x00002000000000000000000000000000000000000000000000000000000000000000000000000000000000000000000000000000000000000000000000000000000000000000000000000000400000000000000000000000000000000000000000000004000000000000000000000000002000000000000000000000000000000000000000000000000000000000000000000000000000000000000000000000000000000000001000000000000000000000000000000004000000000000000000000000000000000000000000000000000000000080000000000000000000000000000000000000000800000000040000000000000000000000000000000000",
      "type": "0x2",
      "transactionHash": "0x5adee6786353e8d9f407fe00ec60abbd3e7fd0f3060cae9e08f9cc518826ac87",
      "transactionIndex": "0x16",
      "blockHash": "0x2e0b73659af289d06a7e7487f41fafe9cc7f18883020da5a0ee261b5586d8508",
      "blockNumber": "0x4e0596b",
      "gasUsed": "0x2f275",
      "effectiveGasPrice": "0x116870b2",
      "from": "0x19bd49ae6e4732c91d541f9bd486dc75e3888971",
      "to": "0x62402b65bfb4fd022285a6fc2f26d8caeec3d055",
      "contractAddress": null
    },
    {
      "status": "0x1",
      "cumulativeGasUsed": "0x3809fc",
      "logs": [
        {
          "address": "0x62402b65bfb4fd022285a6fc2f26d8caeec3d055",
          "topics": [
            "0x429fa3f2cc8331e73fa6082c4dc1b89b5be0a13383f325d93cb26d83a47ea298",
            "0xe4d1a1bd71b2bfc91154d023711930004ce9aedb6c7740844575612231c75c66"
          ],
          "data": "0x00000000000000000000000000000000000000000000000000000000000000400000000000000000000000000000000000000000000000000000000069ccba2a0000000000000000000000000000000000000000000000000000000000000005302e312e30000000000000000000000000000000000000000000000000000000",
          "blockHash": "0x2e0b73659af289d06a7e7487f41fafe9cc7f18883020da5a0ee261b5586d8508",
          "blockNumber": "0x4e0596b",
          "transactionHash": "0xfffb26896a0cc7bbf1bf96a56a99d33af562acfaedc9db8a542790fe650c7eb0",
          "transactionIndex": "0x17",
          "logIndex": "0x30",
          "removed": false
        }
      ],
      "logsBloom": "0x00000000000000000000000000000000000000000000000000000000000000000000000000000000000000000000000000000000000000000000400000000000000000000000000000000000400000000000000000000000000000000000000000000004000000000000000000000000000000000000000000000000000000000000000000000000000000000000000000000000000000000000000000000000000000000000001000000000000000000000000000000000000000000000000000000000000000000000000000000000000000000080000000000000000000000000000000000000001800000000040000000000000000000000000000000004",
      "type": "0x2",
      "transactionHash": "0xfffb26896a0cc7bbf1bf96a56a99d33af562acfaedc9db8a542790fe650c7eb0",
      "transactionIndex": "0x17",
      "blockHash": "0x2e0b73659af289d06a7e7487f41fafe9cc7f18883020da5a0ee261b5586d8508",
      "blockNumber": "0x4e0596b",
      "gasUsed": "0x2f31d",
      "effectiveGasPrice": "0x116870b2",
      "from": "0x19bd49ae6e4732c91d541f9bd486dc75e3888971",
      "to": "0x62402b65bfb4fd022285a6fc2f26d8caeec3d055",
      "contractAddress": null
    },
    {
      "status": "0x1",
      "cumulativeGasUsed": "0x3a4e28",
      "logs": [
        {
          "address": "0x62402b65bfb4fd022285a6fc2f26d8caeec3d055",
          "topics": [
            "0x429fa3f2cc8331e73fa6082c4dc1b89b5be0a13383f325d93cb26d83a47ea298",
            "0x30b56e18703b19c89b2be522ec5466febb9dc5dda837e6b81b9d03629398f789"
          ],
          "data": "0x00000000000000000000000000000000000000000000000000000000000000400000000000000000000000000000000000000000000000000000000069ccba2a0000000000000000000000000000000000000000000000000000000000000005302e312e30000000000000000000000000000000000000000000000000000000",
          "blockHash": "0x2e0b73659af289d06a7e7487f41fafe9cc7f18883020da5a0ee261b5586d8508",
          "blockNumber": "0x4e0596b",
          "transactionHash": "0xb265b3855bb9c75a22f66ae2adcb79c827354f99498811edc2085efd6b502583",
          "transactionIndex": "0x18",
          "logIndex": "0x31",
          "removed": false
        }
      ],
      "logsBloom": "0x00000000000000000000000000000000000000000000000000000000000000000000000000000000000000000000000000000000000000000200000000000000000000000040000000000000400000000000000000000000000000000000000000000004000000000000000000000000000000000000000000000000000000008000000000000000000000000000000000000000000000000000000000000000000000000000001000000000000000000000000000000000000000000000000000000000000000000000000000000000000000000080000000000000000000000000000000000000000800000000040000000000000000000000000000000000",
      "type": "0x2",
      "transactionHash": "0xb265b3855bb9c75a22f66ae2adcb79c827354f99498811edc2085efd6b502583",
      "transactionIndex": "0x18",
      "blockHash": "0x2e0b73659af289d06a7e7487f41fafe9cc7f18883020da5a0ee261b5586d8508",
      "blockNumber": "0x4e0596b",
      "gasUsed": "0x2442c",
      "effectiveGasPrice": "0x116870b2",
      "from": "0x19bd49ae6e4732c91d541f9bd486dc75e3888971",
      "to": "0x62402b65bfb4fd022285a6fc2f26d8caeec3d055",
      "contractAddress": null
    },
    {
      "status": "0x1",
      "cumulativeGasUsed": "0x3d41a5",
      "logs": [
        {
          "address": "0x62402b65bfb4fd022285a6fc2f26d8caeec3d055",
          "topics": [
            "0x429fa3f2cc8331e73fa6082c4dc1b89b5be0a13383f325d93cb26d83a47ea298",
            "0xab495269b15384453a70d18733c068e1f06d3438f3c13714010df06105446d2b"
          ],
          "data": "0x00000000000000000000000000000000000000000000000000000000000000400000000000000000000000000000000000000000000000000000000069ccba2a0000000000000000000000000000000000000000000000000000000000000005302e312e30000000000000000000000000000000000000000000000000000000",
          "blockHash": "0x2e0b73659af289d06a7e7487f41fafe9cc7f18883020da5a0ee261b5586d8508",
          "blockNumber": "0x4e0596b",
          "transactionHash": "0x766d4e1e1e6d384e1a45655bd962728164721417b5db35f1897a1142555f150e",
          "transactionIndex": "0x19",
          "logIndex": "0x32",
          "removed": false
        }
      ],
      "logsBloom": "0x00000000000000000000000000000000000000000000000000000000000000000000000000000000000000000000000000000000000000000000000000000000000000000000000000000000400000000000000000000000000000000000000000000004000000000000000000000000000000000000000000000000000000000000000000000000000000000000000000000000000000000000000000000000000000000000001000000080000000000000000000000000000000000000000000000000000000000000000000000000000000000080000000000000000000000000000000000000000800008000040010000000000000000000000000000000",
      "type": "0x2",
      "transactionHash": "0x766d4e1e1e6d384e1a45655bd962728164721417b5db35f1897a1142555f150e",
      "transactionIndex": "0x19",
      "blockHash": "0x2e0b73659af289d06a7e7487f41fafe9cc7f18883020da5a0ee261b5586d8508",
      "blockNumber": "0x4e0596b",
      "gasUsed": "0x2f37d",
      "effectiveGasPrice": "0x116870b2",
      "from": "0x19bd49ae6e4732c91d541f9bd486dc75e3888971",
      "to": "0x62402b65bfb4fd022285a6fc2f26d8caeec3d055",
      "contractAddress": null
    },
    {
      "status": "0x1",
      "cumulativeGasUsed": "0x40349e",
      "logs": [
        {
          "address": "0x62402b65bfb4fd022285a6fc2f26d8caeec3d055",
          "topics": [
            "0x429fa3f2cc8331e73fa6082c4dc1b89b5be0a13383f325d93cb26d83a47ea298",
            "0xbd4765ed446999b5b26f8f36ddaa5311e796448f4d43f193b29447ef5a9ac758"
          ],
          "data": "0x00000000000000000000000000000000000000000000000000000000000000400000000000000000000000000000000000000000000000000000000069ccba2a0000000000000000000000000000000000000000000000000000000000000005302e312e30000000000000000000000000000000000000000000000000000000",
          "blockHash": "0x2e0b73659af289d06a7e7487f41fafe9cc7f18883020da5a0ee261b5586d8508",
          "blockNumber": "0x4e0596b",
          "transactionHash": "0xe476d0cc65acf4cb40cfe68a77a7386261f3da78bc985b84c12eabb311417489",
          "transactionIndex": "0x1a",
          "logIndex": "0x33",
          "removed": false
        }
      ],
      "logsBloom": "0x00000000000000000000000000000000000000000000000000000000000000000000000000000000000000000000000000000000000000000080000000000000000000000000000000000000400000000000000000000000000000000000000000000004000000000000000000000000000000000000000000000000000000000000000000000000000000000000000000000000000000000000000000000000000000000100001000000000000000000000000000000000000000000000000000000000000000000000000000000000000000000080000000000000000000000000000000000000000800020000040000000000000000000000000000000000",
      "type": "0x2",
      "transactionHash": "0xe476d0cc65acf4cb40cfe68a77a7386261f3da78bc985b84c12eabb311417489",
      "transactionIndex": "0x1a",
      "blockHash": "0x2e0b73659af289d06a7e7487f41fafe9cc7f18883020da5a0ee261b5586d8508",
      "blockNumber": "0x4e0596b",
      "gasUsed": "0x2f2f9",
      "effectiveGasPrice": "0x116870b2",
      "from": "0x19bd49ae6e4732c91d541f9bd486dc75e3888971",
      "to": "0x62402b65bfb4fd022285a6fc2f26d8caeec3d055",
      "contractAddress": null
    },
    {
      "status": "0x1",
      "cumulativeGasUsed": "0x4327f7",
      "logs": [
        {
          "address": "0x62402b65bfb4fd022285a6fc2f26d8caeec3d055",
          "topics": [
            "0x429fa3f2cc8331e73fa6082c4dc1b89b5be0a13383f325d93cb26d83a47ea298",
            "0x15793420384abe2cf78fbcad3f4411599f3143662a08ecd9ad056ddbac357b62"
          ],
          "data": "0x00000000000000000000000000000000000000000000000000000000000000400000000000000000000000000000000000000000000000000000000069ccba2a0000000000000000000000000000000000000000000000000000000000000005302e312e30000000000000000000000000000000000000000000000000000000",
          "blockHash": "0x2e0b73659af289d06a7e7487f41fafe9cc7f18883020da5a0ee261b5586d8508",
          "blockNumber": "0x4e0596b",
          "transactionHash": "0xd546077de5b5965b9f1b49caa69c426970754fb64989d9d0e70b8adb0574e330",
          "transactionIndex": "0x1b",
          "logIndex": "0x34",
          "removed": false
        }
      ],
      "logsBloom": "0x00000000000000000000000000000000000000000000000000000000000000000000000000000000000000000000000000000000000000000000000000000000000000000000000000000000400000000000000000000000000000000000000000000004000000000010000000000000000000000000000000000000000000000000000000000000000000000000000000000000000000000000000000000000000000000000001000000000000000000000000000000000000000000000000000004000000000000000000000000000000000000080000000000000000000000000000000000000000800000000040000000000000000000000000000000040",
      "type": "0x2",
      "transactionHash": "0xd546077de5b5965b9f1b49caa69c426970754fb64989d9d0e70b8adb0574e330",
      "transactionIndex": "0x1b",
      "blockHash": "0x2e0b73659af289d06a7e7487f41fafe9cc7f18883020da5a0ee261b5586d8508",
      "blockNumber": "0x4e0596b",
      "gasUsed": "0x2f359",
      "effectiveGasPrice": "0x116870b2",
      "from": "0x19bd49ae6e4732c91d541f9bd486dc75e3888971",
      "to": "0x62402b65bfb4fd022285a6fc2f26d8caeec3d055",
      "contractAddress": null
    },
    {
      "status": "0x1",
      "cumulativeGasUsed": "0x461b98",
      "logs": [
        {
          "address": "0x62402b65bfb4fd022285a6fc2f26d8caeec3d055",
          "topics": [
            "0x429fa3f2cc8331e73fa6082c4dc1b89b5be0a13383f325d93cb26d83a47ea298",
            "0xb806d0bdb0a0672861e444d04f3a27cde645f1f6233ec1f4bef188af63552a72"
          ],
          "data": "0x00000000000000000000000000000000000000000000000000000000000000400000000000000000000000000000000000000000000000000000000069ccba2a0000000000000000000000000000000000000000000000000000000000000005302e312e30000000000000000000000000000000000000000000000000000000",
          "blockHash": "0x2e0b73659af289d06a7e7487f41fafe9cc7f18883020da5a0ee261b5586d8508",
          "blockNumber": "0x4e0596b",
          "transactionHash": "0x4942f953291bc8358ea1c5aadb7786e72c150a16e56956839c3a09238817f468",
          "transactionIndex": "0x1c",
          "logIndex": "0x35",
          "removed": false
        }
      ],
      "logsBloom": "0x00000000000000000000000000000000000000000000000000000000000000000000000000000000000000000000000000000000000000000000000000000000000000000000000000000000400000000000000000000000000000000000000000000004000000000000000000000000000000000000000000000000000000000000000000000000000000000000000000000000000000000000000000000000000000000000001000000000000000000000000000000000000000000000000000000000000000000000000000000000400000000080000000000000000000000000000001000000000800000000040000000000000010000000000000000000",
      "type": "0x2",
      "transactionHash": "0x4942f953291bc8358ea1c5aadb7786e72c150a16e56956839c3a09238817f468",
      "transactionIndex": "0x1c",
      "blockHash": "0x2e0b73659af289d06a7e7487f41fafe9cc7f18883020da5a0ee261b5586d8508",
      "blockNumber": "0x4e0596b",
      "gasUsed": "0x2f3a1",
      "effectiveGasPrice": "0x116870b2",
      "from": "0x19bd49ae6e4732c91d541f9bd486dc75e3888971",
      "to": "0x62402b65bfb4fd022285a6fc2f26d8caeec3d055",
      "contractAddress": null
    },
    {
      "status": "0x1",
      "cumulativeGasUsed": "0x4c00b2",
      "logs": [
        {
          "address": "0x62402b65bfb4fd022285a6fc2f26d8caeec3d055",
          "topics": [
            "0x429fa3f2cc8331e73fa6082c4dc1b89b5be0a13383f325d93cb26d83a47ea298",
            "0xa3c6fbce4e2f5aa7edb0380e37459f0f1c931572791fc1696a17dedb186fd193"
          ],
          "data": "0x00000000000000000000000000000000000000000000000000000000000000400000000000000000000000000000000000000000000000000000000069ccba2a0000000000000000000000000000000000000000000000000000000000000005302e312e30000000000000000000000000000000000000000000000000000000",
          "blockHash": "0x2e0b73659af289d06a7e7487f41fafe9cc7f18883020da5a0ee261b5586d8508",
          "blockNumber": "0x4e0596b",
          "transactionHash": "0x4c123af60ceb43b632658135beb35621390ce7846089d4aba973dad56c318b6c",
          "transactionIndex": "0x1e",
          "logIndex": "0x37",
          "removed": false
        }
      ],
      "logsBloom": "0x00000000000000000000000000000000000000000000000000000000000000000000000000000000000000000000000000000000000000000000000000000000000000000000000000000000400100000000000000000000000000000000000000000004000000000000000000000000000000000000000000000000020000000000000000000000000000000000000000000000000000000000000000000000000400000000001000000000000000000000000000000000000000000000000000000000000000000000000000000000000000000080000000000000000000000000000000000000000800000000040000000000000000000000000000000000",
      "type": "0x2",
      "transactionHash": "0x4c123af60ceb43b632658135beb35621390ce7846089d4aba973dad56c318b6c",
      "transactionIndex": "0x1e",
      "blockHash": "0x2e0b73659af289d06a7e7487f41fafe9cc7f18883020da5a0ee261b5586d8508",
      "blockNumber": "0x4e0596b",
      "gasUsed": "0x2f2a5",
      "effectiveGasPrice": "0x116870b2",
      "from": "0x19bd49ae6e4732c91d541f9bd486dc75e3888971",
      "to": "0x62402b65bfb4fd022285a6fc2f26d8caeec3d055",
      "contractAddress": null
    },
    {
      "status": "0x1",
      "cumulativeGasUsed": "0x4ef393",
      "logs": [
        {
          "address": "0x62402b65bfb4fd022285a6fc2f26d8caeec3d055",
          "topics": [
            "0x429fa3f2cc8331e73fa6082c4dc1b89b5be0a13383f325d93cb26d83a47ea298",
            "0x589332b82a92616b9aad3a60c38a8e3167a7ab159521ff0084f5580a39f65776"
          ],
          "data": "0x00000000000000000000000000000000000000000000000000000000000000400000000000000000000000000000000000000000000000000000000069ccba2a0000000000000000000000000000000000000000000000000000000000000005302e312e30000000000000000000000000000000000000000000000000000000",
          "blockHash": "0x2e0b73659af289d06a7e7487f41fafe9cc7f18883020da5a0ee261b5586d8508",
          "blockNumber": "0x4e0596b",
          "transactionHash": "0x35c97b82be4ae1d7cc23fcdb97a071783b76928a6407e9df58a08fdde26f9c11",
          "transactionIndex": "0x1f",
          "logIndex": "0x38",
          "removed": false
        }
      ],
      "logsBloom": "0x00000000000000000000000000000000000000000000000000000000000000000000000000000000000000000000000000000000000000000000000000000000000000000020000000000000400000000000000000000008000000000000000000000004000000000000000000000000000000000000000000000000000000000002000000000000000000000000000000000000000000000000000000000000000000000000001000000000000000000000000000000000000000000000000000000000000000000000000000000000000000000080000000000000000000000000000000000000000800000000040000000000000000000000000000000000",
      "type": "0x2",
      "transactionHash": "0x35c97b82be4ae1d7cc23fcdb97a071783b76928a6407e9df58a08fdde26f9c11",
      "transactionIndex": "0x1f",
      "blockHash": "0x2e0b73659af289d06a7e7487f41fafe9cc7f18883020da5a0ee261b5586d8508",
      "blockNumber": "0x4e0596b",
      "gasUsed": "0x2f2e1",
      "effectiveGasPrice": "0x116870b2",
      "from": "0x19bd49ae6e4732c91d541f9bd486dc75e3888971",
      "to": "0x62402b65bfb4fd022285a6fc2f26d8caeec3d055",
      "contractAddress": null
    },
    {
      "status": "0x1",
      "cumulativeGasUsed": "0x51e6a4",
      "logs": [
        {
          "address": "0x62402b65bfb4fd022285a6fc2f26d8caeec3d055",
          "topics": [
            "0x429fa3f2cc8331e73fa6082c4dc1b89b5be0a13383f325d93cb26d83a47ea298",
            "0xae5dd132b37c065cfb0d754e8d4402c44359fd18c817b808e7d111f4187464ab"
          ],
          "data": "0x00000000000000000000000000000000000000000000000000000000000000400000000000000000000000000000000000000000000000000000000069ccba2a0000000000000000000000000000000000000000000000000000000000000005302e312e30000000000000000000000000000000000000000000000000000000",
          "blockHash": "0x2e0b73659af289d06a7e7487f41fafe9cc7f18883020da5a0ee261b5586d8508",
          "blockNumber": "0x4e0596b",
          "transactionHash": "0x18207ab32aa3995cff0fda79749a6aee7969260d1df54b1f913384f455c80beb",
          "transactionIndex": "0x20",
          "logIndex": "0x39",
          "removed": false
        }
      ],
      "logsBloom": "0x00000000040040000000000000000000000000000000000000000000000000000000000000000000000000000000000000000000000000000000000000000000000000000000000000000000400000000000000000000000000000000000000000000004000000000000000000000000000000000000000000000000000000000000000000000000000000000000000000000040000000000000000000000000000000000000001000000000000000000000000000000000000000000000000000000000000000000000000000000000000000000080000000000000000000000000000000000000000800000000040000000000000000000000000000000000",
      "type": "0x2",
      "transactionHash": "0x18207ab32aa3995cff0fda79749a6aee7969260d1df54b1f913384f455c80beb",
      "transactionIndex": "0x20",
      "blockHash": "0x2e0b73659af289d06a7e7487f41fafe9cc7f18883020da5a0ee261b5586d8508",
      "blockNumber": "0x4e0596b",
      "gasUsed": "0x2f311",
      "effectiveGasPrice": "0x116870b2",
      "from": "0x19bd49ae6e4732c91d541f9bd486dc75e3888971",
      "to": "0x62402b65bfb4fd022285a6fc2f26d8caeec3d055",
      "contractAddress": null
    },
    {
      "status": "0x1",
      "cumulativeGasUsed": "0x57cc66",
      "logs": [
        {
          "address": "0x62402b65bfb4fd022285a6fc2f26d8caeec3d055",
          "topics": [
            "0x429fa3f2cc8331e73fa6082c4dc1b89b5be0a13383f325d93cb26d83a47ea298",
            "0xef2b59eda577eacecf015647c5ef49c23cfc5cabf07b015f12dbd496cb79ba49"
          ],
          "data": "0x00000000000000000000000000000000000000000000000000000000000000400000000000000000000000000000000000000000000000000000000069ccba2a0000000000000000000000000000000000000000000000000000000000000005302e312e30000000000000000000000000000000000000000000000000000000",
          "blockHash": "0x2e0b73659af289d06a7e7487f41fafe9cc7f18883020da5a0ee261b5586d8508",
          "blockNumber": "0x4e0596b",
          "transactionHash": "0xb59d9e63950a8283a5f88f32c7dd68f6acac617c192e8439690b7a1ad5cbe85d",
          "transactionIndex": "0x22",
          "logIndex": "0x3b",
          "removed": false
        }
      ],
      "logsBloom": "0x00000000000000000000000000000000000000000000000000000000000000000000000000000000000000000000000000000000000000000000000000000000000000000000000000000000400000000000000000000000000000000000000000000004000000000000000000000000000000000000000000000000000000000000000000000000000000000800000000000000000000000000000000000000000000000000001000000000000000000000000000000000000000000000000000000000000000000000000000000000000000000080000000000000000000000000000000000000000800000000040000002000000000000000001000000000",
      "type": "0x2",
      "transactionHash": "0xb59d9e63950a8283a5f88f32c7dd68f6acac617c192e8439690b7a1ad5cbe85d",
      "transactionIndex": "0x22",
      "blockHash": "0x2e0b73659af289d06a7e7487f41fafe9cc7f18883020da5a0ee261b5586d8508",
      "blockNumber": "0x4e0596b",
      "gasUsed": "0x2f3a1",
      "effectiveGasPrice": "0x116870b2",
      "from": "0x19bd49ae6e4732c91d541f9bd486dc75e3888971",
      "to": "0x62402b65bfb4fd022285a6fc2f26d8caeec3d055",
      "contractAddress": null
    },
    {
      "status": "0x1",
      "cumulativeGasUsed": "0x5abf23",
      "logs": [
        {
          "address": "0x62402b65bfb4fd022285a6fc2f26d8caeec3d055",
          "topics": [
            "0x429fa3f2cc8331e73fa6082c4dc1b89b5be0a13383f325d93cb26d83a47ea298",
            "0x96724e880688e064ea399e6f428c8885451ba62ba691b7fd524ae64b0cf916f8"
          ],
          "data": "0x00000000000000000000000000000000000000000000000000000000000000400000000000000000000000000000000000000000000000000000000069ccba2a0000000000000000000000000000000000000000000000000000000000000005302e312e30000000000000000000000000000000000000000000000000000000",
          "blockHash": "0x2e0b73659af289d06a7e7487f41fafe9cc7f18883020da5a0ee261b5586d8508",
          "blockNumber": "0x4e0596b",
          "transactionHash": "0x8e62386d64cef105833d5fbefef054534ad84f910b721d8b6f5c764f5d3301be",
          "transactionIndex": "0x23",
          "logIndex": "0x3c",
          "removed": false
        }
      ],
      "logsBloom": "0x00000000000000000000000000000000002000000000000000000000000000000000000000000000000000000000000000000000000000000000000000000000000000000000000000000000400000000000000000000000000000000000000000000004000000000000000000000000000000000000000000000000000000000000000000000000000000000000000000000000000000000000000000000000000000000000001000000000000000000000000000000000000000000000000000000000000000000001000000000000000000000180000000000000000000000000000000000000000800000000040000000000000000000000000000000000",
      "type": "0x2",
      "transactionHash": "0x8e62386d64cef105833d5fbefef054534ad84f910b721d8b6f5c764f5d3301be",
      "transactionIndex": "0x23",
      "blockHash": "0x2e0b73659af289d06a7e7487f41fafe9cc7f18883020da5a0ee261b5586d8508",
      "blockNumber": "0x4e0596b",
      "gasUsed": "0x2f2bd",
      "effectiveGasPrice": "0x116870b2",
      "from": "0x19bd49ae6e4732c91d541f9bd486dc75e3888971",
      "to": "0x62402b65bfb4fd022285a6fc2f26d8caeec3d055",
      "contractAddress": null
    },
    {
      "status": "0x1",
      "cumulativeGasUsed": "0x60a425",
      "logs": [
        {
          "address": "0x62402b65bfb4fd022285a6fc2f26d8caeec3d055",
          "topics": [
            "0x429fa3f2cc8331e73fa6082c4dc1b89b5be0a13383f325d93cb26d83a47ea298",
            "0x2b556d406a05655564d3148a21eb8b06a69ca0beb352b3089e523f9093128aa5"
          ],
          "data": "0x00000000000000000000000000000000000000000000000000000000000000400000000000000000000000000000000000000000000000000000000069ccba2a0000000000000000000000000000000000000000000000000000000000000005302e312e30000000000000000000000000000000000000000000000000000000",
          "blockHash": "0x2e0b73659af289d06a7e7487f41fafe9cc7f18883020da5a0ee261b5586d8508",
          "blockNumber": "0x4e0596b",
          "transactionHash": "0x7474b92f2bab7abb7459767ad9cbe230f40d5c9bbe25ff911bd75e75b4b24c8b",
          "transactionIndex": "0x25",
          "logIndex": "0x3e",
          "removed": false
        }
      ],
      "logsBloom": "0x00000000000000000000000000000000000000000000000000000000000000000000000000000000000000000000000000000000000000000000000000000000000000000000000000000000400000000000000000000000000000000000000000000004000000000000000000000000000000000000000000000000000000000000000000000000000000000000000000000000000000000000000000000000000000000000001000000000008000000000000000000000000000000000002004000000000000000000000000000000000000000080000000000000000000000000000000000000000800000000040000000000000000000000000000000000",
      "type": "0x2",
      "transactionHash": "0x7474b92f2bab7abb7459767ad9cbe230f40d5c9bbe25ff911bd75e75b4b24c8b",
      "transactionIndex": "0x25",
      "blockHash": "0x2e0b73659af289d06a7e7487f41fafe9cc7f18883020da5a0ee261b5586d8508",
      "blockNumber": "0x4e0596b",
      "gasUsed": "0x2f281",
      "effectiveGasPrice": "0x116870b2",
      "from": "0x19bd49ae6e4732c91d541f9bd486dc75e3888971",
      "to": "0x62402b65bfb4fd022285a6fc2f26d8caeec3d055",
      "contractAddress": null
    }
  ],
  "libraries": [],
  "pending": [],
  "returns": {},
  "timestamp": 1775024699879,
  "chain": 43114,
  "commit": "5f3ba3d"
}