{
  "transactions": [
    {
      "hash": "0x00058c95facc5a58392df95ff8bc7a6f01ec4825028965d991001e3529006cfe",
      "transactionType": "CALL",
      "contractName": "MCPRegistry",
      "contractAddress": "0x62402b65bfb4fd022285a6fc2f26d8caeec3d055",
      "function": "registerTool(string,string,string)",
      "arguments": [
        "getBalance",
        "Get the native token balance of an address on a specific chain",
        "0.1.0"
      ],
      "transaction": {
        "from": "0x19bd49ae6e4732c91d541f9bd486dc75e3888971",
        "to": "0x62402b65bfb4fd022285a6fc2f26d8caeec3d055",
        "gas": "0x46f95",
        "value": "0x0",
        "input": "0x9e01510c000000000000000000000000000000000000000000000000000000000000006000000000000000000000000000000000000000000000000000000000000000a00000000000000000000000000000000000000000000000000000000000000100000000000000000000000000000000000000000000000000000000000000000a67657442616c616e636500000000000000000000000000000000000000000000000000000000000000000000000000000000000000000000000000000000003e47657420746865206e617469766520746f6b656e2062616c616e6365206f6620616e2061646472657373206f6e206120737065636966696320636861696e00000000000000000000000000000000000000000000000000000000000000000005302e312e30000000000000000000000000000000000000000000000000000000",
        "nonce": "0x4",
        "chainId": "0xa"
      },
      "additionalContracts": [],
      "isFixedGasLimit": false
    },
    {
      "hash": "0x42e558cd4c1973703efd1e78690bb92bbb5d61c86e3e7c65c842629227128b53",
      "transactionType": "CALL",
      "contractName": "MCPRegistry",
      "contractAddress": "0x62402b65bfb4fd022285a6fc2f26d8caeec3d055",
      "function": "registerTool(string,string,string)",
      "arguments": [
        "getTokenBalance",
        "Get ERC20 token balance for an address on a specific chain",
        "0.1.0"
      ],
      "transaction": {
        "from": "0x19bd49ae6e4732c91d541f9bd486dc75e3888971",
        "to": "0x62402b65bfb4fd022285a6fc2f26d8caeec3d055",
        "gas": "0x41363",
        "value": "0x0",
        "input": "0x9e01510c000000000000000000000000000000000000000000000000000000000000006000000000000000000000000000000000000000000000000000000000000000a00000000000000000000000000000000000000000000000000000000000000100000000000000000000000000000000000000000000000000000000000000000f676574546f6b656e42616c616e63650000000000000000000000000000000000000000000000000000000000000000000000000000000000000000000000003a47657420455243323020746f6b656e2062616c616e636520666f7220616e2061646472657373206f6e206120737065636966696320636861696e0000000000000000000000000000000000000000000000000000000000000000000000000005302e312e30000000000000000000000000000000000000000000000000000000",
        "nonce": "0x5",
        "chainId": "0xa"
      },
      "additionalContracts": [],
      "isFixedGasLimit": false
    },
    {
      "hash": "0x5c1319606e6a58a370ad132b61050d4cbc7170fc85c38b54ec0b68cf14bc4efc",
      "transactionType": "CALL",
      "contractName": "MCPRegistry",
      "contractAddress": "0x62402b65bfb4fd022285a6fc2f26d8caeec3d055",
      "function": "registerTool(string,string,string)",
      "arguments": [
        "getMultiChainBalance",
        "Get native balance across all 4 chains in parallel",
        "0.1.0"
      ],
      "transaction": {
        "from": "0x19bd49ae6e4732c91d541f9bd486dc75e3888971",
        "to": "0x62402b65bfb4fd022285a6fc2f26d8caeec3d055",
        "gas": "0x4508e",
        "value": "0x0",
        "input": "0x9e01510c000000000000000000000000000000000000000000000000000000000000006000000000000000000000000000000000000000000000000000000000000000a0000000000000000000000000000000000000000000000000000000000000010000000000000000000000000000000000000000000000000000000000000000146765744d756c7469436861696e42616c616e63650000000000000000000000000000000000000000000000000000000000000000000000000000000000000032476574206e61746976652062616c616e6365206163726f737320616c6c203420636861696e7320696e20706172616c6c656c00000000000000000000000000000000000000000000000000000000000000000000000000000000000000000005302e312e30000000000000000000000000000000000000000000000000000000",
        "nonce": "0x6",
        "chainId": "0xa"
      },
      "additionalContracts": [],
      "isFixedGasLimit": false
    },
    {
      "hash": "0xaaca74420204cbacfbef0915136a76039c1d483b63bd11fb5a55bfdcdfaa8ada",
      "transactionType": "CALL",
      "contractName": "MCPRegistry",
      "contractAddress": "0x62402b65bfb4fd022285a6fc2f26d8caeec3d055",
      "function": "registerTool(string,string,string)",
      "arguments": [
        "getBlock",
        "Get block details by hash on a specific chain",
        "0.1.0"
      ],
      "transaction": {
        "from": "0x19bd49ae6e4732c91d541f9bd486dc75e3888971",
        "to": "0x62402b65bfb4fd022285a6fc2f26d8caeec3d055",
        "gas": "0x41217",
        "value": "0x0",
        "input": "0x9e01510c000000000000000000000000000000000000000000000000000000000000006000000000000000000000000000000000000000000000000000000000000000a000000000000000000000000000000000000000000000000000000000000001000000000000000000000000000000000000000000000000000000000000000008676574426c6f636b000000000000000000000000000000000000000000000000000000000000000000000000000000000000000000000000000000000000002d47657420626c6f636b2064657461696c732062792068617368206f6e206120737065636966696320636861696e000000000000000000000000000000000000000000000000000000000000000000000000000000000000000000000000000005302e312e30000000000000000000000000000000000000000000000000000000",
        "nonce": "0x7",
        "chainId": "0xa"
      },
      "additionalContracts": [],
      "isFixedGasLimit": false
    },
    {
      "hash": "0x8417cc4a2bb0e97a14eda3e0a944797419c97935359bd808d64c9709d266b970",
      "transactionType": "CALL",
      "contractName": "MCPRegistry",
      "contractAddress": "0x62402b65bfb4fd022285a6fc2f26d8caeec3d055",
      "function": "registerTool(string,string,string)",
      "arguments": [
        "getBlockByNumber",
        "Get block details by number or latest",
        "0.1.0"
      ],
      "transaction": {
        "from": "0x19bd49ae6e4732c91d541f9bd486dc75e3888971",
        "to": "0x62402b65bfb4fd022285a6fc2f26d8caeec3d055",
        "gas": "0x41217",
        "value": "0x0",
        "input": "0x9e01510c000000000000000000000000000000000000000000000000000000000000006000000000000000000000000000000000000000000000000000000000000000a000000000000000000000000000000000000000000000000000000000000001000000000000000000000000000000000000000000000000000000000000000010676574426c6f636b42794e756d62657200000000000000000000000000000000000000000000000000000000000000000000000000000000000000000000002547657420626c6f636b2064657461696c73206279206e756d626572206f72206c61746573740000000000000000000000000000000000000000000000000000000000000000000000000000000000000000000000000000000000000000000005302e312e30000000000000000000000000000000000000000000000000000000",
        "nonce": "0x8",
        "chainId": "0xa"
      },
      "additionalContracts": [],
      "isFixedGasLimit": false
    },
    {
      "hash": "0xd7ae052ef00f48b4016038bbd8da8652feeca78dfece237618746959cd423b92",
      "transactionType": "CALL",
      "contractName": "MCPRegistry",
      "contractAddress": "0x62402b65bfb4fd022285a6fc2f26d8caeec3d055",
      "function": "registerTool(string,string,string)",
      "arguments": [
        "getLatestBlock",
        "Get the latest block number and timestamp for a chain",
        "0.1.0"
      ],
      "transaction": {
        "from": "0x19bd49ae6e4732c91d541f9bd486dc75e3888971",
        "to": "0x62402b65bfb4fd022285a6fc2f26d8caeec3d055",
        "gas": "0x412ff",
        "value": "0x0",
        "input": "0x9e01510c000000000000000000000000000000000000000000000000000000000000006000000000000000000000000000000000000000000000000000000000000000a00000000000000000000000000000000000000000000000000000000000000100000000000000000000000000000000000000000000000000000000000000000e6765744c6174657374426c6f636b000000000000000000000000000000000000000000000000000000000000000000000000000000000000000000000000003547657420746865206c617465737420626c6f636b206e756d62657220616e642074696d657374616d7020666f72206120636861696e00000000000000000000000000000000000000000000000000000000000000000000000000000000000005302e312e30000000000000000000000000000000000000000000000000000000",
        "nonce": "0x9",
        "chainId": "0xa"
      },
      "additionalContracts": [],
      "isFixedGasLimit": false
    },
    {
      "hash": "0xafcdbc315c609a504307d310d4792c5d261fc7c8fd145403ac3b71e101258274",
      "transactionType": "CALL",
      "contractName": "MCPRegistry",
      "contractAddress": "0x62402b65bfb4fd022285a6fc2f26d8caeec3d055",
      "function": "registerTool(string,string,string)",
      "arguments": [
        "getTransaction",
        "Get transaction details by hash",
        "0.1.0"
      ],
      "transaction": {
        "from": "0x19bd49ae6e4732c91d541f9bd486dc75e3888971",
        "to": "0x62402b65bfb4fd022285a6fc2f26d8caeec3d055",
        "gas": "0x3215b",
        "value": "0x0",
        "input": "0x9e01510c000000000000000000000000000000000000000000000000000000000000006000000000000000000000000000000000000000000000000000000000000000a000000000000000000000000000000000000000000000000000000000000000e0000000000000000000000000000000000000000000000000000000000000000e6765745472616e73616374696f6e000000000000000000000000000000000000000000000000000000000000000000000000000000000000000000000000001f476574207472616e73616374696f6e2064657461696c732062792068617368000000000000000000000000000000000000000000000000000000000000000005302e312e30000000000000000000000000000000000000000000000000000000",
        "nonce": "0xa",
        "chainId": "0xa"
      },
      "additionalContracts": [],
      "isFixedGasLimit": false
    },
    {
      "hash": "0x20223870b9be2c20129c18a81018b8c248263319adfdbbfd60e0e31c572a9aa5",
      "transactionType": "CALL",
      "contractName": "MCPRegistry",
      "contractAddress": "0x62402b65bfb4fd022285a6fc2f26d8caeec3d055",
      "function": "registerTool(string,string,string)",
      "arguments": [
        "getTransactionReceipt",
        "Get transaction receipt with status, gasUsed, and logs",
        "0.1.0"
      ],
      "transaction": {
        "from": "0x19bd49ae6e4732c91d541f9bd486dc75e3888971",
        "to": "0x62402b65bfb4fd022285a6fc2f26d8caeec3d055",
        "gas": "0x41383",
        "value": "0x0",
        "input": "0x9e01510c000000000000000000000000000000000000000000000000000000000000006000000000000000000000000000000000000000000000000000000000000000a0000000000000000000000000000000000000000000000000000000000000010000000000000000000000000000000000000000000000000000000000000000156765745472616e73616374696f6e5265636569707400000000000000000000000000000000000000000000000000000000000000000000000000000000000036476574207472616e73616374696f6e20726563656970742077697468207374617475732c20676173557365642c20616e64206c6f6773000000000000000000000000000000000000000000000000000000000000000000000000000000000005302e312e30000000000000000000000000000000000000000000000000000000",
        "nonce": "0xb",
        "chainId": "0xa"
      },
      "additionalContracts": [],
      "isFixedGasLimit": false
    },
    {
      "hash": "0x512a5388977d631f5e894f2c966eef3dbaf50b0c4da42ab86a6d6379a129f35a",
      "transactionType": "CALL",
      "contractName": "MCPRegistry",
      "contractAddress": "0x62402b65bfb4fd022285a6fc2f26d8caeec3d055",
      "function": "registerTool(string,string,string)",
      "arguments": [
        "decodeTransaction",
        "Decode transaction function call and parameters",
        "0.1.0"
      ],
      "transaction": {
        "from": "0x19bd49ae6e4732c91d541f9bd486dc75e3888971",
        "to": "0x62402b65bfb4fd022285a6fc2f26d8caeec3d055",
        "gas": "0x45025",
        "value": "0x0",
        "input": "0x9e01510c000000000000000000000000000000000000000000000000000000000000006000000000000000000000000000000000000000000000000000000000000000a0000000000000000000000000000000000000000000000000000000000000010000000000000000000000000000000000000000000000000000000000000000116465636f64655472616e73616374696f6e000000000000000000000000000000000000000000000000000000000000000000000000000000000000000000002f4465636f6465207472616e73616374696f6e2066756e6374696f6e2063616c6c20616e6420706172616d657465727300000000000000000000000000000000000000000000000000000000000000000000000000000000000000000000000005302e312e30000000000000000000000000000000000000000000000000000000",
        "nonce": "0xc",
        "chainId": "0xa"
      },
      "additionalContracts": [],
      "isFixedGasLimit": false
    },
    {
      "hash": "0x4c9398111387334aeea3772e53a24a763c7dc96e90f79eb591ebe476f92760b8",
      "transactionType": "CALL",
      "contractName": "MCPRegistry",
      "contractAddress": "0x62402b65bfb4fd022285a6fc2f26d8caeec3d055",
      "function": "registerTool(string,string,string)",
      "arguments": [
        "readContract",
        "Call a read-only contract function and return decoded result",
        "0.1.0"
      ],
      "transaction": {
        "from": "0x19bd49ae6e4732c91d541f9bd486dc75e3888971",
        "to": "0x62402b65bfb4fd022285a6fc2f26d8caeec3d055",
        "gas": "0x450b2",
        "value": "0x0",
        "input": "0x9e01510c000000000000000000000000000000000000000000000000000000000000006000000000000000000000000000000000000000000000000000000000000000a00000000000000000000000000000000000000000000000000000000000000100000000000000000000000000000000000000000000000000000000000000000c72656164436f6e74726163740000000000000000000000000000000000000000000000000000000000000000000000000000000000000000000000000000003c43616c6c206120726561642d6f6e6c7920636f6e74726163742066756e6374696f6e20616e642072657475726e206465636f64656420726573756c74000000000000000000000000000000000000000000000000000000000000000000000005302e312e30000000000000000000000000000000000000000000000000000000",
        "nonce": "0xd",
        "chainId": "0xa"
      },
      "additionalContracts": [],
      "isFixedGasLimit": false
    },
    {
      "hash": "0xc0993f9faa597c27817a4a1c46ab180dbf1323308007de94052c3a6f31735474",
      "transactionType": "CALL",
      "contractName": "MCPRegistry",
      "contractAddress": "0x62402b65bfb4fd022285a6fc2f26d8caeec3d055",
      "function": "registerTool(string,string,string)",
      "arguments": [
        "getContractCode",
        "Check if an address has contract code and get bytecode metadata",
        "0.1.0"
      ],
      "transaction": {
        "from": "0x19bd49ae6e4732c91d541f9bd486dc75e3888971",
        "to": "0x62402b65bfb4fd022285a6fc2f26d8caeec3d055",
        "gas": "0x4511b",
        "value": "0x0",
        "input": "0x9e01510c000000000000000000000000000000000000000000000000000000000000006000000000000000000000000000000000000000000000000000000000000000a00000000000000000000000000000000000000000000000000000000000000100000000000000000000000000000000000000000000000000000000000000000f676574436f6e7472616374436f64650000000000000000000000000000000000000000000000000000000000000000000000000000000000000000000000003f436865636b20696620616e20616464726573732068617320636f6e747261637420636f646520616e64206765742062797465636f6465206d65746164617461000000000000000000000000000000000000000000000000000000000000000005302e312e30000000000000000000000000000000000000000000000000000000",
        "nonce": "0xe",
        "chainId": "0xa"
      },
      "additionalContracts": [],
      "isFixedGasLimit": false
    },
    {
      "hash": "0x956b8011b1b22b727ff1d65bd979be3df58fb96b4c516ccf63617b7d2b6bf2be",
      "transactionType": "CALL",
      "contractName": "MCPRegistry",
      "contractAddress": "0x62402b65bfb4fd022285a6fc2f26d8caeec3d055",
      "function": "registerTool(string,string,string)",
      "arguments": [
        "getStorageAt",
        "Read raw storage slot value at an address",
        "0.1.0"
      ],
      "transaction": {
        "from": "0x19bd49ae6e4732c91d541f9bd486dc75e3888971",
        "to": "0x62402b65bfb4fd022285a6fc2f26d8caeec3d055",
        "gas": "0x41217",
        "value": "0x0",
        "input": "0x9e01510c000000000000000000000000000000000000000000000000000000000000006000000000000000000000000000000000000000000000000000000000000000a00000000000000000000000000000000000000000000000000000000000000100000000000000000000000000000000000000000000000000000000000000000c67657453746f7261676541740000000000000000000000000000000000000000000000000000000000000000000000000000000000000000000000000000002952656164207261772073746f7261676520736c6f742076616c756520617420616e206164647265737300000000000000000000000000000000000000000000000000000000000000000000000000000000000000000000000000000000000005302e312e30000000000000000000000000000000000000000000000000000000",
        "nonce": "0xf",
        "chainId": "0xa"
      },
      "additionalContracts": [],
      "isFixedGasLimit": false
    },
    {
      "hash": "0x97ec6c6332780b6ada27af89e0ff3f45bbd28fb923075ef626da7d53ebdc80a8",
      "transactionType": "CALL",
      "contractName": "MCPRegistry",
      "contractAddress": "0x62402b65bfb4fd022285a6fc2f26d8caeec3d055",
      "function": "registerTool(string,string,string)",
      "arguments": [
        "getERC20Info",
        "Get ERC20 token metadata via Multicall3 batch",
        "0.1.0"
      ],
      "transaction": {
        "from": "0x19bd49ae6e4732c91d541f9bd486dc75e3888971",
        "to": "0x62402b65bfb4fd022285a6fc2f26d8caeec3d055",
        "gas": "0x41259",
        "value": "0x0",
        "input": "0x9e01510c000000000000000000000000000000000000000000000000000000000000006000000000000000000000000000000000000000000000000000000000000000a00000000000000000000000000000000000000000000000000000000000000100000000000000000000000000000000000000000000000000000000000000000c6765744552433230496e666f0000000000000000000000000000000000000000000000000000000000000000000000000000000000000000000000000000002d47657420455243323020746f6b656e206d6574616461746120766961204d756c746963616c6c33206261746368000000000000000000000000000000000000000000000000000000000000000000000000000000000000000000000000000005302e312e30000000000000000000000000000000000000000000000000000000",
        "nonce": "0x10",
        "chainId": "0xa"
      },
      "additionalContracts": [],
      "isFixedGasLimit": false
    },
    {
      "hash": "0x877ff494e62bfa697705c65889439a780abb100f362682d4ba3e3d682e90b238",
      "transactionType": "CALL",
      "contractName": "MCPRegistry",
      "contractAddress": "0x62402b65bfb4fd022285a6fc2f26d8caeec3d055",
      "function": "registerTool(string,string,string)",
      "arguments": [
        "getTokenAllowance",
        "Get ERC20 allowance for an owner/spender pair",
        "0.1.0"
      ],
      "transaction": {
        "from": "0x19bd49ae6e4732c91d541f9bd486dc75e3888971",
        "to": "0x62402b65bfb4fd022285a6fc2f26d8caeec3d055",
        "gas": "0x45002",
        "value": "0x0",
        "input": "0x9e01510c000000000000000000000000000000000000000000000000000000000000006000000000000000000000000000000000000000000000000000000000000000a000000000000000000000000000000000000000000000000000000000000001000000000000000000000000000000000000000000000000000000000000000011676574546f6b656e416c6c6f77616e6365000000000000000000000000000000000000000000000000000000000000000000000000000000000000000000002d47657420455243323020616c6c6f77616e636520666f7220616e206f776e65722f7370656e6465722070616972000000000000000000000000000000000000000000000000000000000000000000000000000000000000000000000000000005302e312e30000000000000000000000000000000000000000000000000000000",
        "nonce": "0x11",
        "chainId": "0xa"
      },
      "additionalContracts": [],
      "isFixedGasLimit": false
    },
    {
      "hash": "0x42037b44c5e6030d08e29dd9944cc301a4320cf47671ea60794f2babb720cfc3",
      "transactionType": "CALL",
      "contractName": "MCPRegistry",
      "contractAddress": "0x62402b65bfb4fd022285a6fc2f26d8caeec3d055",
      "function": "registerTool(string,string,string)",
      "arguments": [
        "getGasPrice",
        "Get current gas price and EIP-1559 fee data for a chain",
        "0.1.0"
      ],
      "transaction": {
        "from": "0x19bd49ae6e4732c91d541f9bd486dc75e3888971",
        "to": "0x62402b65bfb4fd022285a6fc2f26d8caeec3d055",
        "gas": "0x45048",
        "value": "0x0",
        "input": "0x9e01510c000000000000000000000000000000000000000000000000000000000000006000000000000000000000000000000000000000000000000000000000000000a00000000000000000000000000000000000000000000000000000000000000100000000000000000000000000000000000000000000000000000000000000000b676574476173507269636500000000000000000000000000000000000000000000000000000000000000000000000000000000000000000000000000000000374765742063757272656e742067617320707269636520616e64204549502d3135353920666565206461746120666f72206120636861696e0000000000000000000000000000000000000000000000000000000000000000000000000000000005302e312e30000000000000000000000000000000000000000000000000000000",
        "nonce": "0x12",
        "chainId": "0xa"
      },
      "additionalContracts": [],
      "isFixedGasLimit": false
    },
    {
      "hash": "0x29cd4846b17ff80737f643a517d39f81dad06b8c1fa51868662a31f6db6db2b0",
      "transactionType": "CALL",
      "contractName": "MCPRegistry",
      "contractAddress": "0x62402b65bfb4fd022285a6fc2f26d8caeec3d055",
      "function": "registerTool(string,string,string)",
      "arguments": [
        "estimateGas",
        "Estimate gas cost for a transaction",
        "0.1.0"
      ],
      "transaction": {
        "from": "0x19bd49ae6e4732c91d541f9bd486dc75e3888971",
        "to": "0x62402b65bfb4fd022285a6fc2f26d8caeec3d055",
        "gas": "0x44ee9",
        "value": "0x0",
        "input": "0x9e01510c000000000000000000000000000000000000000000000000000000000000006000000000000000000000000000000000000000000000000000000000000000a00000000000000000000000000000000000000000000000000000000000000100000000000000000000000000000000000000000000000000000000000000000b657374696d6174654761730000000000000000000000000000000000000000000000000000000000000000000000000000000000000000000000000000000023457374696d6174652067617320636f737420666f722061207472616e73616374696f6e00000000000000000000000000000000000000000000000000000000000000000000000000000000000000000000000000000000000000000000000005302e312e30000000000000000000000000000000000000000000000000000000",
        "nonce": "0x13",
        "chainId": "0xa"
      },
      "additionalContracts": [],
      "isFixedGasLimit": false
    },
    {
      "hash": "0x86f27a8b1bd6abf55ba99d68159260efcb105993e6e114b028d7102fd80bcdc5",
      "transactionType": "CALL",
      "contractName": "MCPRegistry",
      "contractAddress": "0x62402b65bfb4fd022285a6fc2f26d8caeec3d055",
      "function": "registerTool(string,string,string)",
      "arguments": [
        "compareGasAcrossChains",
        "Compare current gas prices across all 4 supported chains",
        "0.1.0"
      ],
      "transaction": {
        "from": "0x19bd49ae6e4732c91d541f9bd486dc75e3888971",
        "to": "0x62402b65bfb4fd022285a6fc2f26d8caeec3d055",
        "gas": "0x4511b",
        "value": "0x0",
        "input": "0x9e01510c000000000000000000000000000000000000000000000000000000000000006000000000000000000000000000000000000000000000000000000000000000a000000000000000000000000000000000000000000000000000000000000001000000000000000000000000000000000000000000000000000000000000000016636f6d706172654761734163726f7373436861696e73000000000000000000000000000000000000000000000000000000000000000000000000000000000038436f6d706172652063757272656e742067617320707269636573206163726f737320616c6c203420737570706f7274656420636861696e7300000000000000000000000000000000000000000000000000000000000000000000000000000005302e312e30000000000000000000000000000000000000000000000000000000",
        "nonce": "0x14",
        "chainId": "0xa"
      },
      "additionalContracts": [],
      "isFixedGasLimit": false
    },
    {
      "hash": "0x3b42287c612217c20be5432c349d21dce3268ff1352c545a0a905fb911e7e5f3",
      "transactionType": "CALL",
      "contractName": "MCPRegistry",
      "contractAddress": "0x62402b65bfb4fd022285a6fc2f26d8caeec3d055",
      "function": "registerTool(string,string,string)",
      "arguments": [
        "resolveENS",
        "Resolve an ENS name to an address via Ethereum L1",
        "0.1.0"
      ],
      "transaction": {
        "from": "0x19bd49ae6e4732c91d541f9bd486dc75e3888971",
        "to": "0x62402b65bfb4fd022285a6fc2f26d8caeec3d055",
        "gas": "0x4127a",
        "value": "0x0",
        "input": "0x9e01510c000000000000000000000000000000000000000000000000000000000000006000000000000000000000000000000000000000000000000000000000000000a00000000000000000000000000000000000000000000000000000000000000100000000000000000000000000000000000000000000000000000000000000000a7265736f6c7665454e530000000000000000000000000000000000000000000000000000000000000000000000000000000000000000000000000000000000315265736f6c766520616e20454e53206e616d6520746f20616e20616464726573732076696120457468657265756d204c310000000000000000000000000000000000000000000000000000000000000000000000000000000000000000000005302e312e30000000000000000000000000000000000000000000000000000000",
        "nonce": "0x15",
        "chainId": "0xa"
      },
      "additionalContracts": [],
      "isFixedGasLimit": false
    },
    {
      "hash": "0xff9849513d960372848836391b02f1450743ac0338025ed40508448596734583",
      "transactionType": "CALL",
      "contractName": "MCPRegistry",
      "contractAddress": "0x62402b65bfb4fd022285a6fc2f26d8caeec3d055",
      "function": "registerTool(string,string,string)",
      "arguments": [
        "lookupAddress",
        "Reverse lookup an address to its ENS name",
        "0.1.0"
      ],
      "transaction": {
        "from": "0x19bd49ae6e4732c91d541f9bd486dc75e3888971",
        "to": "0x62402b65bfb4fd022285a6fc2f26d8caeec3d055",
        "gas": "0x44f76",
        "value": "0x0",
        "input": "0x9e01510c000000000000000000000000000000000000000000000000000000000000006000000000000000000000000000000000000000000000000000000000000000a00000000000000000000000000000000000000000000000000000000000000100000000000000000000000000000000000000000000000000000000000000000d6c6f6f6b75704164647265737300000000000000000000000000000000000000000000000000000000000000000000000000000000000000000000000000002952657665727365206c6f6f6b757020616e206164647265737320746f2069747320454e53206e616d6500000000000000000000000000000000000000000000000000000000000000000000000000000000000000000000000000000000000005302e312e30000000000000000000000000000000000000000000000000000000",
        "nonce": "0x16",
        "chainId": "0xa"
      },
      "additionalContracts": [],
      "isFixedGasLimit": false
    },
    {
      "hash": "0x94d2106c83046b2dfe4d91f0d7ba74b5a7bb494ede11e40fa4a09ed89082f4c7",
      "transactionType": "CALL",
      "contractName": "MCPRegistry",
      "contractAddress": "0x62402b65bfb4fd022285a6fc2f26d8caeec3d055",
      "function": "registerTool(string,string,string)",
      "arguments": [
        "getContractEvents",
        "Get decoded event logs for a contract",
        "0.1.0"
      ],
      "transaction": {
        "from": "0x19bd49ae6e4732c91d541f9bd486dc75e3888971",
        "to": "0x62402b65bfb4fd022285a6fc2f26d8caeec3d055",
        "gas": "0x44f76",
        "value": "0x0",
        "input": "0x9e01510c000000000000000000000000000000000000000000000000000000000000006000000000000000000000000000000000000000000000000000000000000000a000000000000000000000000000000000000000000000000000000000000001000000000000000000000000000000000000000000000000000000000000000011676574436f6e74726163744576656e74730000000000000000000000000000000000000000000000000000000000000000000000000000000000000000000025476574206465636f646564206576656e74206c6f677320666f72206120636f6e74726163740000000000000000000000000000000000000000000000000000000000000000000000000000000000000000000000000000000000000000000005302e312e30000000000000000000000000000000000000000000000000000000",
        "nonce": "0x17",
        "chainId": "0xa"
      },
      "additionalContracts": [],
      "isFixedGasLimit": false
    },
    {
      "hash": "0x7832071c40b51476782975dc5ca3ff31da4120efb768a327c9d45e6db251dd22",
      "transactionType": "CALL",
      "contractName": "MCPRegistry",
      "contractAddress": "0x62402b65bfb4fd022285a6fc2f26d8caeec3d055",
      "function": "registerTool(string,string,string)",
      "arguments": [
        "decodeEventLog",
        "Decode a raw event log using a provided ABI",
        "0.1.0"
      ],
      "transaction": {
        "from": "0x19bd49ae6e4732c91d541f9bd486dc75e3888971",
        "to": "0x62402b65bfb4fd022285a6fc2f26d8caeec3d055",
        "gas": "0x41259",
        "value": "0x0",
        "input": "0x9e01510c000000000000000000000000000000000000000000000000000000000000006000000000000000000000000000000000000000000000000000000000000000a00000000000000000000000000000000000000000000000000000000000000100000000000000000000000000000000000000000000000000000000000000000e6465636f64654576656e744c6f67000000000000000000000000000000000000000000000000000000000000000000000000000000000000000000000000002b4465636f6465206120726177206576656e74206c6f67207573696e6720612070726f7669646564204142490000000000000000000000000000000000000000000000000000000000000000000000000000000000000000000000000000000005302e312e30000000000000000000000000000000000000000000000000000000",
        "nonce": "0x18",
        "chainId": "0xa"
      },
      "additionalContracts": [],
      "isFixedGasLimit": false
    },
    {
      "hash": "0x27bd16d202ce81fb17dcd2067c19a23550ef6dee9eadfffea207df8d78c4f970",
      "transactionType": "CALL",
      "contractName": "MCPRegistry",
      "contractAddress": "0x62402b65bfb4fd022285a6fc2f26d8caeec3d055",
      "function": "registerTool(string,string,string)",
      "arguments": [
        "getChainInfo",
        "Get chain metadata including block height and native symbol",
        "0.1.0"
      ],
      "transaction": {
        "from": "0x19bd49ae6e4732c91d541f9bd486dc75e3888971",
        "to": "0x62402b65bfb4fd022285a6fc2f26d8caeec3d055",
        "gas": "0x41341",
        "value": "0x0",
        "input": "0x9e01510c000000000000000000000000000000000000000000000000000000000000006000000000000000000000000000000000000000000000000000000000000000a00000000000000000000000000000000000000000000000000000000000000100000000000000000000000000000000000000000000000000000000000000000c676574436861696e496e666f0000000000000000000000000000000000000000000000000000000000000000000000000000000000000000000000000000003b47657420636861696e206d6574616461746120696e636c7564696e6720626c6f636b2068656967687420616e64206e61746976652073796d626f6c00000000000000000000000000000000000000000000000000000000000000000000000005302e312e30000000000000000000000000000000000000000000000000000000",
        "nonce": "0x19",
        "chainId": "0xa"
      },
      "additionalContracts": [],
      "isFixedGasLimit": false
    },
    {
      "hash": "0xe2f87fb8fda593fdcfcd8b25abb2c6d8c77a2a8129ff6f7141c69e2406b1ccca",
      "transactionType": "CALL",
      "contractName": "MCPRegistry",
      "contractAddress": "0x62402b65bfb4fd022285a6fc2f26d8caeec3d055",
      "function": "registerTool(string,string,string)",
      "arguments": [
        "isContractDeployed",
        "Check if a contract is deployed across all supported chains",
        "0.1.0"
      ],
      "transaction": {
        "from": "0x19bd49ae6e4732c91d541f9bd486dc75e3888971",
        "to": "0x62402b65bfb4fd022285a6fc2f26d8caeec3d055",
        "gas": "0x413a5",
        "value": "0x0",
        "input": "0x9e01510c000000000000000000000000000000000000000000000000000000000000006000000000000000000000000000000000000000000000000000000000000000a0000000000000000000000000000000000000000000000000000000000000010000000000000000000000000000000000000000000000000000000000000000126973436f6e74726163744465706c6f7965640000000000000000000000000000000000000000000000000000000000000000000000000000000000000000003b436865636b206966206120636f6e7472616374206973206465706c6f796564206163726f737320616c6c20737570706f7274656420636861696e7300000000000000000000000000000000000000000000000000000000000000000000000005302e312e30000000000000000000000000000000000000000000000000000000",
        "nonce": "0x1a",
        "chainId": "0xa"
      },
      "additionalContracts": [],
      "isFixedGasLimit": false
    },
    {
      "hash": "0xbb692fe8bd00d1f3aba29d63070a460c6c791b091fdd11d95b1d09edb4a87c95",
      "transactionType": "CALL",
      "contractName": "MCPRegistry",
      "contractAddress": "0x62402b65bfb4fd022285a6fc2f26d8caeec3d055",
      "function": "registerTool(string,string,string)",
      "arguments": [
        "healthCheck",
        "Test all RPC connections and report status",
        "0.1.0"
      ],
      "transaction": {
        "from": "0x19bd49ae6e4732c91d541f9bd486dc75e3888971",
        "to": "0x62402b65bfb4fd022285a6fc2f26d8caeec3d055",
        "gas": "0x41217",
        "value": "0x0",
        "input": "0x9e01510c000000000000000000000000000000000000000000000000000000000000006000000000000000000000000000000000000000000000000000000000000000a00000000000000000000000000000000000000000000000000000000000000100000000000000000000000000000000000000000000000000000000000000000b6865616c7468436865636b000000000000000000000000000000000000000000000000000000000000000000000000000000000000000000000000000000002a5465737420616c6c2052504320636f6e6e656374696f6e7320616e64207265706f727420737461747573000000000000000000000000000000000000000000000000000000000000000000000000000000000000000000000000000000000005302e312e30000000000000000000000000000000000000000000000000000000",
        "nonce": "0x1b",
        "chainId": "0xa"
      },
      "additionalContracts": [],
      "isFixedGasLimit": false
    },
    {
      "hash": "0xaadf83dab91d45333579c5a5b9586186d3cc7be2bfe2928a0864e8f2982d30e3",
      "transactionType": "CALL",
      "contractName": "MCPRegistry",
      "contractAddress": "0x62402b65bfb4fd022285a6fc2f26d8caeec3d055",
      "function": "registerTool(string,string,string)",
      "arguments": [
        "batchQuery",
        "Execute batch read calls via Multicall3",
        "0.1.0"
      ],
      "transaction": {
        "from": "0x19bd49ae6e4732c91d541f9bd486dc75e3888971",
        "to": "0x62402b65bfb4fd022285a6fc2f26d8caeec3d055",
        "gas": "0x411d5",
        "value": "0x0",
        "input": "0x9e01510c000000000000000000000000000000000000000000000000000000000000006000000000000000000000000000000000000000000000000000000000000000a00000000000000000000000000000000000000000000000000000000000000100000000000000000000000000000000000000000000000000000000000000000a626174636851756572790000000000000000000000000000000000000000000000000000000000000000000000000000000000000000000000000000000000274578656375746520626174636820726561642063616c6c7320766961204d756c746963616c6c33000000000000000000000000000000000000000000000000000000000000000000000000000000000000000000000000000000000000000005302e312e30000000000000000000000000000000000000000000000000000000",
        "nonce": "0x1c",
        "chainId": "0xa"
      },
      "additionalContracts": [],
      "isFixedGasLimit": false
    }
  ],
  "receipts": [],
  "libraries": [],
  "pending": [],
  "returns": {},
  "timestamp": 1775167725446,
  "chain": 10,
  "commit": "3284e9f"
}