{
  "transactions": [
    {
      "hash": "0x27a0581c0c31db613427a429d73a2c1b0d71cefdb176c1a041edc8c8428eb9c0",
      "transactionType": "CALL",
      "contractName": "MCPRegistry",
      "contractAddress": "0x62402b65bfb4fd022285a6fc2f26d8caeec3d055",
      "function": "registerTool(string,string,string)",
      "arguments": [
        "getBalance",
        "Get the native token balance of an address on a specific chain",
        "0.1.0"
      ],
      "transaction": {
        "from": "0x19bd49ae6e4732c91d541f9bd486dc75e3888971",
        "to": "0x62402b65bfb4fd022285a6fc2f26d8caeec3d055",
        "gas": "0x46f95",
        "value": "0x0",
        "input": "0x9e01510c000000000000000000000000000000000000000000000000000000000000006000000000000000000000000000000000000000000000000000000000000000a00000000000000000000000000000000000000000000000000000000000000100000000000000000000000000000000000000000000000000000000000000000a67657442616c616e636500000000000000000000000000000000000000000000000000000000000000000000000000000000000000000000000000000000003e47657420746865206e617469766520746f6b656e2062616c616e6365206f6620616e2061646472657373206f6e206120737065636966696320636861696e00000000000000000000000000000000000000000000000000000000000000000005302e312e30000000000000000000000000000000000000000000000000000000",
        "nonce": "0x4",
        "chainId": "0xa4ec"
      },
      "additionalContracts": [],
      "isFixedGasLimit": false
    },
    {
      "hash": "0x5058d450ef290ef6f5dcdbeb17eba71b33b5703835736b9d824ec2f1d4015440",
      "transactionType": "CALL",
      "contractName": "MCPRegistry",
      "contractAddress": "0x62402b65bfb4fd022285a6fc2f26d8caeec3d055",
      "function": "registerTool(string,string,string)",
      "arguments": [
        "getTokenBalance",
        "Get ERC20 token balance for an address on a specific chain",
        "0.1.0"
      ],
      "transaction": {
        "from": "0x19bd49ae6e4732c91d541f9bd486dc75e3888971",
        "to": "0x62402b65bfb4fd022285a6fc2f26d8caeec3d055",
        "gas": "0x41363",
        "value": "0x0",
        "input": "0x9e01510c000000000000000000000000000000000000000000000000000000000000006000000000000000000000000000000000000000000000000000000000000000a00000000000000000000000000000000000000000000000000000000000000100000000000000000000000000000000000000000000000000000000000000000f676574546f6b656e42616c616e63650000000000000000000000000000000000000000000000000000000000000000000000000000000000000000000000003a47657420455243323020746f6b656e2062616c616e636520666f7220616e2061646472657373206f6e206120737065636966696320636861696e0000000000000000000000000000000000000000000000000000000000000000000000000005302e312e30000000000000000000000000000000000000000000000000000000",
        "nonce": "0x5",
        "chainId": "0xa4ec"
      },
      "additionalContracts": [],
      "isFixedGasLimit": false
    },
    {
      "hash": "0xe007a9b08fa52e83db6e915913d1468edfe0804f73dd6e8b911b151502edd110",
      "transactionType": "CALL",
      "contractName": "MCPRegistry",
      "contractAddress": "0x62402b65bfb4fd022285a6fc2f26d8caeec3d055",
      "function": "registerTool(string,string,string)",
      "arguments": [
        "getMultiChainBalance",
        "Get native balance across all 4 chains in parallel",
        "0.1.0"
      ],
      "transaction": {
        "from": "0x19bd49ae6e4732c91d541f9bd486dc75e3888971",
        "to": "0x62402b65bfb4fd022285a6fc2f26d8caeec3d055",
        "gas": "0x4508e",
        "value": "0x0",
        "input": "0x9e01510c000000000000000000000000000000000000000000000000000000000000006000000000000000000000000000000000000000000000000000000000000000a0000000000000000000000000000000000000000000000000000000000000010000000000000000000000000000000000000000000000000000000000000000146765744d756c7469436861696e42616c616e63650000000000000000000000000000000000000000000000000000000000000000000000000000000000000032476574206e61746976652062616c616e6365206163726f737320616c6c203420636861696e7320696e20706172616c6c656c00000000000000000000000000000000000000000000000000000000000000000000000000000000000000000005302e312e30000000000000000000000000000000000000000000000000000000",
        "nonce": "0x6",
        "chainId": "0xa4ec"
      },
      "additionalContracts": [],
      "isFixedGasLimit": false
    },
    {
      "hash": "0xf8fb4c3fc6b0c2617521249368506594e6c66340e66fbb5d74c0806f8b328d5f",
      "transactionType": "CALL",
      "contractName": "MCPRegistry",
      "contractAddress": "0x62402b65bfb4fd022285a6fc2f26d8caeec3d055",
      "function": "registerTool(string,string,string)",
      "arguments": [
        "getBlock",
        "Get block details by hash on a specific chain",
        "0.1.0"
      ],
      "transaction": {
        "from": "0x19bd49ae6e4732c91d541f9bd486dc75e3888971",
        "to": "0x62402b65bfb4fd022285a6fc2f26d8caeec3d055",
        "gas": "0x41217",
        "value": "0x0",
        "input": "0x9e01510c000000000000000000000000000000000000000000000000000000000000006000000000000000000000000000000000000000000000000000000000000000a000000000000000000000000000000000000000000000000000000000000001000000000000000000000000000000000000000000000000000000000000000008676574426c6f636b000000000000000000000000000000000000000000000000000000000000000000000000000000000000000000000000000000000000002d47657420626c6f636b2064657461696c732062792068617368206f6e206120737065636966696320636861696e000000000000000000000000000000000000000000000000000000000000000000000000000000000000000000000000000005302e312e30000000000000000000000000000000000000000000000000000000",
        "nonce": "0x7",
        "chainId": "0xa4ec"
      },
      "additionalContracts": [],
      "isFixedGasLimit": false
    },
    {
      "hash": "0xcae6c1231d541b69ccf99a4ff1c6a117b246855c0eb8fc7e762e18450e30e7e9",
      "transactionType": "CALL",
      "contractName": "MCPRegistry",
      "contractAddress": "0x62402b65bfb4fd022285a6fc2f26d8caeec3d055",
      "function": "registerTool(string,string,string)",
      "arguments": [
        "getBlockByNumber",
        "Get block details by number or latest",
        "0.1.0"
      ],
      "transaction": {
        "from": "0x19bd49ae6e4732c91d541f9bd486dc75e3888971",
        "to": "0x62402b65bfb4fd022285a6fc2f26d8caeec3d055",
        "gas": "0x41217",
        "value": "0x0",
        "input": "0x9e01510c000000000000000000000000000000000000000000000000000000000000006000000000000000000000000000000000000000000000000000000000000000a000000000000000000000000000000000000000000000000000000000000001000000000000000000000000000000000000000000000000000000000000000010676574426c6f636b42794e756d62657200000000000000000000000000000000000000000000000000000000000000000000000000000000000000000000002547657420626c6f636b2064657461696c73206279206e756d626572206f72206c61746573740000000000000000000000000000000000000000000000000000000000000000000000000000000000000000000000000000000000000000000005302e312e30000000000000000000000000000000000000000000000000000000",
        "nonce": "0x8",
        "chainId": "0xa4ec"
      },
      "additionalContracts": [],
      "isFixedGasLimit": false
    },
    {
      "hash": "0x033c5ed667950faf1c3d5f09078f64e008d7b2c206884c17d49ebc906f1ade84",
      "transactionType": "CALL",
      "contractName": "MCPRegistry",
      "contractAddress": "0x62402b65bfb4fd022285a6fc2f26d8caeec3d055",
      "function": "registerTool(string,string,string)",
      "arguments": [
        "getLatestBlock",
        "Get the latest block number and timestamp for a chain",
        "0.1.0"
      ],
      "transaction": {
        "from": "0x19bd49ae6e4732c91d541f9bd486dc75e3888971",
        "to": "0x62402b65bfb4fd022285a6fc2f26d8caeec3d055",
        "gas": "0x412ff",
        "value": "0x0",
        "input": "0x9e01510c000000000000000000000000000000000000000000000000000000000000006000000000000000000000000000000000000000000000000000000000000000a00000000000000000000000000000000000000000000000000000000000000100000000000000000000000000000000000000000000000000000000000000000e6765744c6174657374426c6f636b000000000000000000000000000000000000000000000000000000000000000000000000000000000000000000000000003547657420746865206c617465737420626c6f636b206e756d62657220616e642074696d657374616d7020666f72206120636861696e00000000000000000000000000000000000000000000000000000000000000000000000000000000000005302e312e30000000000000000000000000000000000000000000000000000000",
        "nonce": "0x9",
        "chainId": "0xa4ec"
      },
      "additionalContracts": [],
      "isFixedGasLimit": false
    },
    {
      "hash": "0xb1fa7a778c193b25a1e617c564e0e1e829a13a7b2e8526c1b4021b381689642b",
      "transactionType": "CALL",
      "contractName": "MCPRegistry",
      "contractAddress": "0x62402b65bfb4fd022285a6fc2f26d8caeec3d055",
      "function": "registerTool(string,string,string)",
      "arguments": [
        "getTransaction",
        "Get transaction details by hash",
        "0.1.0"
      ],
      "transaction": {
        "from": "0x19bd49ae6e4732c91d541f9bd486dc75e3888971",
        "to": "0x62402b65bfb4fd022285a6fc2f26d8caeec3d055",
        "gas": "0x3215b",
        "value": "0x0",
        "input": "0x9e01510c000000000000000000000000000000000000000000000000000000000000006000000000000000000000000000000000000000000000000000000000000000a000000000000000000000000000000000000000000000000000000000000000e0000000000000000000000000000000000000000000000000000000000000000e6765745472616e73616374696f6e000000000000000000000000000000000000000000000000000000000000000000000000000000000000000000000000001f476574207472616e73616374696f6e2064657461696c732062792068617368000000000000000000000000000000000000000000000000000000000000000005302e312e30000000000000000000000000000000000000000000000000000000",
        "nonce": "0xa",
        "chainId": "0xa4ec"
      },
      "additionalContracts": [],
      "isFixedGasLimit": false
    },
    {
      "hash": "0x2754d7bcfeec0d6ec9926bc56d297e0e3b8cec93adb9eac7cee53304a6502021",
      "transactionType": "CALL",
      "contractName": "MCPRegistry",
      "contractAddress": "0x62402b65bfb4fd022285a6fc2f26d8caeec3d055",
      "function": "registerTool(string,string,string)",
      "arguments": [
        "getTransactionReceipt",
        "Get transaction receipt with status, gasUsed, and logs",
        "0.1.0"
      ],
      "transaction": {
        "from": "0x19bd49ae6e4732c91d541f9bd486dc75e3888971",
        "to": "0x62402b65bfb4fd022285a6fc2f26d8caeec3d055",
        "gas": "0x41383",
        "value": "0x0",
        "input": "0x9e01510c000000000000000000000000000000000000000000000000000000000000006000000000000000000000000000000000000000000000000000000000000000a0000000000000000000000000000000000000000000000000000000000000010000000000000000000000000000000000000000000000000000000000000000156765745472616e73616374696f6e5265636569707400000000000000000000000000000000000000000000000000000000000000000000000000000000000036476574207472616e73616374696f6e20726563656970742077697468207374617475732c20676173557365642c20616e64206c6f6773000000000000000000000000000000000000000000000000000000000000000000000000000000000005302e312e30000000000000000000000000000000000000000000000000000000",
        "nonce": "0xb",
        "chainId": "0xa4ec"
      },
      "additionalContracts": [],
      "isFixedGasLimit": false
    },
    {
      "hash": "0xe2e5e15654ff10f1a07ddcb252d1cc7c22f8aa06252fe847b3e91ed1ea6410d4",
      "transactionType": "CALL",
      "contractName": "MCPRegistry",
      "contractAddress": "0x62402b65bfb4fd022285a6fc2f26d8caeec3d055",
      "function": "registerTool(string,string,string)",
      "arguments": [
        "decodeTransaction",
        "Decode transaction function call and parameters",
        "0.1.0"
      ],
      "transaction": {
        "from": "0x19bd49ae6e4732c91d541f9bd486dc75e3888971",
        "to": "0x62402b65bfb4fd022285a6fc2f26d8caeec3d055",
        "gas": "0x45025",
        "value": "0x0",
        "input": "0x9e01510c000000000000000000000000000000000000000000000000000000000000006000000000000000000000000000000000000000000000000000000000000000a0000000000000000000000000000000000000000000000000000000000000010000000000000000000000000000000000000000000000000000000000000000116465636f64655472616e73616374696f6e000000000000000000000000000000000000000000000000000000000000000000000000000000000000000000002f4465636f6465207472616e73616374696f6e2066756e6374696f6e2063616c6c20616e6420706172616d657465727300000000000000000000000000000000000000000000000000000000000000000000000000000000000000000000000005302e312e30000000000000000000000000000000000000000000000000000000",
        "nonce": "0xc",
        "chainId": "0xa4ec"
      },
      "additionalContracts": [],
      "isFixedGasLimit": false
    },
    {
      "hash": "0x95c5f47531ae3e82e3caf58b34a459196d0d3aeb16594fd3b152367f2e59fa33",
      "transactionType": "CALL",
      "contractName": "MCPRegistry",
      "contractAddress": "0x62402b65bfb4fd022285a6fc2f26d8caeec3d055",
      "function": "registerTool(string,string,string)",
      "arguments": [
        "readContract",
        "Call a read-only contract function and return decoded result",
        "0.1.0"
      ],
      "transaction": {
        "from": "0x19bd49ae6e4732c91d541f9bd486dc75e3888971",
        "to": "0x62402b65bfb4fd022285a6fc2f26d8caeec3d055",
        "gas": "0x450b2",
        "value": "0x0",
        "input": "0x9e01510c000000000000000000000000000000000000000000000000000000000000006000000000000000000000000000000000000000000000000000000000000000a00000000000000000000000000000000000000000000000000000000000000100000000000000000000000000000000000000000000000000000000000000000c72656164436f6e74726163740000000000000000000000000000000000000000000000000000000000000000000000000000000000000000000000000000003c43616c6c206120726561642d6f6e6c7920636f6e74726163742066756e6374696f6e20616e642072657475726e206465636f64656420726573756c74000000000000000000000000000000000000000000000000000000000000000000000005302e312e30000000000000000000000000000000000000000000000000000000",
        "nonce": "0xd",
        "chainId": "0xa4ec"
      },
      "additionalContracts": [],
      "isFixedGasLimit": false
    },
    {
      "hash": "0x1adbc9f1ace3428d19ca4be912e465aafd9b0a72ac3ef9d1576208f4a729e94d",
      "transactionType": "CALL",
      "contractName": "MCPRegistry",
      "contractAddress": "0x62402b65bfb4fd022285a6fc2f26d8caeec3d055",
      "function": "registerTool(string,string,string)",
      "arguments": [
        "getContractCode",
        "Check if an address has contract code and get bytecode metadata",
        "0.1.0"
      ],
      "transaction": {
        "from": "0x19bd49ae6e4732c91d541f9bd486dc75e3888971",
        "to": "0x62402b65bfb4fd022285a6fc2f26d8caeec3d055",
        "gas": "0x4511b",
        "value": "0x0",
        "input": "0x9e01510c000000000000000000000000000000000000000000000000000000000000006000000000000000000000000000000000000000000000000000000000000000a00000000000000000000000000000000000000000000000000000000000000100000000000000000000000000000000000000000000000000000000000000000f676574436f6e7472616374436f64650000000000000000000000000000000000000000000000000000000000000000000000000000000000000000000000003f436865636b20696620616e20616464726573732068617320636f6e747261637420636f646520616e64206765742062797465636f6465206d65746164617461000000000000000000000000000000000000000000000000000000000000000005302e312e30000000000000000000000000000000000000000000000000000000",
        "nonce": "0xe",
        "chainId": "0xa4ec"
      },
      "additionalContracts": [],
      "isFixedGasLimit": false
    },
    {
      "hash": "0x673c2d27d8d463b92f5cea35b9aad390ed56b76fa7f92e448f84cdc7ee96920b",
      "transactionType": "CALL",
      "contractName": "MCPRegistry",
      "contractAddress": "0x62402b65bfb4fd022285a6fc2f26d8caeec3d055",
      "function": "registerTool(string,string,string)",
      "arguments": [
        "getStorageAt",
        "Read raw storage slot value at an address",
        "0.1.0"
      ],
      "transaction": {
        "from": "0x19bd49ae6e4732c91d541f9bd486dc75e3888971",
        "to": "0x62402b65bfb4fd022285a6fc2f26d8caeec3d055",
        "gas": "0x41217",
        "value": "0x0",
        "input": "0x9e01510c000000000000000000000000000000000000000000000000000000000000006000000000000000000000000000000000000000000000000000000000000000a00000000000000000000000000000000000000000000000000000000000000100000000000000000000000000000000000000000000000000000000000000000c67657453746f7261676541740000000000000000000000000000000000000000000000000000000000000000000000000000000000000000000000000000002952656164207261772073746f7261676520736c6f742076616c756520617420616e206164647265737300000000000000000000000000000000000000000000000000000000000000000000000000000000000000000000000000000000000005302e312e30000000000000000000000000000000000000000000000000000000",
        "nonce": "0xf",
        "chainId": "0xa4ec"
      },
      "additionalContracts": [],
      "isFixedGasLimit": false
    },
    {
      "hash": "0x12fef7c44ce9e25cd147d0923c0d8ce24fa94686482fb2823715fc80e6fa4a99",
      "transactionType": "CALL",
      "contractName": "MCPRegistry",
      "contractAddress": "0x62402b65bfb4fd022285a6fc2f26d8caeec3d055",
      "function": "registerTool(string,string,string)",
      "arguments": [
        "getERC20Info",
        "Get ERC20 token metadata via Multicall3 batch",
        "0.1.0"
      ],
      "transaction": {
        "from": "0x19bd49ae6e4732c91d541f9bd486dc75e3888971",
        "to": "0x62402b65bfb4fd022285a6fc2f26d8caeec3d055",
        "gas": "0x41259",
        "value": "0x0",
        "input": "0x9e01510c000000000000000000000000000000000000000000000000000000000000006000000000000000000000000000000000000000000000000000000000000000a00000000000000000000000000000000000000000000000000000000000000100000000000000000000000000000000000000000000000000000000000000000c6765744552433230496e666f0000000000000000000000000000000000000000000000000000000000000000000000000000000000000000000000000000002d47657420455243323020746f6b656e206d6574616461746120766961204d756c746963616c6c33206261746368000000000000000000000000000000000000000000000000000000000000000000000000000000000000000000000000000005302e312e30000000000000000000000000000000000000000000000000000000",
        "nonce": "0x10",
        "chainId": "0xa4ec"
      },
      "additionalContracts": [],
      "isFixedGasLimit": false
    },
    {
      "hash": "0x460ed30b9ccda44ff2330d5f0a6aeb4d869fdfa5cd1cb6754c938c3f2417d3dd",
      "transactionType": "CALL",
      "contractName": "MCPRegistry",
      "contractAddress": "0x62402b65bfb4fd022285a6fc2f26d8caeec3d055",
      "function": "registerTool(string,string,string)",
      "arguments": [
        "getTokenAllowance",
        "Get ERC20 allowance for an owner/spender pair",
        "0.1.0"
      ],
      "transaction": {
        "from": "0x19bd49ae6e4732c91d541f9bd486dc75e3888971",
        "to": "0x62402b65bfb4fd022285a6fc2f26d8caeec3d055",
        "gas": "0x45002",
        "value": "0x0",
        "input": "0x9e01510c000000000000000000000000000000000000000000000000000000000000006000000000000000000000000000000000000000000000000000000000000000a000000000000000000000000000000000000000000000000000000000000001000000000000000000000000000000000000000000000000000000000000000011676574546f6b656e416c6c6f77616e6365000000000000000000000000000000000000000000000000000000000000000000000000000000000000000000002d47657420455243323020616c6c6f77616e636520666f7220616e206f776e65722f7370656e6465722070616972000000000000000000000000000000000000000000000000000000000000000000000000000000000000000000000000000005302e312e30000000000000000000000000000000000000000000000000000000",
        "nonce": "0x11",
        "chainId": "0xa4ec"
      },
      "additionalContracts": [],
      "isFixedGasLimit": false
    },
    {
      "hash": "0x2591d83098870c4810e3eac27eb96502e282a4d106d5578e851139130fdd989e",
      "transactionType": "CALL",
      "contractName": "MCPRegistry",
      "contractAddress": "0x62402b65bfb4fd022285a6fc2f26d8caeec3d055",
      "function": "registerTool(string,string,string)",
      "arguments": [
        "getGasPrice",
        "Get current gas price and EIP-1559 fee data for a chain",
        "0.1.0"
      ],
      "transaction": {
        "from": "0x19bd49ae6e4732c91d541f9bd486dc75e3888971",
        "to": "0x62402b65bfb4fd022285a6fc2f26d8caeec3d055",
        "gas": "0x45048",
        "value": "0x0",
        "input": "0x9e01510c000000000000000000000000000000000000000000000000000000000000006000000000000000000000000000000000000000000000000000000000000000a00000000000000000000000000000000000000000000000000000000000000100000000000000000000000000000000000000000000000000000000000000000b676574476173507269636500000000000000000000000000000000000000000000000000000000000000000000000000000000000000000000000000000000374765742063757272656e742067617320707269636520616e64204549502d3135353920666565206461746120666f72206120636861696e0000000000000000000000000000000000000000000000000000000000000000000000000000000005302e312e30000000000000000000000000000000000000000000000000000000",
        "nonce": "0x12",
        "chainId": "0xa4ec"
      },
      "additionalContracts": [],
      "isFixedGasLimit": false
    },
    {
      "hash": "0xb08cd48ecfdebd148232e3b0ae1d0e941a76c3745c4778975e49e65f650cce3e",
      "transactionType": "CALL",
      "contractName": "MCPRegistry",
      "contractAddress": "0x62402b65bfb4fd022285a6fc2f26d8caeec3d055",
      "function": "registerTool(string,string,string)",
      "arguments": [
        "estimateGas",
        "Estimate gas cost for a transaction",
        "0.1.0"
      ],
      "transaction": {
        "from": "0x19bd49ae6e4732c91d541f9bd486dc75e3888971",
        "to": "0x62402b65bfb4fd022285a6fc2f26d8caeec3d055",
        "gas": "0x44ee9",
        "value": "0x0",
        "input": "0x9e01510c000000000000000000000000000000000000000000000000000000000000006000000000000000000000000000000000000000000000000000000000000000a00000000000000000000000000000000000000000000000000000000000000100000000000000000000000000000000000000000000000000000000000000000b657374696d6174654761730000000000000000000000000000000000000000000000000000000000000000000000000000000000000000000000000000000023457374696d6174652067617320636f737420666f722061207472616e73616374696f6e00000000000000000000000000000000000000000000000000000000000000000000000000000000000000000000000000000000000000000000000005302e312e30000000000000000000000000000000000000000000000000000000",
        "nonce": "0x13",
        "chainId": "0xa4ec"
      },
      "additionalContracts": [],
      "isFixedGasLimit": false
    },
    {
      "hash": "0x455968c98618fe9887b516546dbfe5afe0a15146e5f4393296411fc9e718f15a",
      "transactionType": "CALL",
      "contractName": "MCPRegistry",
      "contractAddress": "0x62402b65bfb4fd022285a6fc2f26d8caeec3d055",
      "function": "registerTool(string,string,string)",
      "arguments": [
        "compareGasAcrossChains",
        "Compare current gas prices across all 4 supported chains",
        "0.1.0"
      ],
      "transaction": {
        "from": "0x19bd49ae6e4732c91d541f9bd486dc75e3888971",
        "to": "0x62402b65bfb4fd022285a6fc2f26d8caeec3d055",
        "gas": "0x4511b",
        "value": "0x0",
        "input": "0x9e01510c000000000000000000000000000000000000000000000000000000000000006000000000000000000000000000000000000000000000000000000000000000a000000000000000000000000000000000000000000000000000000000000001000000000000000000000000000000000000000000000000000000000000000016636f6d706172654761734163726f7373436861696e73000000000000000000000000000000000000000000000000000000000000000000000000000000000038436f6d706172652063757272656e742067617320707269636573206163726f737320616c6c203420737570706f7274656420636861696e7300000000000000000000000000000000000000000000000000000000000000000000000000000005302e312e30000000000000000000000000000000000000000000000000000000",
        "nonce": "0x14",
        "chainId": "0xa4ec"
      },
      "additionalContracts": [],
      "isFixedGasLimit": false
    },
    {
      "hash": "0x1c2fad5e5c1070fbe086389f1f2ab07df90162ed949e998c5b71efd859e5d56f",
      "transactionType": "CALL",
      "contractName": "MCPRegistry",
      "contractAddress": "0x62402b65bfb4fd022285a6fc2f26d8caeec3d055",
      "function": "registerTool(string,string,string)",
      "arguments": [
        "resolveENS",
        "Resolve an ENS name to an address via Ethereum L1",
        "0.1.0"
      ],
      "transaction": {
        "from": "0x19bd49ae6e4732c91d541f9bd486dc75e3888971",
        "to": "0x62402b65bfb4fd022285a6fc2f26d8caeec3d055",
        "gas": "0x4127a",
        "value": "0x0",
        "input": "0x9e01510c000000000000000000000000000000000000000000000000000000000000006000000000000000000000000000000000000000000000000000000000000000a00000000000000000000000000000000000000000000000000000000000000100000000000000000000000000000000000000000000000000000000000000000a7265736f6c7665454e530000000000000000000000000000000000000000000000000000000000000000000000000000000000000000000000000000000000315265736f6c766520616e20454e53206e616d6520746f20616e20616464726573732076696120457468657265756d204c310000000000000000000000000000000000000000000000000000000000000000000000000000000000000000000005302e312e30000000000000000000000000000000000000000000000000000000",
        "nonce": "0x15",
        "chainId": "0xa4ec"
      },
      "additionalContracts": [],
      "isFixedGasLimit": false
    },
    {
      "hash": "0xa3c30d30302c57b6f10a3d6cd14a727ac8f4b17c5538009bb8bcf091fad14eb0",
      "transactionType": "CALL",
      "contractName": "MCPRegistry",
      "contractAddress": "0x62402b65bfb4fd022285a6fc2f26d8caeec3d055",
      "function": "registerTool(string,string,string)",
      "arguments": [
        "lookupAddress",
        "Reverse lookup an address to its ENS name",
        "0.1.0"
      ],
      "transaction": {
        "from": "0x19bd49ae6e4732c91d541f9bd486dc75e3888971",
        "to": "0x62402b65bfb4fd022285a6fc2f26d8caeec3d055",
        "gas": "0x44f76",
        "value": "0x0",
        "input": "0x9e01510c000000000000000000000000000000000000000000000000000000000000006000000000000000000000000000000000000000000000000000000000000000a00000000000000000000000000000000000000000000000000000000000000100000000000000000000000000000000000000000000000000000000000000000d6c6f6f6b75704164647265737300000000000000000000000000000000000000000000000000000000000000000000000000000000000000000000000000002952657665727365206c6f6f6b757020616e206164647265737320746f2069747320454e53206e616d6500000000000000000000000000000000000000000000000000000000000000000000000000000000000000000000000000000000000005302e312e30000000000000000000000000000000000000000000000000000000",
        "nonce": "0x16",
        "chainId": "0xa4ec"
      },
      "additionalContracts": [],
      "isFixedGasLimit": false
    },
    {
      "hash": "0xe7c235070eca13a19ca401bf58679283ce07541a00b0b0a7499c56e83249c12d",
      "transactionType": "CALL",
      "contractName": "MCPRegistry",
      "contractAddress": "0x62402b65bfb4fd022285a6fc2f26d8caeec3d055",
      "function": "registerTool(string,string,string)",
      "arguments": [
        "getContractEvents",
        "Get decoded event logs for a contract",
        "0.1.0"
      ],
      "transaction": {
        "from": "0x19bd49ae6e4732c91d541f9bd486dc75e3888971",
        "to": "0x62402b65bfb4fd022285a6fc2f26d8caeec3d055",
        "gas": "0x44f76",
        "value": "0x0",
        "input": "0x9e01510c000000000000000000000000000000000000000000000000000000000000006000000000000000000000000000000000000000000000000000000000000000a000000000000000000000000000000000000000000000000000000000000001000000000000000000000000000000000000000000000000000000000000000011676574436f6e74726163744576656e74730000000000000000000000000000000000000000000000000000000000000000000000000000000000000000000025476574206465636f646564206576656e74206c6f677320666f72206120636f6e74726163740000000000000000000000000000000000000000000000000000000000000000000000000000000000000000000000000000000000000000000005302e312e30000000000000000000000000000000000000000000000000000000",
        "nonce": "0x17",
        "chainId": "0xa4ec"
      },
      "additionalContracts": [],
      "isFixedGasLimit": false
    },
    {
      "hash": "0x49f0be2bd19828c829c64676fd8031c73c5dccd460ff04a13eb42c4d130b53e8",
      "transactionType": "CALL",
      "contractName": "MCPRegistry",
      "contractAddress": "0x62402b65bfb4fd022285a6fc2f26d8caeec3d055",
      "function": "registerTool(string,string,string)",
      "arguments": [
        "decodeEventLog",
        "Decode a raw event log using a provided ABI",
        "0.1.0"
      ],
      "transaction": {
        "from": "0x19bd49ae6e4732c91d541f9bd486dc75e3888971",
        "to": "0x62402b65bfb4fd022285a6fc2f26d8caeec3d055",
        "gas": "0x41259",
        "value": "0x0",
        "input": "0x9e01510c000000000000000000000000000000000000000000000000000000000000006000000000000000000000000000000000000000000000000000000000000000a00000000000000000000000000000000000000000000000000000000000000100000000000000000000000000000000000000000000000000000000000000000e6465636f64654576656e744c6f67000000000000000000000000000000000000000000000000000000000000000000000000000000000000000000000000002b4465636f6465206120726177206576656e74206c6f67207573696e6720612070726f7669646564204142490000000000000000000000000000000000000000000000000000000000000000000000000000000000000000000000000000000005302e312e30000000000000000000000000000000000000000000000000000000",
        "nonce": "0x18",
        "chainId": "0xa4ec"
      },
      "additionalContracts": [],
      "isFixedGasLimit": false
    },
    {
      "hash": "0xeaa2b49d9fd1f9eb563a2d71aa36ecf6abf3fb5a0998bfa3ebf61b0eab0cc074",
      "transactionType": "CALL",
      "contractName": "MCPRegistry",
      "contractAddress": "0x62402b65bfb4fd022285a6fc2f26d8caeec3d055",
      "function": "registerTool(string,string,string)",
      "arguments": [
        "getChainInfo",
        "Get chain metadata including block height and native symbol",
        "0.1.0"
      ],
      "transaction": {
        "from": "0x19bd49ae6e4732c91d541f9bd486dc75e3888971",
        "to": "0x62402b65bfb4fd022285a6fc2f26d8caeec3d055",
        "gas": "0x41341",
        "value": "0x0",
        "input": "0x9e01510c000000000000000000000000000000000000000000000000000000000000006000000000000000000000000000000000000000000000000000000000000000a00000000000000000000000000000000000000000000000000000000000000100000000000000000000000000000000000000000000000000000000000000000c676574436861696e496e666f0000000000000000000000000000000000000000000000000000000000000000000000000000000000000000000000000000003b47657420636861696e206d6574616461746120696e636c7564696e6720626c6f636b2068656967687420616e64206e61746976652073796d626f6c00000000000000000000000000000000000000000000000000000000000000000000000005302e312e30000000000000000000000000000000000000000000000000000000",
        "nonce": "0x19",
        "chainId": "0xa4ec"
      },
      "additionalContracts": [],
      "isFixedGasLimit": false
    },
    {
      "hash": "0x8b4f68ece78d15b7a80e4745db8b7a47462adeac8d2a133a814d38d215c7834c",
      "transactionType": "CALL",
      "contractName": "MCPRegistry",
      "contractAddress": "0x62402b65bfb4fd022285a6fc2f26d8caeec3d055",
      "function": "registerTool(string,string,string)",
      "arguments": [
        "isContractDeployed",
        "Check if a contract is deployed across all supported chains",
        "0.1.0"
      ],
      "transaction": {
        "from": "0x19bd49ae6e4732c91d541f9bd486dc75e3888971",
        "to": "0x62402b65bfb4fd022285a6fc2f26d8caeec3d055",
        "gas": "0x413a5",
        "value": "0x0",
        "input": "0x9e01510c000000000000000000000000000000000000000000000000000000000000006000000000000000000000000000000000000000000000000000000000000000a0000000000000000000000000000000000000000000000000000000000000010000000000000000000000000000000000000000000000000000000000000000126973436f6e74726163744465706c6f7965640000000000000000000000000000000000000000000000000000000000000000000000000000000000000000003b436865636b206966206120636f6e7472616374206973206465706c6f796564206163726f737320616c6c20737570706f7274656420636861696e7300000000000000000000000000000000000000000000000000000000000000000000000005302e312e30000000000000000000000000000000000000000000000000000000",
        "nonce": "0x1a",
        "chainId": "0xa4ec"
      },
      "additionalContracts": [],
      "isFixedGasLimit": false
    },
    {
      "hash": "0xc7feeac32faeeb1bc7e9146017daf8399ba14c8234c87817d207d4a79e9e251c",
      "transactionType": "CALL",
      "contractName": "MCPRegistry",
      "contractAddress": "0x62402b65bfb4fd022285a6fc2f26d8caeec3d055",
      "function": "registerTool(string,string,string)",
      "arguments": [
        "healthCheck",
        "Test all RPC connections and report status",
        "0.1.0"
      ],
      "transaction": {
        "from": "0x19bd49ae6e4732c91d541f9bd486dc75e3888971",
        "to": "0x62402b65bfb4fd022285a6fc2f26d8caeec3d055",
        "gas": "0x41217",
        "value": "0x0",
        "input": "0x9e01510c000000000000000000000000000000000000000000000000000000000000006000000000000000000000000000000000000000000000000000000000000000a00000000000000000000000000000000000000000000000000000000000000100000000000000000000000000000000000000000000000000000000000000000b6865616c7468436865636b000000000000000000000000000000000000000000000000000000000000000000000000000000000000000000000000000000002a5465737420616c6c2052504320636f6e6e656374696f6e7320616e64207265706f727420737461747573000000000000000000000000000000000000000000000000000000000000000000000000000000000000000000000000000000000005302e312e30000000000000000000000000000000000000000000000000000000",
        "nonce": "0x1b",
        "chainId": "0xa4ec"
      },
      "additionalContracts": [],
      "isFixedGasLimit": false
    },
    {
      "hash": "0x64b5618312c66b6f3c1cb9edb859d434fa6bd4af5b11dba9aa7399f0f04cf456",
      "transactionType": "CALL",
      "contractName": "MCPRegistry",
      "contractAddress": "0x62402b65bfb4fd022285a6fc2f26d8caeec3d055",
      "function": "registerTool(string,string,string)",
      "arguments": [
        "batchQuery",
        "Execute batch read calls via Multicall3",
        "0.1.0"
      ],
      "transaction": {
        "from": "0x19bd49ae6e4732c91d541f9bd486dc75e3888971",
        "to": "0x62402b65bfb4fd022285a6fc2f26d8caeec3d055",
        "gas": "0x411d5",
        "value": "0x0",
        "input": "0x9e01510c000000000000000000000000000000000000000000000000000000000000006000000000000000000000000000000000000000000000000000000000000000a00000000000000000000000000000000000000000000000000000000000000100000000000000000000000000000000000000000000000000000000000000000a626174636851756572790000000000000000000000000000000000000000000000000000000000000000000000000000000000000000000000000000000000274578656375746520626174636820726561642063616c6c7320766961204d756c746963616c6c33000000000000000000000000000000000000000000000000000000000000000000000000000000000000000000000000000000000000000005302e312e30000000000000000000000000000000000000000000000000000000",
        "nonce": "0x1c",
        "chainId": "0xa4ec"
      },
      "additionalContracts": [],
      "isFixedGasLimit": false
    }
  ],
  "receipts": [
    {
      "status": "0x1",
      "cumulativeGasUsed": "0x341efb",
      "logs": [
        {
          "address": "0x62402b65bfb4fd022285a6fc2f26d8caeec3d055",
          "topics": [
            "0x429fa3f2cc8331e73fa6082c4dc1b89b5be0a13383f325d93cb26d83a47ea298",
            "0xc6e48e23057a9367006698ee62874f5ca25b4faf8da0114dbac8e0f6787004c4"
          ],
          "data": "0x00000000000000000000000000000000000000000000000000000000000000400000000000000000000000000000000000000000000000000000000069ccba7e0000000000000000000000000000000000000000000000000000000000000005302e312e30000000000000000000000000000000000000000000000000000000",
          "blockHash": "0xf66b6da8c38d837b858918c7fab3359b5ff7b925e1bfc4f3fd0d4d8e15910929",
          "blockNumber": "0x3c33228",
          "blockTimestamp": "0x69ccba7e",
          "transactionHash": "0x27a0581c0c31db613427a429d73a2c1b0d71cefdb176c1a041edc8c8428eb9c0",
          "transactionIndex": "0xf",
          "logIndex": "0xf7",
          "removed": false
        }
      ],
      "logsBloom": "0x00000000000000000000000000000000000000000000000000000000000000000000000000000000000000000000000000000000000000000000000000000000000000000000000000000000400000000000000000000000000000000000000000000004000000000000000000000000000000000000000000000000000001000000000000000000002000000000000000000000000000000000000000000000000000000000001000000000000000000000000000000000000000000000000000000000000000000000000000000000000000000080000000000000000200000000000000000000000800000000040000000000000000000000000000000000",
      "type": "0x2",
      "transactionHash": "0x27a0581c0c31db613427a429d73a2c1b0d71cefdb176c1a041edc8c8428eb9c0",
      "transactionIndex": "0xf",
      "blockHash": "0xf66b6da8c38d837b858918c7fab3359b5ff7b925e1bfc4f3fd0d4d8e15910929",
      "blockNumber": "0x3c33228",
      "gasUsed": "0x33625",
      "effectiveGasPrice": "0x6b9123da7",
      "blobGasUsed": "0x9d",
      "from": "0x19bd49ae6e4732c91d541f9bd486dc75e3888971",
      "to": "0x62402b65bfb4fd022285a6fc2f26d8caeec3d055",
      "contractAddress": null,
      "daFootprintGasScalar": "0x1",
      "l1BaseFeeScalar": "0x0",
      "l1BlobBaseFee": "0x94c914",
      "l1BlobBaseFeeScalar": "0x0",
      "l1Fee": "0x0",
      "l1GasPrice": "0xb9a2f5f",
      "l1GasUsed": "0x9d5"
    },
    {
      "status": "0x1",
      "cumulativeGasUsed": "0x371260",
      "logs": [
        {
          "address": "0x62402b65bfb4fd022285a6fc2f26d8caeec3d055",
          "topics": [
            "0x429fa3f2cc8331e73fa6082c4dc1b89b5be0a13383f325d93cb26d83a47ea298",
            "0xdce17bd92bab6573d1db7bc84cb508b87d2b7a0d2581148e4a23d0dc75fddafd"
          ],
          "data": "0x00000000000000000000000000000000000000000000000000000000000000400000000000000000000000000000000000000000000000000000000069ccba7e0000000000000000000000000000000000000000000000000000000000000005302e312e30000000000000000000000000000000000000000000000000000000",
          "blockHash": "0xf66b6da8c38d837b858918c7fab3359b5ff7b925e1bfc4f3fd0d4d8e15910929",
          "blockNumber": "0x3c33228",
          "blockTimestamp": "0x69ccba7e",
          "transactionHash": "0x5058d450ef290ef6f5dcdbeb17eba71b33b5703835736b9d824ec2f1d4015440",
          "transactionIndex": "0x10",
          "logIndex": "0xf8",
          "removed": false
        }
      ],
      "logsBloom": "0x00000000000000000000000000004000000000000000000000000000000000000000000000000000000000000000000000000000004000000000000000000000000000000000000000000000400000000000000000000000000000000000000000000004000000001000000000000000000000000000000000000000000000000000000000000000000000000000000000000000000000000000000000000000000000000000001000000000000000000000000000000000000000000000000000000000000000000000000000000000000000000080000000000000000000000000000000000000000800000000040000000000000000000000000000000000",
      "type": "0x2",
      "transactionHash": "0x5058d450ef290ef6f5dcdbeb17eba71b33b5703835736b9d824ec2f1d4015440",
      "transactionIndex": "0x10",
      "blockHash": "0xf66b6da8c38d837b858918c7fab3359b5ff7b925e1bfc4f3fd0d4d8e15910929",
      "blockNumber": "0x3c33228",
      "gasUsed": "0x2f365",
      "effectiveGasPrice": "0x6b9123da7",
      "blobGasUsed": "0x9d",
      "from": "0x19bd49ae6e4732c91d541f9bd486dc75e3888971",
      "to": "0x62402b65bfb4fd022285a6fc2f26d8caeec3d055",
      "contractAddress": null,
      "daFootprintGasScalar": "0x1",
      "l1BaseFeeScalar": "0x0",
      "l1BlobBaseFee": "0x94c914",
      "l1BlobBaseFeeScalar": "0x0",
      "l1Fee": "0x0",
      "l1GasPrice": "0xb9a2f5f",
      "l1GasUsed": "0x9d5"
    },
    {
      "status": "0x1",
      "cumulativeGasUsed": "0x1bd564",
      "logs": [
        {
          "address": "0x62402b65bfb4fd022285a6fc2f26d8caeec3d055",
          "topics": [
            "0x429fa3f2cc8331e73fa6082c4dc1b89b5be0a13383f325d93cb26d83a47ea298",
            "0xd94888843b87e0ddc5cf70ddce7bb26b6b85b0dc4ccbb70a3d427e5f1a58bb36"
          ],
          "data": "0x00000000000000000000000000000000000000000000000000000000000000400000000000000000000000000000000000000000000000000000000069ccba7f0000000000000000000000000000000000000000000000000000000000000005302e312e30000000000000000000000000000000000000000000000000000000",
          "blockHash": "0x9edee3b4f777f388d940aae95f5b14416a983b07d85e77ae207d92eb8b6c6896",
          "blockNumber": "0x3c33229",
          "blockTimestamp": "0x69ccba7f",
          "transactionHash": "0x2754d7bcfeec0d6ec9926bc56d297e0e3b8cec93adb9eac7cee53304a6502021",
          "transactionIndex": "0x11",
          "logIndex": "0x29",
          "removed": false
        }
      ],
      "logsBloom": "0x00000000000000000000001000000000000000000200000000000000000000000000000000000000000000000000000000000000000000000000000000000000000000000000000000000000400000000000000000000000000000000000000000000004000000000000000000000000000000000000000000000002000000000000000000000000000000000000000000000000000000000000000000000000000000000000001000000000000000000000000000000000000000000000000000000000000000000000000000000000000000000080000000000000000000000000000000000000000800000000040000000000000000000000000000000000",
      "type": "0x2",
      "transactionHash": "0x2754d7bcfeec0d6ec9926bc56d297e0e3b8cec93adb9eac7cee53304a6502021",
      "transactionIndex": "0x11",
      "blockHash": "0x9edee3b4f777f388d940aae95f5b14416a983b07d85e77ae207d92eb8b6c6896",
      "blockNumber": "0x3c33229",
      "gasUsed": "0x2f341",
      "effectiveGasPrice": "0x6b8730bbf",
      "blobGasUsed": "0x9e",
      "from": "0x19bd49ae6e4732c91d541f9bd486dc75e3888971",
      "to": "0x62402b65bfb4fd022285a6fc2f26d8caeec3d055",
      "contractAddress": null,
      "daFootprintGasScalar": "0x1",
      "l1BaseFeeScalar": "0x0",
      "l1BlobBaseFee": "0x94c914",
      "l1BlobBaseFeeScalar": "0x0",
      "l1Fee": "0x0",
      "l1GasPrice": "0xb9a2f5f",
      "l1GasUsed": "0x9e2"
    },
    {
      "status": "0x1",
      "cumulativeGasUsed": "0x1ec7d9",
      "logs": [
        {
          "address": "0x62402b65bfb4fd022285a6fc2f26d8caeec3d055",
          "topics": [
            "0x429fa3f2cc8331e73fa6082c4dc1b89b5be0a13383f325d93cb26d83a47ea298",
            "0x842a8ad6212e42c435505d02a4b7e89141d91318ffea3fe899f02cf0832fa4bb"
          ],
          "data": "0x00000000000000000000000000000000000000000000000000000000000000400000000000000000000000000000000000000000000000000000000069ccba7f0000000000000000000000000000000000000000000000000000000000000005302e312e30000000000000000000000000000000000000000000000000000000",
          "blockHash": "0x9edee3b4f777f388d940aae95f5b14416a983b07d85e77ae207d92eb8b6c6896",
          "blockNumber": "0x3c33229",
          "blockTimestamp": "0x69ccba7f",
          "transactionHash": "0xf8fb4c3fc6b0c2617521249368506594e6c66340e66fbb5d74c0806f8b328d5f",
          "transactionIndex": "0x12",
          "logIndex": "0x2a",
          "removed": false
        }
      ],
      "logsBloom": "0x00000000000000000000000000000000000000000000000000000000000000000000000000000000008000000000000000000000000000000000000000000000000000000000000000000000400000000000000000000000000000000000000000000004000000000000000000000000000000000000000000000000000000000000000000000000000000000000000000000000000000000000000000000000000000000000001000000000000000000000000000000000000000000000000000000000000000000000000000000000000000000080000002000000000000000000000000000000000800000000040000000040000000000000000000000000",
      "type": "0x2",
      "transactionHash": "0xf8fb4c3fc6b0c2617521249368506594e6c66340e66fbb5d74c0806f8b328d5f",
      "transactionIndex": "0x12",
      "blockHash": "0x9edee3b4f777f388d940aae95f5b14416a983b07d85e77ae207d92eb8b6c6896",
      "blockNumber": "0x3c33229",
      "gasUsed": "0x2f275",
      "effectiveGasPrice": "0x6b8730bbf",
      "blobGasUsed": "0x8f",
      "from": "0x19bd49ae6e4732c91d541f9bd486dc75e3888971",
      "to": "0x62402b65bfb4fd022285a6fc2f26d8caeec3d055",
      "contractAddress": null,
      "daFootprintGasScalar": "0x1",
      "l1BaseFeeScalar": "0x0",
      "l1BlobBaseFee": "0x94c914",
      "l1BlobBaseFeeScalar": "0x0",
      "l1Fee": "0x0",
      "l1GasPrice": "0xb9a2f5f",
      "l1GasUsed": "0x8ff"
    },
    {
      "status": "0x1",
      "cumulativeGasUsed": "0x21ba4e",
      "logs": [
        {
          "address": "0x62402b65bfb4fd022285a6fc2f26d8caeec3d055",
          "topics": [
            "0x429fa3f2cc8331e73fa6082c4dc1b89b5be0a13383f325d93cb26d83a47ea298",
            "0x2953357ad8f50b1ca2aa2600a4bac2cc64fc74ebc13e659225e3a4b39ed8dbb0"
          ],
          "data": "0x00000000000000000000000000000000000000000000000000000000000000400000000000000000000000000000000000000000000000000000000069ccba7f0000000000000000000000000000000000000000000000000000000000000005302e312e30000000000000000000000000000000000000000000000000000000",
          "blockHash": "0x9edee3b4f777f388d940aae95f5b14416a983b07d85e77ae207d92eb8b6c6896",
          "blockNumber": "0x3c33229",
          "blockTimestamp": "0x69ccba7f",
          "transactionHash": "0xe007a9b08fa52e83db6e915913d1468edfe0804f73dd6e8b911b151502edd110",
          "transactionIndex": "0x13",
          "logIndex": "0x2b",
          "removed": false
        }
      ],
      "logsBloom": "0x00002000000000000000000000000000000000000000000000000000000000000000000000000000000000000000000000000000000000000000000000000000000000000000000000000000400000000000000000000000000000000000000000000004000000000000000000000000002000000000000000000000000000000000000000000000000000000000000000000000000000000000000000000000000000000000001000000000000000000000000000000004000000000000000000000000000000000000000000000000000000000080000000000000000000000000000000000000000800000000040000000000000000000000000000000000",
      "type": "0x2",
      "transactionHash": "0xe007a9b08fa52e83db6e915913d1468edfe0804f73dd6e8b911b151502edd110",
      "transactionIndex": "0x13",
      "blockHash": "0x9edee3b4f777f388d940aae95f5b14416a983b07d85e77ae207d92eb8b6c6896",
      "blockNumber": "0x3c33229",
      "gasUsed": "0x2f275",
      "effectiveGasPrice": "0x6b8730bbf",
      "blobGasUsed": "0x92",
      "from": "0x19bd49ae6e4732c91d541f9bd486dc75e3888971",
      "to": "0x62402b65bfb4fd022285a6fc2f26d8caeec3d055",
      "contractAddress": null,
      "daFootprintGasScalar": "0x1",
      "l1BaseFeeScalar": "0x0",
      "l1BlobBaseFee": "0x94c914",
      "l1BlobBaseFeeScalar": "0x0",
      "l1Fee": "0x0",
      "l1GasPrice": "0xb9a2f5f",
      "l1GasUsed": "0x927"
    },
    {
      "status": "0x1",
      "cumulativeGasUsed": "0x2b4f2b",
      "logs": [
        {
          "address": "0x62402b65bfb4fd022285a6fc2f26d8caeec3d055",
          "topics": [
            "0x429fa3f2cc8331e73fa6082c4dc1b89b5be0a13383f325d93cb26d83a47ea298",
            "0xe4d1a1bd71b2bfc91154d023711930004ce9aedb6c7740844575612231c75c66"
          ],
          "data": "0x00000000000000000000000000000000000000000000000000000000000000400000000000000000000000000000000000000000000000000000000069ccba800000000000000000000000000000000000000000000000000000000000000005302e312e30000000000000000000000000000000000000000000000000000000",
          "blockHash": "0xa6032284572b89a388180ba42996071012c837bfc59bb805475df8cb64166fbc",
          "blockNumber": "0x3c3322a",
          "blockTimestamp": "0x69ccba80",
          "transactionHash": "0xb1fa7a778c193b25a1e617c564e0e1e829a13a7b2e8526c1b4021b381689642b",
          "transactionIndex": "0xc",
          "logIndex": "0xea",
          "removed": false
        }
      ],
      "logsBloom": "0x00000000000000000000000000000000000000000000000000000000000000000000000000000000000000000000000000000000000000000000400000000000000000000000000000000000400000000000000000000000000000000000000000000004000000000000000000000000000000000000000000000000000000000000000000000000000000000000000000000000000000000000000000000000000000000000001000000000000000000000000000000000000000000000000000000000000000000000000000000000000000000080000000000000000000000000000000000000001800000000040000000000000000000000000000000004",
      "type": "0x2",
      "transactionHash": "0xb1fa7a778c193b25a1e617c564e0e1e829a13a7b2e8526c1b4021b381689642b",
      "transactionIndex": "0xc",
      "blockHash": "0xa6032284572b89a388180ba42996071012c837bfc59bb805475df8cb64166fbc",
      "blockNumber": "0x3c3322a",
      "gasUsed": "0x2f31d",
      "effectiveGasPrice": "0x6b747f843",
      "blobGasUsed": "0x99",
      "from": "0x19bd49ae6e4732c91d541f9bd486dc75e3888971",
      "to": "0x62402b65bfb4fd022285a6fc2f26d8caeec3d055",
      "contractAddress": null,
      "daFootprintGasScalar": "0x1",
      "l1BaseFeeScalar": "0x0",
      "l1BlobBaseFee": "0x94c914",
      "l1BlobBaseFeeScalar": "0x0",
      "l1Fee": "0x0",
      "l1GasPrice": "0xb9a2f5f",
      "l1GasUsed": "0x992"
    },
    {
      "status": "0x1",
      "cumulativeGasUsed": "0x2d9357",
      "logs": [
        {
          "address": "0x62402b65bfb4fd022285a6fc2f26d8caeec3d055",
          "topics": [
            "0x429fa3f2cc8331e73fa6082c4dc1b89b5be0a13383f325d93cb26d83a47ea298",
            "0x30b56e18703b19c89b2be522ec5466febb9dc5dda837e6b81b9d03629398f789"
          ],
          "data": "0x00000000000000000000000000000000000000000000000000000000000000400000000000000000000000000000000000000000000000000000000069ccba800000000000000000000000000000000000000000000000000000000000000005302e312e30000000000000000000000000000000000000000000000000000000",
          "blockHash": "0xa6032284572b89a388180ba42996071012c837bfc59bb805475df8cb64166fbc",
          "blockNumber": "0x3c3322a",
          "blockTimestamp": "0x69ccba80",
          "transactionHash": "0x95c5f47531ae3e82e3caf58b34a459196d0d3aeb16594fd3b152367f2e59fa33",
          "transactionIndex": "0xd",
          "logIndex": "0xeb",
          "removed": false
        }
      ],
      "logsBloom": "0x00000000000000000000000000000000000000000000000000000000000000000000000000000000000000000000000000000000000000000200000000000000000000000040000000000000400000000000000000000000000000000000000000000004000000000000000000000000000000000000000000000000000000008000000000000000000000000000000000000000000000000000000000000000000000000000001000000000000000000000000000000000000000000000000000000000000000000000000000000000000000000080000000000000000000000000000000000000000800000000040000000000000000000000000000000000",
      "type": "0x2",
      "transactionHash": "0x95c5f47531ae3e82e3caf58b34a459196d0d3aeb16594fd3b152367f2e59fa33",
      "transactionIndex": "0xd",
      "blockHash": "0xa6032284572b89a388180ba42996071012c837bfc59bb805475df8cb64166fbc",
      "blockNumber": "0x3c3322a",
      "gasUsed": "0x2442c",
      "effectiveGasPrice": "0x6b747f843",
      "blobGasUsed": "0x84",
      "from": "0x19bd49ae6e4732c91d541f9bd486dc75e3888971",
      "to": "0x62402b65bfb4fd022285a6fc2f26d8caeec3d055",
      "contractAddress": null,
      "daFootprintGasScalar": "0x1",
      "l1BaseFeeScalar": "0x0",
      "l1BlobBaseFee": "0x94c914",
      "l1BlobBaseFeeScalar": "0x0",
      "l1Fee": "0x0",
      "l1GasPrice": "0xb9a2f5f",
      "l1GasUsed": "0x843"
    },
    {
      "status": "0x1",
      "cumulativeGasUsed": "0x226873",
      "logs": [
        {
          "address": "0x62402b65bfb4fd022285a6fc2f26d8caeec3d055",
          "topics": [
            "0x429fa3f2cc8331e73fa6082c4dc1b89b5be0a13383f325d93cb26d83a47ea298",
            "0xab495269b15384453a70d18733c068e1f06d3438f3c13714010df06105446d2b"
          ],
          "data": "0x00000000000000000000000000000000000000000000000000000000000000400000000000000000000000000000000000000000000000000000000069ccba810000000000000000000000000000000000000000000000000000000000000005302e312e30000000000000000000000000000000000000000000000000000000",
          "blockHash": "0xff977da98a39406f76e54946605438c22a35b03ad02911c78ed5e937cbe6685d",
          "blockNumber": "0x3c3322b",
          "blockTimestamp": "0x69ccba81",
          "transactionHash": "0x033c5ed667950faf1c3d5f09078f64e008d7b2c206884c17d49ebc906f1ade84",
          "transactionIndex": "0xb",
          "logIndex": "0xdd",
          "removed": false
        }
      ],
      "logsBloom": "0x00000000000000000000000000000000000000000000000000000000000000000000000000000000000000000000000000000000000000000000000000000000000000000000000000000000400000000000000000000000000000000000000000000004000000000000000000000000000000000000000000000000000000000000000000000000000000000000000000000000000000000000000000000000000000000000001000000080000000000000000000000000000000000000000000000000000000000000000000000000000000000080000000000000000000000000000000000000000800008000040010000000000000000000000000000000",
      "type": "0x2",
      "transactionHash": "0x033c5ed667950faf1c3d5f09078f64e008d7b2c206884c17d49ebc906f1ade84",
      "transactionIndex": "0xb",
      "blockHash": "0xff977da98a39406f76e54946605438c22a35b03ad02911c78ed5e937cbe6685d",
      "blockNumber": "0x3c3322b",
      "gasUsed": "0x2f37d",
      "effectiveGasPrice": "0x6b5bdb3f4",
      "blobGasUsed": "0x9e",
      "from": "0x19bd49ae6e4732c91d541f9bd486dc75e3888971",
      "to": "0x62402b65bfb4fd022285a6fc2f26d8caeec3d055",
      "contractAddress": null,
      "daFootprintGasScalar": "0x1",
      "l1BaseFeeScalar": "0x0",
      "l1BlobBaseFee": "0x94c914",
      "l1BlobBaseFeeScalar": "0x0",
      "l1Fee": "0x0",
      "l1GasPrice": "0xb9a2f5f",
      "l1GasUsed": "0x9e2"
    },
    {
      "status": "0x1",
      "cumulativeGasUsed": "0x255b6c",
      "logs": [
        {
          "address": "0x62402b65bfb4fd022285a6fc2f26d8caeec3d055",
          "topics": [
            "0x429fa3f2cc8331e73fa6082c4dc1b89b5be0a13383f325d93cb26d83a47ea298",
            "0xbd4765ed446999b5b26f8f36ddaa5311e796448f4d43f193b29447ef5a9ac758"
          ],
          "data": "0x00000000000000000000000000000000000000000000000000000000000000400000000000000000000000000000000000000000000000000000000069ccba810000000000000000000000000000000000000000000000000000000000000005302e312e30000000000000000000000000000000000000000000000000000000",
          "blockHash": "0xff977da98a39406f76e54946605438c22a35b03ad02911c78ed5e937cbe6685d",
          "blockNumber": "0x3c3322b",
          "blockTimestamp": "0x69ccba81",
          "transactionHash": "0x12fef7c44ce9e25cd147d0923c0d8ce24fa94686482fb2823715fc80e6fa4a99",
          "transactionIndex": "0xc",
          "logIndex": "0xde",
          "removed": false
        }
      ],
      "logsBloom": "0x00000000000000000000000000000000000000000000000000000000000000000000000000000000000000000000000000000000000000000080000000000000000000000000000000000000400000000000000000000000000000000000000000000004000000000000000000000000000000000000000000000000000000000000000000000000000000000000000000000000000000000000000000000000000000000100001000000000000000000000000000000000000000000000000000000000000000000000000000000000000000000080000000000000000000000000000000000000000800020000040000000000000000000000000000000000",
      "type": "0x2",
      "transactionHash": "0x12fef7c44ce9e25cd147d0923c0d8ce24fa94686482fb2823715fc80e6fa4a99",
      "transactionIndex": "0xc",
      "blockHash": "0xff977da98a39406f76e54946605438c22a35b03ad02911c78ed5e937cbe6685d",
      "blockNumber": "0x3c3322b",
      "gasUsed": "0x2f2f9",
      "effectiveGasPrice": "0x6b5bdb3f4",
      "blobGasUsed": "0x94",
      "from": "0x19bd49ae6e4732c91d541f9bd486dc75e3888971",
      "to": "0x62402b65bfb4fd022285a6fc2f26d8caeec3d055",
      "contractAddress": null,
      "daFootprintGasScalar": "0x1",
      "l1BaseFeeScalar": "0x0",
      "l1BlobBaseFee": "0x94c914",
      "l1BlobBaseFeeScalar": "0x0",
      "l1Fee": "0x0",
      "l1GasPrice": "0xb9a2f5f",
      "l1GasUsed": "0x942"
    },
    {
      "status": "0x1",
      "cumulativeGasUsed": "0x284ec5",
      "logs": [
        {
          "address": "0x62402b65bfb4fd022285a6fc2f26d8caeec3d055",
          "topics": [
            "0x429fa3f2cc8331e73fa6082c4dc1b89b5be0a13383f325d93cb26d83a47ea298",
            "0x15793420384abe2cf78fbcad3f4411599f3143662a08ecd9ad056ddbac357b62"
          ],
          "data": "0x00000000000000000000000000000000000000000000000000000000000000400000000000000000000000000000000000000000000000000000000069ccba810000000000000000000000000000000000000000000000000000000000000005302e312e30000000000000000000000000000000000000000000000000000000",
          "blockHash": "0xff977da98a39406f76e54946605438c22a35b03ad02911c78ed5e937cbe6685d",
          "blockNumber": "0x3c3322b",
          "blockTimestamp": "0x69ccba81",
          "transactionHash": "0xcae6c1231d541b69ccf99a4ff1c6a117b246855c0eb8fc7e762e18450e30e7e9",
          "transactionIndex": "0xd",
          "logIndex": "0xdf",
          "removed": false
        }
      ],
      "logsBloom": "0x00000000000000000000000000000000000000000000000000000000000000000000000000000000000000000000000000000000000000000000000000000000000000000000000000000000400000000000000000000000000000000000000000000004000000000010000000000000000000000000000000000000000000000000000000000000000000000000000000000000000000000000000000000000000000000000001000000000000000000000000000000000000000000000000000004000000000000000000000000000000000000080000000000000000000000000000000000000000800000000040000000000000000000000000000000040",
      "type": "0x2",
      "transactionHash": "0xcae6c1231d541b69ccf99a4ff1c6a117b246855c0eb8fc7e762e18450e30e7e9",
      "transactionIndex": "0xd",
      "blockHash": "0xff977da98a39406f76e54946605438c22a35b03ad02911c78ed5e937cbe6685d",
      "blockNumber": "0x3c3322b",
      "gasUsed": "0x2f359",
      "effectiveGasPrice": "0x6b5bdb3f4",
      "blobGasUsed": "0x99",
      "from": "0x19bd49ae6e4732c91d541f9bd486dc75e3888971",
      "to": "0x62402b65bfb4fd022285a6fc2f26d8caeec3d055",
      "contractAddress": null,
      "daFootprintGasScalar": "0x1",
      "l1BaseFeeScalar": "0x0",
      "l1BlobBaseFee": "0x94c914",
      "l1BlobBaseFeeScalar": "0x0",
      "l1Fee": "0x0",
      "l1GasPrice": "0xb9a2f5f",
      "l1GasUsed": "0x99f"
    },
    {
      "status": "0x1",
      "cumulativeGasUsed": "0x2b4266",
      "logs": [
        {
          "address": "0x62402b65bfb4fd022285a6fc2f26d8caeec3d055",
          "topics": [
            "0x429fa3f2cc8331e73fa6082c4dc1b89b5be0a13383f325d93cb26d83a47ea298",
            "0xb806d0bdb0a0672861e444d04f3a27cde645f1f6233ec1f4bef188af63552a72"
          ],
          "data": "0x00000000000000000000000000000000000000000000000000000000000000400000000000000000000000000000000000000000000000000000000069ccba810000000000000000000000000000000000000000000000000000000000000005302e312e30000000000000000000000000000000000000000000000000000000",
          "blockHash": "0xff977da98a39406f76e54946605438c22a35b03ad02911c78ed5e937cbe6685d",
          "blockNumber": "0x3c3322b",
          "blockTimestamp": "0x69ccba81",
          "transactionHash": "0xe2e5e15654ff10f1a07ddcb252d1cc7c22f8aa06252fe847b3e91ed1ea6410d4",
          "transactionIndex": "0xe",
          "logIndex": "0xe0",
          "removed": false
        }
      ],
      "logsBloom": "0x00000000000000000000000000000000000000000000000000000000000000000000000000000000000000000000000000000000000000000000000000000000000000000000000000000000400000000000000000000000000000000000000000000004000000000000000000000000000000000000000000000000000000000000000000000000000000000000000000000000000000000000000000000000000000000000001000000000000000000000000000000000000000000000000000000000000000000000000000000000400000000080000000000000000000000000000001000000000800000000040000000000000010000000000000000000",
      "type": "0x2",
      "transactionHash": "0xe2e5e15654ff10f1a07ddcb252d1cc7c22f8aa06252fe847b3e91ed1ea6410d4",
      "transactionIndex": "0xe",
      "blockHash": "0xff977da98a39406f76e54946605438c22a35b03ad02911c78ed5e937cbe6685d",
      "blockNumber": "0x3c3322b",
      "gasUsed": "0x2f3a1",
      "effectiveGasPrice": "0x6b5bdb3f4",
      "blobGasUsed": "0x9f",
      "from": "0x19bd49ae6e4732c91d541f9bd486dc75e3888971",
      "to": "0x62402b65bfb4fd022285a6fc2f26d8caeec3d055",
      "contractAddress": null,
      "daFootprintGasScalar": "0x1",
      "l1BaseFeeScalar": "0x0",
      "l1BlobBaseFee": "0x94c914",
      "l1BlobBaseFeeScalar": "0x0",
      "l1Fee": "0x0",
      "l1GasPrice": "0xb9a2f5f",
      "l1GasUsed": "0x9f0"
    },
    {
      "status": "0x1",
      "cumulativeGasUsed": "0x2e34db",
      "logs": [
        {
          "address": "0x62402b65bfb4fd022285a6fc2f26d8caeec3d055",
          "topics": [
            "0x429fa3f2cc8331e73fa6082c4dc1b89b5be0a13383f325d93cb26d83a47ea298",
            "0xf09d13beb90c473ac4de7fcc4e5ed2e8d3d1cd681ef7776e04bbfb1ddef7dec7"
          ],
          "data": "0x00000000000000000000000000000000000000000000000000000000000000400000000000000000000000000000000000000000000000000000000069ccba810000000000000000000000000000000000000000000000000000000000000005302e312e30000000000000000000000000000000000000000000000000000000",
          "blockHash": "0xff977da98a39406f76e54946605438c22a35b03ad02911c78ed5e937cbe6685d",
          "blockNumber": "0x3c3322b",
          "blockTimestamp": "0x69ccba81",
          "transactionHash": "0xa3c30d30302c57b6f10a3d6cd14a727ac8f4b17c5538009bb8bcf091fad14eb0",
          "transactionIndex": "0xf",
          "logIndex": "0xe1",
          "removed": false
        }
      ],
      "logsBloom": "0x00000000000000000000000000000000000000000000000000000000000000000000000000000000000000000000000000000000000000000000000000000000000000000000000000000000400000000000000000000000000000000000000000000004000000000000000000000000000000000000000000000000000000001000000000000000000000000000000000000000000000000000000000000000000000000000001000000000000400000000000000000000000000000000000000000000000000000000001000000000000000000080000000000000000000000000000000000000000800000000040000000000000000000000000000000000",
      "type": "0x2",
      "transactionHash": "0xa3c30d30302c57b6f10a3d6cd14a727ac8f4b17c5538009bb8bcf091fad14eb0",
      "transactionIndex": "0xf",
      "blockHash": "0xff977da98a39406f76e54946605438c22a35b03ad02911c78ed5e937cbe6685d",
      "blockNumber": "0x3c3322b",
      "gasUsed": "0x2f275",
      "effectiveGasPrice": "0x6b5bdb3f4",
      "blobGasUsed": "0x90",
      "from": "0x19bd49ae6e4732c91d541f9bd486dc75e3888971",
      "to": "0x62402b65bfb4fd022285a6fc2f26d8caeec3d055",
      "contractAddress": null,
      "daFootprintGasScalar": "0x1",
      "l1BaseFeeScalar": "0x0",
      "l1BlobBaseFee": "0x94c914",
      "l1BlobBaseFeeScalar": "0x0",
      "l1Fee": "0x0",
      "l1GasPrice": "0xb9a2f5f",
      "l1GasUsed": "0x90c"
    },
    {
      "status": "0x1",
      "cumulativeGasUsed": "0x312780",
      "logs": [
        {
          "address": "0x62402b65bfb4fd022285a6fc2f26d8caeec3d055",
          "topics": [
            "0x429fa3f2cc8331e73fa6082c4dc1b89b5be0a13383f325d93cb26d83a47ea298",
            "0xa3c6fbce4e2f5aa7edb0380e37459f0f1c931572791fc1696a17dedb186fd193"
          ],
          "data": "0x00000000000000000000000000000000000000000000000000000000000000400000000000000000000000000000000000000000000000000000000069ccba810000000000000000000000000000000000000000000000000000000000000005302e312e30000000000000000000000000000000000000000000000000000000",
          "blockHash": "0xff977da98a39406f76e54946605438c22a35b03ad02911c78ed5e937cbe6685d",
          "blockNumber": "0x3c3322b",
          "blockTimestamp": "0x69ccba81",
          "transactionHash": "0x64b5618312c66b6f3c1cb9edb859d434fa6bd4af5b11dba9aa7399f0f04cf456",
          "transactionIndex": "0x10",
          "logIndex": "0xe2",
          "removed": false
        }
      ],
      "logsBloom": "0x00000000000000000000000000000000000000000000000000000000000000000000000000000000000000000000000000000000000000000000000000000000000000000000000000000000400100000000000000000000000000000000000000000004000000000000000000000000000000000000000000000000020000000000000000000000000000000000000000000000000000000000000000000000000400000000001000000000000000000000000000000000000000000000000000000000000000000000000000000000000000000080000000000000000000000000000000000000000800000000040000000000000000000000000000000000",
      "type": "0x2",
      "transactionHash": "0x64b5618312c66b6f3c1cb9edb859d434fa6bd4af5b11dba9aa7399f0f04cf456",
      "transactionIndex": "0x10",
      "blockHash": "0xff977da98a39406f76e54946605438c22a35b03ad02911c78ed5e937cbe6685d",
      "blockNumber": "0x3c3322b",
      "gasUsed": "0x2f2a5",
      "effectiveGasPrice": "0x6b5bdb3f4",
      "blobGasUsed": "0x94",
      "from": "0x19bd49ae6e4732c91d541f9bd486dc75e3888971",
      "to": "0x62402b65bfb4fd022285a6fc2f26d8caeec3d055",
      "contractAddress": null,
      "daFootprintGasScalar": "0x1",
      "l1BaseFeeScalar": "0x0",
      "l1BlobBaseFee": "0x94c914",
      "l1BlobBaseFeeScalar": "0x0",
      "l1Fee": "0x0",
      "l1GasPrice": "0xb9a2f5f",
      "l1GasUsed": "0x94f"
    },
    {
      "status": "0x1",
      "cumulativeGasUsed": "0x341a61",
      "logs": [
        {
          "address": "0x62402b65bfb4fd022285a6fc2f26d8caeec3d055",
          "topics": [
            "0x429fa3f2cc8331e73fa6082c4dc1b89b5be0a13383f325d93cb26d83a47ea298",
            "0x589332b82a92616b9aad3a60c38a8e3167a7ab159521ff0084f5580a39f65776"
          ],
          "data": "0x00000000000000000000000000000000000000000000000000000000000000400000000000000000000000000000000000000000000000000000000069ccba810000000000000000000000000000000000000000000000000000000000000005302e312e30000000000000000000000000000000000000000000000000000000",
          "blockHash": "0xff977da98a39406f76e54946605438c22a35b03ad02911c78ed5e937cbe6685d",
          "blockNumber": "0x3c3322b",
          "blockTimestamp": "0x69ccba81",
          "transactionHash": "0xb08cd48ecfdebd148232e3b0ae1d0e941a76c3745c4778975e49e65f650cce3e",
          "transactionIndex": "0x11",
          "logIndex": "0xe3",
          "removed": false
        }
      ],
      "logsBloom": "0x00000000000000000000000000000000000000000000000000000000000000000000000000000000000000000000000000000000000000000000000000000000000000000020000000000000400000000000000000000008000000000000000000000004000000000000000000000000000000000000000000000000000000000002000000000000000000000000000000000000000000000000000000000000000000000000001000000000000000000000000000000000000000000000000000000000000000000000000000000000000000000080000000000000000000000000000000000000000800000000040000000000000000000000000000000000",
      "type": "0x2",
      "transactionHash": "0xb08cd48ecfdebd148232e3b0ae1d0e941a76c3745c4778975e49e65f650cce3e",
      "transactionIndex": "0x11",
      "blockHash": "0xff977da98a39406f76e54946605438c22a35b03ad02911c78ed5e937cbe6685d",
      "blockNumber": "0x3c3322b",
      "gasUsed": "0x2f2e1",
      "effectiveGasPrice": "0x6b5bdb3f4",
      "blobGasUsed": "0x98",
      "from": "0x19bd49ae6e4732c91d541f9bd486dc75e3888971",
      "to": "0x62402b65bfb4fd022285a6fc2f26d8caeec3d055",
      "contractAddress": null,
      "daFootprintGasScalar": "0x1",
      "l1BaseFeeScalar": "0x0",
      "l1BlobBaseFee": "0x94c914",
      "l1BlobBaseFeeScalar": "0x0",
      "l1Fee": "0x0",
      "l1GasPrice": "0xb9a2f5f",
      "l1GasUsed": "0x985"
    },
    {
      "status": "0x1",
      "cumulativeGasUsed": "0x370d72",
      "logs": [
        {
          "address": "0x62402b65bfb4fd022285a6fc2f26d8caeec3d055",
          "topics": [
            "0x429fa3f2cc8331e73fa6082c4dc1b89b5be0a13383f325d93cb26d83a47ea298",
            "0xae5dd132b37c065cfb0d754e8d4402c44359fd18c817b808e7d111f4187464ab"
          ],
          "data": "0x00000000000000000000000000000000000000000000000000000000000000400000000000000000000000000000000000000000000000000000000069ccba810000000000000000000000000000000000000000000000000000000000000005302e312e30000000000000000000000000000000000000000000000000000000",
          "blockHash": "0xff977da98a39406f76e54946605438c22a35b03ad02911c78ed5e937cbe6685d",
          "blockNumber": "0x3c3322b",
          "blockTimestamp": "0x69ccba81",
          "transactionHash": "0xc7feeac32faeeb1bc7e9146017daf8399ba14c8234c87817d207d4a79e9e251c",
          "transactionIndex": "0x12",
          "logIndex": "0xe4",
          "removed": false
        }
      ],
      "logsBloom": "0x00000000040040000000000000000000000000000000000000000000000000000000000000000000000000000000000000000000000000000000000000000000000000000000000000000000400000000000000000000000000000000000000000000004000000000000000000000000000000000000000000000000000000000000000000000000000000000000000000000040000000000000000000000000000000000000001000000000000000000000000000000000000000000000000000000000000000000000000000000000000000000080000000000000000000000000000000000000000800000000040000000000000000000000000000000000",
      "type": "0x2",
      "transactionHash": "0xc7feeac32faeeb1bc7e9146017daf8399ba14c8234c87817d207d4a79e9e251c",
      "transactionIndex": "0x12",
      "blockHash": "0xff977da98a39406f76e54946605438c22a35b03ad02911c78ed5e937cbe6685d",
      "blockNumber": "0x3c3322b",
      "gasUsed": "0x2f311",
      "effectiveGasPrice": "0x6b5bdb3f4",
      "blobGasUsed": "0x9a",
      "from": "0x19bd49ae6e4732c91d541f9bd486dc75e3888971",
      "to": "0x62402b65bfb4fd022285a6fc2f26d8caeec3d055",
      "contractAddress": null,
      "daFootprintGasScalar": "0x1",
      "l1BaseFeeScalar": "0x0",
      "l1BlobBaseFee": "0x94c914",
      "l1BlobBaseFeeScalar": "0x0",
      "l1Fee": "0x0",
      "l1GasPrice": "0xb9a2f5f",
      "l1GasUsed": "0x9ad"
    },
    {
      "status": "0x1",
      "cumulativeGasUsed": "0x40c56c",
      "logs": [
        {
          "address": "0x62402b65bfb4fd022285a6fc2f26d8caeec3d055",
          "topics": [
            "0x429fa3f2cc8331e73fa6082c4dc1b89b5be0a13383f325d93cb26d83a47ea298",
            "0xe7ab371192efc8b046f516b43bdcb7953f6872b926da5ce541a2a6b572d9ae8b"
          ],
          "data": "0x00000000000000000000000000000000000000000000000000000000000000400000000000000000000000000000000000000000000000000000000069ccba820000000000000000000000000000000000000000000000000000000000000005302e312e30000000000000000000000000000000000000000000000000000000",
          "blockHash": "0x86cf9a3d73a021199550eaaf1f05c1a86c250afe6d078b94ca2a710cc9b29d7d",
          "blockNumber": "0x3c3322c",
          "blockTimestamp": "0x69ccba82",
          "transactionHash": "0x2591d83098870c4810e3eac27eb96502e282a4d106d5578e851139130fdd989e",
          "transactionIndex": "0xd",
          "logIndex": "0xe4",
          "removed": false
        }
      ],
      "logsBloom": "0x00000000000000000000000000000000000000000000000000000000000000000000000000000000000000000000000000000000000000000000000000000000000000000000000000000000400000000000000000000000000000000000000000000004000000000000000000000000000000000000000000000000000000000000000000000000000000000000000000000000000000000000040000000000000000000400001000000000000000000000000000000000000000000000000000000000000000000000000000000000000000000080000000000000000000004000000000000000000800000000040000000000000000000000000000000000",
      "type": "0x2",
      "transactionHash": "0x2591d83098870c4810e3eac27eb96502e282a4d106d5578e851139130fdd989e",
      "transactionIndex": "0xd",
      "blockHash": "0x86cf9a3d73a021199550eaaf1f05c1a86c250afe6d078b94ca2a710cc9b29d7d",
      "blockNumber": "0x3c3322c",
      "gasUsed": "0x2f221",
      "effectiveGasPrice": "0x6b591f030",
      "blobGasUsed": "0x8b",
      "from": "0x19bd49ae6e4732c91d541f9bd486dc75e3888971",
      "to": "0x62402b65bfb4fd022285a6fc2f26d8caeec3d055",
      "contractAddress": null,
      "daFootprintGasScalar": "0x1",
      "l1BaseFeeScalar": "0x0",
      "l1BlobBaseFee": "0x94c914",
      "l1BlobBaseFeeScalar": "0x0",
      "l1Fee": "0x0",
      "l1GasPrice": "0xb9a2f5f",
      "l1GasUsed": "0x8bc"
    },
    {
      "status": "0x1",
      "cumulativeGasUsed": "0x43b90d",
      "logs": [
        {
          "address": "0x62402b65bfb4fd022285a6fc2f26d8caeec3d055",
          "topics": [
            "0x429fa3f2cc8331e73fa6082c4dc1b89b5be0a13383f325d93cb26d83a47ea298",
            "0xef2b59eda577eacecf015647c5ef49c23cfc5cabf07b015f12dbd496cb79ba49"
          ],
          "data": "0x00000000000000000000000000000000000000000000000000000000000000400000000000000000000000000000000000000000000000000000000069ccba820000000000000000000000000000000000000000000000000000000000000005302e312e30000000000000000000000000000000000000000000000000000000",
          "blockHash": "0x86cf9a3d73a021199550eaaf1f05c1a86c250afe6d078b94ca2a710cc9b29d7d",
          "blockNumber": "0x3c3322c",
          "blockTimestamp": "0x69ccba82",
          "transactionHash": "0x49f0be2bd19828c829c64676fd8031c73c5dccd460ff04a13eb42c4d130b53e8",
          "transactionIndex": "0xe",
          "logIndex": "0xe5",
          "removed": false
        }
      ],
      "logsBloom": "0x00000000000000000000000000000000000000000000000000000000000000000000000000000000000000000000000000000000000000000000000000000000000000000000000000000000400000000000000000000000000000000000000000000004000000000000000000000000000000000000000000000000000000000000000000000000000000000800000000000000000000000000000000000000000000000000001000000000000000000000000000000000000000000000000000000000000000000000000000000000000000000080000000000000000000000000000000000000000800000000040000002000000000000000001000000000",
      "type": "0x2",
      "transactionHash": "0x49f0be2bd19828c829c64676fd8031c73c5dccd460ff04a13eb42c4d130b53e8",
      "transactionIndex": "0xe",
      "blockHash": "0x86cf9a3d73a021199550eaaf1f05c1a86c250afe6d078b94ca2a710cc9b29d7d",
      "blockNumber": "0x3c3322c",
      "gasUsed": "0x2f3a1",
      "effectiveGasPrice": "0x6b591f030",
      "blobGasUsed": "0x9c",
      "from": "0x19bd49ae6e4732c91d541f9bd486dc75e3888971",
      "to": "0x62402b65bfb4fd022285a6fc2f26d8caeec3d055",
      "contractAddress": null,
      "daFootprintGasScalar": "0x1",
      "l1BaseFeeScalar": "0x0",
      "l1BlobBaseFee": "0x94c914",
      "l1BlobBaseFeeScalar": "0x0",
      "l1Fee": "0x0",
      "l1GasPrice": "0xb9a2f5f",
      "l1GasUsed": "0x9c8"
    },
    {
      "status": "0x1",
      "cumulativeGasUsed": "0x46abca",
      "logs": [
        {
          "address": "0x62402b65bfb4fd022285a6fc2f26d8caeec3d055",
          "topics": [
            "0x429fa3f2cc8331e73fa6082c4dc1b89b5be0a13383f325d93cb26d83a47ea298",
            "0x96724e880688e064ea399e6f428c8885451ba62ba691b7fd524ae64b0cf916f8"
          ],
          "data": "0x00000000000000000000000000000000000000000000000000000000000000400000000000000000000000000000000000000000000000000000000069ccba820000000000000000000000000000000000000000000000000000000000000005302e312e30000000000000000000000000000000000000000000000000000000",
          "blockHash": "0x86cf9a3d73a021199550eaaf1f05c1a86c250afe6d078b94ca2a710cc9b29d7d",
          "blockNumber": "0x3c3322c",
          "blockTimestamp": "0x69ccba82",
          "transactionHash": "0x1c2fad5e5c1070fbe086389f1f2ab07df90162ed949e998c5b71efd859e5d56f",
          "transactionIndex": "0xf",
          "logIndex": "0xe6",
          "removed": false
        }
      ],
      "logsBloom": "0x00000000000000000000000000000000002000000000000000000000000000000000000000000000000000000000000000000000000000000000000000000000000000000000000000000000400000000000000000000000000000000000000000000004000000000000000000000000000000000000000000000000000000000000000000000000000000000000000000000000000000000000000000000000000000000000001000000000000000000000000000000000000000000000000000000000000000000001000000000000000000000180000000000000000000000000000000000000000800000000040000000000000000000000000000000000",
      "type": "0x2",
      "transactionHash": "0x1c2fad5e5c1070fbe086389f1f2ab07df90162ed949e998c5b71efd859e5d56f",
      "transactionIndex": "0xf",
      "blockHash": "0x86cf9a3d73a021199550eaaf1f05c1a86c250afe6d078b94ca2a710cc9b29d7d",
      "blockNumber": "0x3c3322c",
      "gasUsed": "0x2f2bd",
      "effectiveGasPrice": "0x6b591f030",
      "blobGasUsed": "0x91",
      "from": "0x19bd49ae6e4732c91d541f9bd486dc75e3888971",
      "to": "0x62402b65bfb4fd022285a6fc2f26d8caeec3d055",
      "contractAddress": null,
      "daFootprintGasScalar": "0x1",
      "l1BaseFeeScalar": "0x0",
      "l1BlobBaseFee": "0x94c914",
      "l1BlobBaseFeeScalar": "0x0",
      "l1Fee": "0x0",
      "l1GasPrice": "0xb9a2f5f",
      "l1GasUsed": "0x91a"
    },
    {
      "status": "0x1",
      "cumulativeGasUsed": "0x4f7c05",
      "logs": [
        {
          "address": "0x62402b65bfb4fd022285a6fc2f26d8caeec3d055",
          "topics": [
            "0x429fa3f2cc8331e73fa6082c4dc1b89b5be0a13383f325d93cb26d83a47ea298",
            "0xf18e986e3243c2c239a5c2485ba67e0873e9d3e9baf7db23f04f501e0fbad7da"
          ],
          "data": "0x00000000000000000000000000000000000000000000000000000000000000400000000000000000000000000000000000000000000000000000000069ccba820000000000000000000000000000000000000000000000000000000000000005302e312e30000000000000000000000000000000000000000000000000000000",
          "blockHash": "0x86cf9a3d73a021199550eaaf1f05c1a86c250afe6d078b94ca2a710cc9b29d7d",
          "blockNumber": "0x3c3322c",
          "blockTimestamp": "0x69ccba82",
          "transactionHash": "0x1adbc9f1ace3428d19ca4be912e465aafd9b0a72ac3ef9d1576208f4a729e94d",
          "transactionIndex": "0x12",
          "logIndex": "0xf5",
          "removed": false
        }
      ],
      "logsBloom": "0x00000000000000000000000000000000000000000000000000000000000000000000000002000000000000000000000000000000000000000000000000000000000000000000000000000000400000000000000000000000000000000000000000000004000000000000000000000000000000000000000000000000000000000000000000000000000000000000000000000000000000000000000000000000000000000000001000000000000000000000000000001000000000000000000000000000000000000000000000000000000000000080000000000000000000000000000000000000000800000000040400000000000000000000000000000000",
      "type": "0x2",
      "transactionHash": "0x1adbc9f1ace3428d19ca4be912e465aafd9b0a72ac3ef9d1576208f4a729e94d",
      "transactionIndex": "0x12",
      "blockHash": "0x86cf9a3d73a021199550eaaf1f05c1a86c250afe6d078b94ca2a710cc9b29d7d",
      "blockNumber": "0x3c3322c",
      "gasUsed": "0x2f281",
      "effectiveGasPrice": "0x6b591f030",
      "blobGasUsed": "0x90",
      "from": "0x19bd49ae6e4732c91d541f9bd486dc75e3888971",
      "to": "0x62402b65bfb4fd022285a6fc2f26d8caeec3d055",
      "contractAddress": null,
      "daFootprintGasScalar": "0x1",
      "l1BaseFeeScalar": "0x0",
      "l1BlobBaseFee": "0x94c914",
      "l1BlobBaseFeeScalar": "0x0",
      "l1Fee": "0x0",
      "l1GasPrice": "0xb9a2f5f",
      "l1GasUsed": "0x90c"
    },
    {
      "status": "0x1",
      "cumulativeGasUsed": "0x526e86",
      "logs": [
        {
          "address": "0x62402b65bfb4fd022285a6fc2f26d8caeec3d055",
          "topics": [
            "0x429fa3f2cc8331e73fa6082c4dc1b89b5be0a13383f325d93cb26d83a47ea298",
            "0x2b556d406a05655564d3148a21eb8b06a69ca0beb352b3089e523f9093128aa5"
          ],
          "data": "0x00000000000000000000000000000000000000000000000000000000000000400000000000000000000000000000000000000000000000000000000069ccba820000000000000000000000000000000000000000000000000000000000000005302e312e30000000000000000000000000000000000000000000000000000000",
          "blockHash": "0x86cf9a3d73a021199550eaaf1f05c1a86c250afe6d078b94ca2a710cc9b29d7d",
          "blockNumber": "0x3c3322c",
          "blockTimestamp": "0x69ccba82",
          "transactionHash": "0x8b4f68ece78d15b7a80e4745db8b7a47462adeac8d2a133a814d38d215c7834c",
          "transactionIndex": "0x13",
          "logIndex": "0xf6",
          "removed": false
        }
      ],
      "logsBloom": "0x00000000000000000000000000000000000000000000000000000000000000000000000000000000000000000000000000000000000000000000000000000000000000000000000000000000400000000000000000000000000000000000000000000004000000000000000000000000000000000000000000000000000000000000000000000000000000000000000000000000000000000000000000000000000000000000001000000000008000000000000000000000000000000000002004000000000000000000000000000000000000000080000000000000000000000000000000000000000800000000040000000000000000000000000000000000",
      "type": "0x2",
      "transactionHash": "0x8b4f68ece78d15b7a80e4745db8b7a47462adeac8d2a133a814d38d215c7834c",
      "transactionIndex": "0x13",
      "blockHash": "0x86cf9a3d73a021199550eaaf1f05c1a86c250afe6d078b94ca2a710cc9b29d7d",
      "blockNumber": "0x3c3322c",
      "gasUsed": "0x2f281",
      "effectiveGasPrice": "0x6b591f030",
      "blobGasUsed": "0x90",
      "from": "0x19bd49ae6e4732c91d541f9bd486dc75e3888971",
      "to": "0x62402b65bfb4fd022285a6fc2f26d8caeec3d055",
      "contractAddress": null,
      "daFootprintGasScalar": "0x1",
      "l1BaseFeeScalar": "0x0",
      "l1BlobBaseFee": "0x94c914",
      "l1BlobBaseFeeScalar": "0x0",
      "l1Fee": "0x0",
      "l1GasPrice": "0xb9a2f5f",
      "l1GasUsed": "0x90c"
    },
    {
      "status": "0x1",
      "cumulativeGasUsed": "0xe81d8",
      "logs": [
        {
          "address": "0x62402b65bfb4fd022285a6fc2f26d8caeec3d055",
          "topics": [
            "0x429fa3f2cc8331e73fa6082c4dc1b89b5be0a13383f325d93cb26d83a47ea298",
            "0x792a5597def2a96444b65e08d6457769e0fad3270332c0b79ab95154f170c946"
          ],
          "data": "0x00000000000000000000000000000000000000000000000000000000000000400000000000000000000000000000000000000000000000000000000069ccba830000000000000000000000000000000000000000000000000000000000000005302e312e30000000000000000000000000000000000000000000000000000000",
          "blockHash": "0x31ba98239208cfcc854e189b45c0d27c2aced85a10f804b21efcdd773a94e1ff",
          "blockNumber": "0x3c3322d",
          "blockTimestamp": "0x69ccba83",
          "transactionHash": "0x673c2d27d8d463b92f5cea35b9aad390ed56b76fa7f92e448f84cdc7ee96920b",
          "transactionIndex": "0x7",
          "logIndex": "0x16",
          "removed": false
        }
      ],
      "logsBloom": "0x00000000000000000000000000000000000000000000000000000000000000000000000000000000000000000000000000000000000000000000000000000000000000000000000000000000400000000000000000000000000000000000000000000004000000000000000000000000000000000000000000000000000000000000000000000000000000000000000000000000000000000000000000000000000000200000001000000000000000000000000000000400000000000000000000000000000000000000000000000000000000000080002000000000000000000000000000000000000800000000040000000000000000000000000000000000",
      "type": "0x2",
      "transactionHash": "0x673c2d27d8d463b92f5cea35b9aad390ed56b76fa7f92e448f84cdc7ee96920b",
      "transactionIndex": "0x7",
      "blockHash": "0x31ba98239208cfcc854e189b45c0d27c2aced85a10f804b21efcdd773a94e1ff",
      "blockNumber": "0x3c3322d",
      "gasUsed": "0x2f2a5",
      "effectiveGasPrice": "0x6b68c1546",
      "blobGasUsed": "0x94",
      "from": "0x19bd49ae6e4732c91d541f9bd486dc75e3888971",
      "to": "0x62402b65bfb4fd022285a6fc2f26d8caeec3d055",
      "contractAddress": null,
      "daFootprintGasScalar": "0x1",
      "l1BaseFeeScalar": "0x0",
      "l1BlobBaseFee": "0x94c914",
      "l1BlobBaseFeeScalar": "0x0",
      "l1Fee": "0x0",
      "l1GasPrice": "0xb9a2f5f",
      "l1GasUsed": "0x942"
    },
    {
      "status": "0x1",
      "cumulativeGasUsed": "0x117525",
      "logs": [
        {
          "address": "0x62402b65bfb4fd022285a6fc2f26d8caeec3d055",
          "topics": [
            "0x429fa3f2cc8331e73fa6082c4dc1b89b5be0a13383f325d93cb26d83a47ea298",
            "0xbf2b734602ecc889eb9f919a9f12bb234bab70b209e313375e6d26ecc5507cfd"
          ],
          "data": "0x00000000000000000000000000000000000000000000000000000000000000400000000000000000000000000000000000000000000000000000000069ccba830000000000000000000000000000000000000000000000000000000000000005302e312e30000000000000000000000000000000000000000000000000000000",
          "blockHash": "0x31ba98239208cfcc854e189b45c0d27c2aced85a10f804b21efcdd773a94e1ff",
          "blockNumber": "0x3c3322d",
          "blockTimestamp": "0x69ccba83",
          "transactionHash": "0x455968c98618fe9887b516546dbfe5afe0a15146e5f4393296411fc9e718f15a",
          "transactionIndex": "0x8",
          "logIndex": "0x17",
          "removed": false
        }
      ],
      "logsBloom": "0x00000000000000000000008000000000000000000000000000000000000000000000000000000000000000000000000000000000000000000000000000000000000000000000000000000000400000000001000000000000000000000000000000000004000000000000000000000000000000000000000000000000000000000000000000000000000000000000000000000000000000000000000000000000000000000000001000000000000000000000000000000000000000000000000000000000000000000000000000000000000000000080000000000000000000000000000000000000000800000000040000000000000010000000000000000000",
      "type": "0x2",
      "transactionHash": "0x455968c98618fe9887b516546dbfe5afe0a15146e5f4393296411fc9e718f15a",
      "transactionIndex": "0x8",
      "blockHash": "0x31ba98239208cfcc854e189b45c0d27c2aced85a10f804b21efcdd773a94e1ff",
      "blockNumber": "0x3c3322d",
      "gasUsed": "0x2f34d",
      "effectiveGasPrice": "0x6b68c1546",
      "blobGasUsed": "0x9f",
      "from": "0x19bd49ae6e4732c91d541f9bd486dc75e3888971",
      "to": "0x62402b65bfb4fd022285a6fc2f26d8caeec3d055",
      "contractAddress": null,
      "daFootprintGasScalar": "0x1",
      "l1BaseFeeScalar": "0x0",
      "l1BlobBaseFee": "0x94c914",
      "l1BlobBaseFeeScalar": "0x0",
      "l1Fee": "0x0",
      "l1GasPrice": "0xb9a2f5f",
      "l1GasUsed": "0x9f0"
    },
    {
      "status": "0x1",
      "cumulativeGasUsed": "0x1468ba",
      "logs": [
        {
          "address": "0x62402b65bfb4fd022285a6fc2f26d8caeec3d055",
          "topics": [
            "0x429fa3f2cc8331e73fa6082c4dc1b89b5be0a13383f325d93cb26d83a47ea298",
            "0xd1bdb3bbb76a13c06502e2541f85ddbd2aaf9d970c283d27152ce7bbf7305220"
          ],
          "data": "0x00000000000000000000000000000000000000000000000000000000000000400000000000000000000000000000000000000000000000000000000069ccba830000000000000000000000000000000000000000000000000000000000000005302e312e30000000000000000000000000000000000000000000000000000000",
          "blockHash": "0x31ba98239208cfcc854e189b45c0d27c2aced85a10f804b21efcdd773a94e1ff",
          "blockNumber": "0x3c3322d",
          "blockTimestamp": "0x69ccba83",
          "transactionHash": "0xeaa2b49d9fd1f9eb563a2d71aa36ecf6abf3fb5a0998bfa3ebf61b0eab0cc074",
          "transactionIndex": "0x9",
          "logIndex": "0x18",
          "removed": false
        }
      ],
      "logsBloom": "0x00000000000000000000000000000000000000000000000000000000000000000000000000000000000000000000000000000000000000000000000000000000000000000000000000000000400000000000000000000000000000000000000000000004000000000000000000000000000000000000000000000000000000000000000000000000000000000000000000000000000000000000001000000000000000000000001000000000000000000000010000000000000000000000000000000000000000000000000080000000000000000080000000000000000000000000000000000000000800000000040000000000000000000000000000000000",
      "type": "0x2",
      "transactionHash": "0xeaa2b49d9fd1f9eb563a2d71aa36ecf6abf3fb5a0998bfa3ebf61b0eab0cc074",
      "transactionIndex": "0x9",
      "blockHash": "0x31ba98239208cfcc854e189b45c0d27c2aced85a10f804b21efcdd773a94e1ff",
      "blockNumber": "0x3c3322d",
      "gasUsed": "0x2f395",
      "effectiveGasPrice": "0x6b68c1546",
      "blobGasUsed": "0x9d",
      "from": "0x19bd49ae6e4732c91d541f9bd486dc75e3888971",
      "to": "0x62402b65bfb4fd022285a6fc2f26d8caeec3d055",
      "contractAddress": null,
      "daFootprintGasScalar": "0x1",
      "l1BaseFeeScalar": "0x0",
      "l1BlobBaseFee": "0x94c914",
      "l1BlobBaseFeeScalar": "0x0",
      "l1Fee": "0x0",
      "l1GasPrice": "0xb9a2f5f",
      "l1GasUsed": "0x9d5"
    },
    {
      "status": "0x1",
      "cumulativeGasUsed": "0x4654d8",
      "logs": [
        {
          "address": "0x62402b65bfb4fd022285a6fc2f26d8caeec3d055",
          "topics": [
            "0x429fa3f2cc8331e73fa6082c4dc1b89b5be0a13383f325d93cb26d83a47ea298",
            "0x21866da1809075359a1b32a1f5ce23e8672370fee8d5558590ffa5bbf5f546be"
          ],
          "data": "0x00000000000000000000000000000000000000000000000000000000000000400000000000000000000000000000000000000000000000000000000069ccba830000000000000000000000000000000000000000000000000000000000000005302e312e30000000000000000000000000000000000000000000000000000000",
          "blockHash": "0x31ba98239208cfcc854e189b45c0d27c2aced85a10f804b21efcdd773a94e1ff",
          "blockNumber": "0x3c3322d",
          "blockTimestamp": "0x69ccba83",
          "transactionHash": "0xe7c235070eca13a19ca401bf58679283ce07541a00b0b0a7499c56e83249c12d",
          "transactionIndex": "0x1c",
          "logIndex": "0x8c",
          "removed": false
        }
      ],
      "logsBloom": "0x00000000000000000000000000000000000000000000000000000000000000220000000000000000000000000000000000000000000000000000000000000000000000000000000000000000400000000000000000000000000000000000000000000004000000000000000000000000000000000000000000000000000000000000000000000000000000000000000000000000000000000000000000000000000000000000001000000000000000000000000000000000000000000000000000000000000000000000000000000000000000000080000000000000000000000000000000000000000800000000040000000000000040000000000000000000",
      "type": "0x2",
      "transactionHash": "0xe7c235070eca13a19ca401bf58679283ce07541a00b0b0a7499c56e83249c12d",
      "transactionIndex": "0x1c",
      "blockHash": "0x31ba98239208cfcc854e189b45c0d27c2aced85a10f804b21efcdd773a94e1ff",
      "blockNumber": "0x3c3322d",
      "gasUsed": "0x2f275",
      "effectiveGasPrice": "0x6b68c1546",
      "blobGasUsed": "0x94",
      "from": "0x19bd49ae6e4732c91d541f9bd486dc75e3888971",
      "to": "0x62402b65bfb4fd022285a6fc2f26d8caeec3d055",
      "contractAddress": null,
      "daFootprintGasScalar": "0x1",
      "l1BaseFeeScalar": "0x0",
      "l1BlobBaseFee": "0x94c914",
      "l1BlobBaseFeeScalar": "0x0",
      "l1Fee": "0x0",
      "l1GasPrice": "0xb9a2f5f",
      "l1GasUsed": "0x942"
    },
    {
      "status": "0x1",
      "cumulativeGasUsed": "0x49471d",
      "logs": [
        {
          "address": "0x62402b65bfb4fd022285a6fc2f26d8caeec3d055",
          "topics": [
            "0x429fa3f2cc8331e73fa6082c4dc1b89b5be0a13383f325d93cb26d83a47ea298",
            "0x49b31b50bdeb6cece5dc388aadbb5e9bdf4c3874546a97b90ce91f41ca7bbb40"
          ],
          "data": "0x00000000000000000000000000000000000000000000000000000000000000400000000000000000000000000000000000000000000000000000000069ccba830000000000000000000000000000000000000000000000000000000000000005302e312e30000000000000000000000000000000000000000000000000000000",
          "blockHash": "0x31ba98239208cfcc854e189b45c0d27c2aced85a10f804b21efcdd773a94e1ff",
          "blockNumber": "0x3c3322d",
          "blockTimestamp": "0x69ccba83",
          "transactionHash": "0x460ed30b9ccda44ff2330d5f0a6aeb4d869fdfa5cd1cb6754c938c3f2417d3dd",
          "transactionIndex": "0x1d",
          "logIndex": "0x8d",
          "removed": false
        }
      ],
      "logsBloom": "0x00000000000000000000000000000000000000000000000000000000000000000000000000000000000000000000000000000000000000000000000000000000000000000000000000000000400000000000000000000080000000000000000000000004000000000000000000000000000000000000000000000000000000000000000000000000000000000000000000000000000000000000000000000000000000000000001000400000000000000000000000000000000000000000000000000000000000000000000000000000000000000080200000000000000000000000000000000000000800000000040000000000000000000000000000000000",
      "type": "0x2",
      "transactionHash": "0x460ed30b9ccda44ff2330d5f0a6aeb4d869fdfa5cd1cb6754c938c3f2417d3dd",
      "transactionIndex": "0x1d",
      "blockHash": "0x31ba98239208cfcc854e189b45c0d27c2aced85a10f804b21efcdd773a94e1ff",
      "blockNumber": "0x3c3322d",
      "gasUsed": "0x2f245",
      "effectiveGasPrice": "0x6b68c1546",
      "blobGasUsed": "0x8d",
      "from": "0x19bd49ae6e4732c91d541f9bd486dc75e3888971",
      "to": "0x62402b65bfb4fd022285a6fc2f26d8caeec3d055",
      "contractAddress": null,
      "daFootprintGasScalar": "0x1",
      "l1BaseFeeScalar": "0x0",
      "l1BlobBaseFee": "0x94c914",
      "l1BlobBaseFeeScalar": "0x0",
      "l1Fee": "0x0",
      "l1GasPrice": "0xb9a2f5f",
      "l1GasUsed": "0x8d7"
    }
  ],
  "libraries": [],
  "pending": [],
  "returns": {},
  "timestamp": 1775024773423,
  "chain": 42220,
  "commit": "5f3ba3d"
}