{
  "transactions": [
    {
      "hash": "0xb7a228fc4b892a6330af03a09ddf33d727a28ffedcc2152fb9c855043ea3cbf6",
      "transactionType": "CALL",
      "contractName": "MCPRegistry",
      "contractAddress": "0x62402b65bfb4fd022285a6fc2f26d8caeec3d055",
      "function": "registerTool(string,string,string)",
      "arguments": [
        "getBalance",
        "Get the native token balance of an address on a specific chain",
        "0.1.0"
      ],
      "transaction": {
        "from": "0x19bd49ae6e4732c91d541f9bd486dc75e3888971",
        "to": "0x62402b65bfb4fd022285a6fc2f26d8caeec3d055",
        "gas": "0x46f95",
        "value": "0x0",
        "input": "0x9e01510c000000000000000000000000000000000000000000000000000000000000006000000000000000000000000000000000000000000000000000000000000000a00000000000000000000000000000000000000000000000000000000000000100000000000000000000000000000000000000000000000000000000000000000a67657442616c616e636500000000000000000000000000000000000000000000000000000000000000000000000000000000000000000000000000000000003e47657420746865206e617469766520746f6b656e2062616c616e6365206f6620616e2061646472657373206f6e206120737065636966696320636861696e00000000000000000000000000000000000000000000000000000000000000000005302e312e30000000000000000000000000000000000000000000000000000000",
        "nonce": "0x4",
        "chainId": "0x2105"
      },
      "additionalContracts": [],
      "isFixedGasLimit": false
    },
    {
      "hash": "0xb6d3fbbf8bded1157ce0b6421e1b82ca173043bb5e8b804ddd82faba220eb950",
      "transactionType": "CALL",
      "contractName": "MCPRegistry",
      "contractAddress": "0x62402b65bfb4fd022285a6fc2f26d8caeec3d055",
      "function": "registerTool(string,string,string)",
      "arguments": [
        "getTokenBalance",
        "Get ERC20 token balance for an address on a specific chain",
        "0.1.0"
      ],
      "transaction": {
        "from": "0x19bd49ae6e4732c91d541f9bd486dc75e3888971",
        "to": "0x62402b65bfb4fd022285a6fc2f26d8caeec3d055",
        "gas": "0x41363",
        "value": "0x0",
        "input": "0x9e01510c000000000000000000000000000000000000000000000000000000000000006000000000000000000000000000000000000000000000000000000000000000a00000000000000000000000000000000000000000000000000000000000000100000000000000000000000000000000000000000000000000000000000000000f676574546f6b656e42616c616e63650000000000000000000000000000000000000000000000000000000000000000000000000000000000000000000000003a47657420455243323020746f6b656e2062616c616e636520666f7220616e2061646472657373206f6e206120737065636966696320636861696e0000000000000000000000000000000000000000000000000000000000000000000000000005302e312e30000000000000000000000000000000000000000000000000000000",
        "nonce": "0x5",
        "chainId": "0x2105"
      },
      "additionalContracts": [],
      "isFixedGasLimit": false
    },
    {
      "hash": "0x33a1fce3b7dc3f8e0ae0b2a0b08c3d6ec4c8a25d129b848b1fd5810f2dc8d5aa",
      "transactionType": "CALL",
      "contractName": "MCPRegistry",
      "contractAddress": "0x62402b65bfb4fd022285a6fc2f26d8caeec3d055",
      "function": "registerTool(string,string,string)",
      "arguments": [
        "getMultiChainBalance",
        "Get native balance across all 4 chains in parallel",
        "0.1.0"
      ],
      "transaction": {
        "from": "0x19bd49ae6e4732c91d541f9bd486dc75e3888971",
        "to": "0x62402b65bfb4fd022285a6fc2f26d8caeec3d055",
        "gas": "0x4508e",
        "value": "0x0",
        "input": "0x9e01510c000000000000000000000000000000000000000000000000000000000000006000000000000000000000000000000000000000000000000000000000000000a0000000000000000000000000000000000000000000000000000000000000010000000000000000000000000000000000000000000000000000000000000000146765744d756c7469436861696e42616c616e63650000000000000000000000000000000000000000000000000000000000000000000000000000000000000032476574206e61746976652062616c616e6365206163726f737320616c6c203420636861696e7320696e20706172616c6c656c00000000000000000000000000000000000000000000000000000000000000000000000000000000000000000005302e312e30000000000000000000000000000000000000000000000000000000",
        "nonce": "0x6",
        "chainId": "0x2105"
      },
      "additionalContracts": [],
      "isFixedGasLimit": false
    },
    {
      "hash": "0xbbec2e08b12083edd4570219de8d7732f4284b33afba84287d37a0702a362a11",
      "transactionType": "CALL",
      "contractName": "MCPRegistry",
      "contractAddress": "0x62402b65bfb4fd022285a6fc2f26d8caeec3d055",
      "function": "registerTool(string,string,string)",
      "arguments": [
        "getBlock",
        "Get block details by hash on a specific chain",
        "0.1.0"
      ],
      "transaction": {
        "from": "0x19bd49ae6e4732c91d541f9bd486dc75e3888971",
        "to": "0x62402b65bfb4fd022285a6fc2f26d8caeec3d055",
        "gas": "0x41217",
        "value": "0x0",
        "input": "0x9e01510c000000000000000000000000000000000000000000000000000000000000006000000000000000000000000000000000000000000000000000000000000000a000000000000000000000000000000000000000000000000000000000000001000000000000000000000000000000000000000000000000000000000000000008676574426c6f636b000000000000000000000000000000000000000000000000000000000000000000000000000000000000000000000000000000000000002d47657420626c6f636b2064657461696c732062792068617368206f6e206120737065636966696320636861696e000000000000000000000000000000000000000000000000000000000000000000000000000000000000000000000000000005302e312e30000000000000000000000000000000000000000000000000000000",
        "nonce": "0x7",
        "chainId": "0x2105"
      },
      "additionalContracts": [],
      "isFixedGasLimit": false
    },
    {
      "hash": "0xf6447c5179046870d1dfe061669bbd4275b29c91d4462a1c6c504fa2aebe6f0b",
      "transactionType": "CALL",
      "contractName": "MCPRegistry",
      "contractAddress": "0x62402b65bfb4fd022285a6fc2f26d8caeec3d055",
      "function": "registerTool(string,string,string)",
      "arguments": [
        "getBlockByNumber",
        "Get block details by number or latest",
        "0.1.0"
      ],
      "transaction": {
        "from": "0x19bd49ae6e4732c91d541f9bd486dc75e3888971",
        "to": "0x62402b65bfb4fd022285a6fc2f26d8caeec3d055",
        "gas": "0x41217",
        "value": "0x0",
        "input": "0x9e01510c000000000000000000000000000000000000000000000000000000000000006000000000000000000000000000000000000000000000000000000000000000a000000000000000000000000000000000000000000000000000000000000001000000000000000000000000000000000000000000000000000000000000000010676574426c6f636b42794e756d62657200000000000000000000000000000000000000000000000000000000000000000000000000000000000000000000002547657420626c6f636b2064657461696c73206279206e756d626572206f72206c61746573740000000000000000000000000000000000000000000000000000000000000000000000000000000000000000000000000000000000000000000005302e312e30000000000000000000000000000000000000000000000000000000",
        "nonce": "0x8",
        "chainId": "0x2105"
      },
      "additionalContracts": [],
      "isFixedGasLimit": false
    },
    {
      "hash": "0x3c2edb62dba13c0b3aa86a72efcfbc0dc3ed0f9b08ddc330473095c14d30965d",
      "transactionType": "CALL",
      "contractName": "MCPRegistry",
      "contractAddress": "0x62402b65bfb4fd022285a6fc2f26d8caeec3d055",
      "function": "registerTool(string,string,string)",
      "arguments": [
        "getLatestBlock",
        "Get the latest block number and timestamp for a chain",
        "0.1.0"
      ],
      "transaction": {
        "from": "0x19bd49ae6e4732c91d541f9bd486dc75e3888971",
        "to": "0x62402b65bfb4fd022285a6fc2f26d8caeec3d055",
        "gas": "0x412ff",
        "value": "0x0",
        "input": "0x9e01510c000000000000000000000000000000000000000000000000000000000000006000000000000000000000000000000000000000000000000000000000000000a00000000000000000000000000000000000000000000000000000000000000100000000000000000000000000000000000000000000000000000000000000000e6765744c6174657374426c6f636b000000000000000000000000000000000000000000000000000000000000000000000000000000000000000000000000003547657420746865206c617465737420626c6f636b206e756d62657220616e642074696d657374616d7020666f72206120636861696e00000000000000000000000000000000000000000000000000000000000000000000000000000000000005302e312e30000000000000000000000000000000000000000000000000000000",
        "nonce": "0x9",
        "chainId": "0x2105"
      },
      "additionalContracts": [],
      "isFixedGasLimit": false
    },
    {
      "hash": "0x5c429c9110e301ab29e90a5d83afc430f0c0c5c3724b019ba4866b5d8b399e57",
      "transactionType": "CALL",
      "contractName": "MCPRegistry",
      "contractAddress": "0x62402b65bfb4fd022285a6fc2f26d8caeec3d055",
      "function": "registerTool(string,string,string)",
      "arguments": [
        "getTransaction",
        "Get transaction details by hash",
        "0.1.0"
      ],
      "transaction": {
        "from": "0x19bd49ae6e4732c91d541f9bd486dc75e3888971",
        "to": "0x62402b65bfb4fd022285a6fc2f26d8caeec3d055",
        "gas": "0x3215b",
        "value": "0x0",
        "input": "0x9e01510c000000000000000000000000000000000000000000000000000000000000006000000000000000000000000000000000000000000000000000000000000000a000000000000000000000000000000000000000000000000000000000000000e0000000000000000000000000000000000000000000000000000000000000000e6765745472616e73616374696f6e000000000000000000000000000000000000000000000000000000000000000000000000000000000000000000000000001f476574207472616e73616374696f6e2064657461696c732062792068617368000000000000000000000000000000000000000000000000000000000000000005302e312e30000000000000000000000000000000000000000000000000000000",
        "nonce": "0xa",
        "chainId": "0x2105"
      },
      "additionalContracts": [],
      "isFixedGasLimit": false
    },
    {
      "hash": "0x846776a4e1ea83f9681f5f92a7f74611688009f78cf4581dd8cd2c1e4899d635",
      "transactionType": "CALL",
      "contractName": "MCPRegistry",
      "contractAddress": "0x62402b65bfb4fd022285a6fc2f26d8caeec3d055",
      "function": "registerTool(string,string,string)",
      "arguments": [
        "getTransactionReceipt",
        "Get transaction receipt with status, gasUsed, and logs",
        "0.1.0"
      ],
      "transaction": {
        "from": "0x19bd49ae6e4732c91d541f9bd486dc75e3888971",
        "to": "0x62402b65bfb4fd022285a6fc2f26d8caeec3d055",
        "gas": "0x41383",
        "value": "0x0",
        "input": "0x9e01510c000000000000000000000000000000000000000000000000000000000000006000000000000000000000000000000000000000000000000000000000000000a0000000000000000000000000000000000000000000000000000000000000010000000000000000000000000000000000000000000000000000000000000000156765745472616e73616374696f6e5265636569707400000000000000000000000000000000000000000000000000000000000000000000000000000000000036476574207472616e73616374696f6e20726563656970742077697468207374617475732c20676173557365642c20616e64206c6f6773000000000000000000000000000000000000000000000000000000000000000000000000000000000005302e312e30000000000000000000000000000000000000000000000000000000",
        "nonce": "0xb",
        "chainId": "0x2105"
      },
      "additionalContracts": [],
      "isFixedGasLimit": false
    },
    {
      "hash": "0xfb119660387c8e7eb8543308d1bd10c6535e8178340919d8efa6c45a64399c3b",
      "transactionType": "CALL",
      "contractName": "MCPRegistry",
      "contractAddress": "0x62402b65bfb4fd022285a6fc2f26d8caeec3d055",
      "function": "registerTool(string,string,string)",
      "arguments": [
        "decodeTransaction",
        "Decode transaction function call and parameters",
        "0.1.0"
      ],
      "transaction": {
        "from": "0x19bd49ae6e4732c91d541f9bd486dc75e3888971",
        "to": "0x62402b65bfb4fd022285a6fc2f26d8caeec3d055",
        "gas": "0x45025",
        "value": "0x0",
        "input": "0x9e01510c000000000000000000000000000000000000000000000000000000000000006000000000000000000000000000000000000000000000000000000000000000a0000000000000000000000000000000000000000000000000000000000000010000000000000000000000000000000000000000000000000000000000000000116465636f64655472616e73616374696f6e000000000000000000000000000000000000000000000000000000000000000000000000000000000000000000002f4465636f6465207472616e73616374696f6e2066756e6374696f6e2063616c6c20616e6420706172616d657465727300000000000000000000000000000000000000000000000000000000000000000000000000000000000000000000000005302e312e30000000000000000000000000000000000000000000000000000000",
        "nonce": "0xc",
        "chainId": "0x2105"
      },
      "additionalContracts": [],
      "isFixedGasLimit": false
    },
    {
      "hash": "0xdbcc64ecd0b731c161b320592b5bc5a4a5864d0ba0fb60968dc49a9d895d356b",
      "transactionType": "CALL",
      "contractName": "MCPRegistry",
      "contractAddress": "0x62402b65bfb4fd022285a6fc2f26d8caeec3d055",
      "function": "registerTool(string,string,string)",
      "arguments": [
        "readContract",
        "Call a read-only contract function and return decoded result",
        "0.1.0"
      ],
      "transaction": {
        "from": "0x19bd49ae6e4732c91d541f9bd486dc75e3888971",
        "to": "0x62402b65bfb4fd022285a6fc2f26d8caeec3d055",
        "gas": "0x450b2",
        "value": "0x0",
        "input": "0x9e01510c000000000000000000000000000000000000000000000000000000000000006000000000000000000000000000000000000000000000000000000000000000a00000000000000000000000000000000000000000000000000000000000000100000000000000000000000000000000000000000000000000000000000000000c72656164436f6e74726163740000000000000000000000000000000000000000000000000000000000000000000000000000000000000000000000000000003c43616c6c206120726561642d6f6e6c7920636f6e74726163742066756e6374696f6e20616e642072657475726e206465636f64656420726573756c74000000000000000000000000000000000000000000000000000000000000000000000005302e312e30000000000000000000000000000000000000000000000000000000",
        "nonce": "0xd",
        "chainId": "0x2105"
      },
      "additionalContracts": [],
      "isFixedGasLimit": false
    },
    {
      "hash": "0x094b6e010263450088ab18c98f5dc74c3e01ad9743636b23cd2168438119f49e",
      "transactionType": "CALL",
      "contractName": "MCPRegistry",
      "contractAddress": "0x62402b65bfb4fd022285a6fc2f26d8caeec3d055",
      "function": "registerTool(string,string,string)",
      "arguments": [
        "getContractCode",
        "Check if an address has contract code and get bytecode metadata",
        "0.1.0"
      ],
      "transaction": {
        "from": "0x19bd49ae6e4732c91d541f9bd486dc75e3888971",
        "to": "0x62402b65bfb4fd022285a6fc2f26d8caeec3d055",
        "gas": "0x4511b",
        "value": "0x0",
        "input": "0x9e01510c000000000000000000000000000000000000000000000000000000000000006000000000000000000000000000000000000000000000000000000000000000a00000000000000000000000000000000000000000000000000000000000000100000000000000000000000000000000000000000000000000000000000000000f676574436f6e7472616374436f64650000000000000000000000000000000000000000000000000000000000000000000000000000000000000000000000003f436865636b20696620616e20616464726573732068617320636f6e747261637420636f646520616e64206765742062797465636f6465206d65746164617461000000000000000000000000000000000000000000000000000000000000000005302e312e30000000000000000000000000000000000000000000000000000000",
        "nonce": "0xe",
        "chainId": "0x2105"
      },
      "additionalContracts": [],
      "isFixedGasLimit": false
    },
    {
      "hash": "0x39b0086fc470688fed1847600951c87520a217cb7121c5ac1edf064eb76cc43e",
      "transactionType": "CALL",
      "contractName": "MCPRegistry",
      "contractAddress": "0x62402b65bfb4fd022285a6fc2f26d8caeec3d055",
      "function": "registerTool(string,string,string)",
      "arguments": [
        "getStorageAt",
        "Read raw storage slot value at an address",
        "0.1.0"
      ],
      "transaction": {
        "from": "0x19bd49ae6e4732c91d541f9bd486dc75e3888971",
        "to": "0x62402b65bfb4fd022285a6fc2f26d8caeec3d055",
        "gas": "0x41217",
        "value": "0x0",
        "input": "0x9e01510c000000000000000000000000000000000000000000000000000000000000006000000000000000000000000000000000000000000000000000000000000000a00000000000000000000000000000000000000000000000000000000000000100000000000000000000000000000000000000000000000000000000000000000c67657453746f7261676541740000000000000000000000000000000000000000000000000000000000000000000000000000000000000000000000000000002952656164207261772073746f7261676520736c6f742076616c756520617420616e206164647265737300000000000000000000000000000000000000000000000000000000000000000000000000000000000000000000000000000000000005302e312e30000000000000000000000000000000000000000000000000000000",
        "nonce": "0xf",
        "chainId": "0x2105"
      },
      "additionalContracts": [],
      "isFixedGasLimit": false
    },
    {
      "hash": "0x4f75fbb30e77cb562cb233fe54d70ca024f909d98ecde228d7945ce03d23ed05",
      "transactionType": "CALL",
      "contractName": "MCPRegistry",
      "contractAddress": "0x62402b65bfb4fd022285a6fc2f26d8caeec3d055",
      "function": "registerTool(string,string,string)",
      "arguments": [
        "getERC20Info",
        "Get ERC20 token metadata via Multicall3 batch",
        "0.1.0"
      ],
      "transaction": {
        "from": "0x19bd49ae6e4732c91d541f9bd486dc75e3888971",
        "to": "0x62402b65bfb4fd022285a6fc2f26d8caeec3d055",
        "gas": "0x41259",
        "value": "0x0",
        "input": "0x9e01510c000000000000000000000000000000000000000000000000000000000000006000000000000000000000000000000000000000000000000000000000000000a00000000000000000000000000000000000000000000000000000000000000100000000000000000000000000000000000000000000000000000000000000000c6765744552433230496e666f0000000000000000000000000000000000000000000000000000000000000000000000000000000000000000000000000000002d47657420455243323020746f6b656e206d6574616461746120766961204d756c746963616c6c33206261746368000000000000000000000000000000000000000000000000000000000000000000000000000000000000000000000000000005302e312e30000000000000000000000000000000000000000000000000000000",
        "nonce": "0x10",
        "chainId": "0x2105"
      },
      "additionalContracts": [],
      "isFixedGasLimit": false
    },
    {
      "hash": "0x9dc0716fed08684812476eed2a96ed931832460c9ee48c63bd4094fb31b2177b",
      "transactionType": "CALL",
      "contractName": "MCPRegistry",
      "contractAddress": "0x62402b65bfb4fd022285a6fc2f26d8caeec3d055",
      "function": "registerTool(string,string,string)",
      "arguments": [
        "getTokenAllowance",
        "Get ERC20 allowance for an owner/spender pair",
        "0.1.0"
      ],
      "transaction": {
        "from": "0x19bd49ae6e4732c91d541f9bd486dc75e3888971",
        "to": "0x62402b65bfb4fd022285a6fc2f26d8caeec3d055",
        "gas": "0x45002",
        "value": "0x0",
        "input": "0x9e01510c000000000000000000000000000000000000000000000000000000000000006000000000000000000000000000000000000000000000000000000000000000a000000000000000000000000000000000000000000000000000000000000001000000000000000000000000000000000000000000000000000000000000000011676574546f6b656e416c6c6f77616e6365000000000000000000000000000000000000000000000000000000000000000000000000000000000000000000002d47657420455243323020616c6c6f77616e636520666f7220616e206f776e65722f7370656e6465722070616972000000000000000000000000000000000000000000000000000000000000000000000000000000000000000000000000000005302e312e30000000000000000000000000000000000000000000000000000000",
        "nonce": "0x11",
        "chainId": "0x2105"
      },
      "additionalContracts": [],
      "isFixedGasLimit": false
    },
    {
      "hash": "0xdff1147aa9d6315eb89aee0109c233072b8eb473dcbc486bfa1bc4979935e1d3",
      "transactionType": "CALL",
      "contractName": "MCPRegistry",
      "contractAddress": "0x62402b65bfb4fd022285a6fc2f26d8caeec3d055",
      "function": "registerTool(string,string,string)",
      "arguments": [
        "getGasPrice",
        "Get current gas price and EIP-1559 fee data for a chain",
        "0.1.0"
      ],
      "transaction": {
        "from": "0x19bd49ae6e4732c91d541f9bd486dc75e3888971",
        "to": "0x62402b65bfb4fd022285a6fc2f26d8caeec3d055",
        "gas": "0x45048",
        "value": "0x0",
        "input": "0x9e01510c000000000000000000000000000000000000000000000000000000000000006000000000000000000000000000000000000000000000000000000000000000a00000000000000000000000000000000000000000000000000000000000000100000000000000000000000000000000000000000000000000000000000000000b676574476173507269636500000000000000000000000000000000000000000000000000000000000000000000000000000000000000000000000000000000374765742063757272656e742067617320707269636520616e64204549502d3135353920666565206461746120666f72206120636861696e0000000000000000000000000000000000000000000000000000000000000000000000000000000005302e312e30000000000000000000000000000000000000000000000000000000",
        "nonce": "0x12",
        "chainId": "0x2105"
      },
      "additionalContracts": [],
      "isFixedGasLimit": false
    },
    {
      "hash": "0x166a4625789b70c94d6bdef71156ed9ef2427c85ea5b08e3ea6a5cbfabd3a6ca",
      "transactionType": "CALL",
      "contractName": "MCPRegistry",
      "contractAddress": "0x62402b65bfb4fd022285a6fc2f26d8caeec3d055",
      "function": "registerTool(string,string,string)",
      "arguments": [
        "estimateGas",
        "Estimate gas cost for a transaction",
        "0.1.0"
      ],
      "transaction": {
        "from": "0x19bd49ae6e4732c91d541f9bd486dc75e3888971",
        "to": "0x62402b65bfb4fd022285a6fc2f26d8caeec3d055",
        "gas": "0x44ee9",
        "value": "0x0",
        "input": "0x9e01510c000000000000000000000000000000000000000000000000000000000000006000000000000000000000000000000000000000000000000000000000000000a00000000000000000000000000000000000000000000000000000000000000100000000000000000000000000000000000000000000000000000000000000000b657374696d6174654761730000000000000000000000000000000000000000000000000000000000000000000000000000000000000000000000000000000023457374696d6174652067617320636f737420666f722061207472616e73616374696f6e00000000000000000000000000000000000000000000000000000000000000000000000000000000000000000000000000000000000000000000000005302e312e30000000000000000000000000000000000000000000000000000000",
        "nonce": "0x13",
        "chainId": "0x2105"
      },
      "additionalContracts": [],
      "isFixedGasLimit": false
    },
    {
      "hash": "0xe4b5f5783d180556aeb3a4eb0d7c999a8d73e294d26ea3f795eaf22896318055",
      "transactionType": "CALL",
      "contractName": "MCPRegistry",
      "contractAddress": "0x62402b65bfb4fd022285a6fc2f26d8caeec3d055",
      "function": "registerTool(string,string,string)",
      "arguments": [
        "compareGasAcrossChains",
        "Compare current gas prices across all 4 supported chains",
        "0.1.0"
      ],
      "transaction": {
        "from": "0x19bd49ae6e4732c91d541f9bd486dc75e3888971",
        "to": "0x62402b65bfb4fd022285a6fc2f26d8caeec3d055",
        "gas": "0x4511b",
        "value": "0x0",
        "input": "0x9e01510c000000000000000000000000000000000000000000000000000000000000006000000000000000000000000000000000000000000000000000000000000000a000000000000000000000000000000000000000000000000000000000000001000000000000000000000000000000000000000000000000000000000000000016636f6d706172654761734163726f7373436861696e73000000000000000000000000000000000000000000000000000000000000000000000000000000000038436f6d706172652063757272656e742067617320707269636573206163726f737320616c6c203420737570706f7274656420636861696e7300000000000000000000000000000000000000000000000000000000000000000000000000000005302e312e30000000000000000000000000000000000000000000000000000000",
        "nonce": "0x14",
        "chainId": "0x2105"
      },
      "additionalContracts": [],
      "isFixedGasLimit": false
    },
    {
      "hash": "0x5ca9c8dfa2724ef7ad1579f29972f39f2ca57d5f8bb63fc3236768474ae5b985",
      "transactionType": "CALL",
      "contractName": "MCPRegistry",
      "contractAddress": "0x62402b65bfb4fd022285a6fc2f26d8caeec3d055",
      "function": "registerTool(string,string,string)",
      "arguments": [
        "resolveENS",
        "Resolve an ENS name to an address via Ethereum L1",
        "0.1.0"
      ],
      "transaction": {
        "from": "0x19bd49ae6e4732c91d541f9bd486dc75e3888971",
        "to": "0x62402b65bfb4fd022285a6fc2f26d8caeec3d055",
        "gas": "0x4127a",
        "value": "0x0",
        "input": "0x9e01510c000000000000000000000000000000000000000000000000000000000000006000000000000000000000000000000000000000000000000000000000000000a00000000000000000000000000000000000000000000000000000000000000100000000000000000000000000000000000000000000000000000000000000000a7265736f6c7665454e530000000000000000000000000000000000000000000000000000000000000000000000000000000000000000000000000000000000315265736f6c766520616e20454e53206e616d6520746f20616e20616464726573732076696120457468657265756d204c310000000000000000000000000000000000000000000000000000000000000000000000000000000000000000000005302e312e30000000000000000000000000000000000000000000000000000000",
        "nonce": "0x15",
        "chainId": "0x2105"
      },
      "additionalContracts": [],
      "isFixedGasLimit": false
    },
    {
      "hash": "0xd06aa6e1c60da67e84cd6455f7f7be105a827896290dbb7c5be38adb0bff5e6b",
      "transactionType": "CALL",
      "contractName": "MCPRegistry",
      "contractAddress": "0x62402b65bfb4fd022285a6fc2f26d8caeec3d055",
      "function": "registerTool(string,string,string)",
      "arguments": [
        "lookupAddress",
        "Reverse lookup an address to its ENS name",
        "0.1.0"
      ],
      "transaction": {
        "from": "0x19bd49ae6e4732c91d541f9bd486dc75e3888971",
        "to": "0x62402b65bfb4fd022285a6fc2f26d8caeec3d055",
        "gas": "0x44f76",
        "value": "0x0",
        "input": "0x9e01510c000000000000000000000000000000000000000000000000000000000000006000000000000000000000000000000000000000000000000000000000000000a00000000000000000000000000000000000000000000000000000000000000100000000000000000000000000000000000000000000000000000000000000000d6c6f6f6b75704164647265737300000000000000000000000000000000000000000000000000000000000000000000000000000000000000000000000000002952657665727365206c6f6f6b757020616e206164647265737320746f2069747320454e53206e616d6500000000000000000000000000000000000000000000000000000000000000000000000000000000000000000000000000000000000005302e312e30000000000000000000000000000000000000000000000000000000",
        "nonce": "0x16",
        "chainId": "0x2105"
      },
      "additionalContracts": [],
      "isFixedGasLimit": false
    },
    {
      "hash": "0x8297a7783b59b3745ec6628236ec63c8997e6433e3109314f78c8f27901069fb",
      "transactionType": "CALL",
      "contractName": "MCPRegistry",
      "contractAddress": "0x62402b65bfb4fd022285a6fc2f26d8caeec3d055",
      "function": "registerTool(string,string,string)",
      "arguments": [
        "getContractEvents",
        "Get decoded event logs for a contract",
        "0.1.0"
      ],
      "transaction": {
        "from": "0x19bd49ae6e4732c91d541f9bd486dc75e3888971",
        "to": "0x62402b65bfb4fd022285a6fc2f26d8caeec3d055",
        "gas": "0x44f76",
        "value": "0x0",
        "input": "0x9e01510c000000000000000000000000000000000000000000000000000000000000006000000000000000000000000000000000000000000000000000000000000000a000000000000000000000000000000000000000000000000000000000000001000000000000000000000000000000000000000000000000000000000000000011676574436f6e74726163744576656e74730000000000000000000000000000000000000000000000000000000000000000000000000000000000000000000025476574206465636f646564206576656e74206c6f677320666f72206120636f6e74726163740000000000000000000000000000000000000000000000000000000000000000000000000000000000000000000000000000000000000000000005302e312e30000000000000000000000000000000000000000000000000000000",
        "nonce": "0x17",
        "chainId": "0x2105"
      },
      "additionalContracts": [],
      "isFixedGasLimit": false
    },
    {
      "hash": "0x5bba22fdc33909836564121bd8241471f43ae204fea4d514ccc99081ea689c0a",
      "transactionType": "CALL",
      "contractName": "MCPRegistry",
      "contractAddress": "0x62402b65bfb4fd022285a6fc2f26d8caeec3d055",
      "function": "registerTool(string,string,string)",
      "arguments": [
        "decodeEventLog",
        "Decode a raw event log using a provided ABI",
        "0.1.0"
      ],
      "transaction": {
        "from": "0x19bd49ae6e4732c91d541f9bd486dc75e3888971",
        "to": "0x62402b65bfb4fd022285a6fc2f26d8caeec3d055",
        "gas": "0x41259",
        "value": "0x0",
        "input": "0x9e01510c000000000000000000000000000000000000000000000000000000000000006000000000000000000000000000000000000000000000000000000000000000a00000000000000000000000000000000000000000000000000000000000000100000000000000000000000000000000000000000000000000000000000000000e6465636f64654576656e744c6f67000000000000000000000000000000000000000000000000000000000000000000000000000000000000000000000000002b4465636f6465206120726177206576656e74206c6f67207573696e6720612070726f7669646564204142490000000000000000000000000000000000000000000000000000000000000000000000000000000000000000000000000000000005302e312e30000000000000000000000000000000000000000000000000000000",
        "nonce": "0x18",
        "chainId": "0x2105"
      },
      "additionalContracts": [],
      "isFixedGasLimit": false
    },
    {
      "hash": "0x94740dc3bb0065f31f8451f8da300dc7335a6fa1125ab59af6427917c608dc40",
      "transactionType": "CALL",
      "contractName": "MCPRegistry",
      "contractAddress": "0x62402b65bfb4fd022285a6fc2f26d8caeec3d055",
      "function": "registerTool(string,string,string)",
      "arguments": [
        "getChainInfo",
        "Get chain metadata including block height and native symbol",
        "0.1.0"
      ],
      "transaction": {
        "from": "0x19bd49ae6e4732c91d541f9bd486dc75e3888971",
        "to": "0x62402b65bfb4fd022285a6fc2f26d8caeec3d055",
        "gas": "0x41341",
        "value": "0x0",
        "input": "0x9e01510c000000000000000000000000000000000000000000000000000000000000006000000000000000000000000000000000000000000000000000000000000000a00000000000000000000000000000000000000000000000000000000000000100000000000000000000000000000000000000000000000000000000000000000c676574436861696e496e666f0000000000000000000000000000000000000000000000000000000000000000000000000000000000000000000000000000003b47657420636861696e206d6574616461746120696e636c7564696e6720626c6f636b2068656967687420616e64206e61746976652073796d626f6c00000000000000000000000000000000000000000000000000000000000000000000000005302e312e30000000000000000000000000000000000000000000000000000000",
        "nonce": "0x19",
        "chainId": "0x2105"
      },
      "additionalContracts": [],
      "isFixedGasLimit": false
    },
    {
      "hash": "0xe917238201de559d1f410d02424520427f35178e11960d59f06393ea0833bfb6",
      "transactionType": "CALL",
      "contractName": "MCPRegistry",
      "contractAddress": "0x62402b65bfb4fd022285a6fc2f26d8caeec3d055",
      "function": "registerTool(string,string,string)",
      "arguments": [
        "isContractDeployed",
        "Check if a contract is deployed across all supported chains",
        "0.1.0"
      ],
      "transaction": {
        "from": "0x19bd49ae6e4732c91d541f9bd486dc75e3888971",
        "to": "0x62402b65bfb4fd022285a6fc2f26d8caeec3d055",
        "gas": "0x413a5",
        "value": "0x0",
        "input": "0x9e01510c000000000000000000000000000000000000000000000000000000000000006000000000000000000000000000000000000000000000000000000000000000a0000000000000000000000000000000000000000000000000000000000000010000000000000000000000000000000000000000000000000000000000000000126973436f6e74726163744465706c6f7965640000000000000000000000000000000000000000000000000000000000000000000000000000000000000000003b436865636b206966206120636f6e7472616374206973206465706c6f796564206163726f737320616c6c20737570706f7274656420636861696e7300000000000000000000000000000000000000000000000000000000000000000000000005302e312e30000000000000000000000000000000000000000000000000000000",
        "nonce": "0x1a",
        "chainId": "0x2105"
      },
      "additionalContracts": [],
      "isFixedGasLimit": false
    },
    {
      "hash": "0x269bec23e49aeb8fee63b2c60bed36fef14a5d5a2270035f6ef53b5ca8057617",
      "transactionType": "CALL",
      "contractName": "MCPRegistry",
      "contractAddress": "0x62402b65bfb4fd022285a6fc2f26d8caeec3d055",
      "function": "registerTool(string,string,string)",
      "arguments": [
        "healthCheck",
        "Test all RPC connections and report status",
        "0.1.0"
      ],
      "transaction": {
        "from": "0x19bd49ae6e4732c91d541f9bd486dc75e3888971",
        "to": "0x62402b65bfb4fd022285a6fc2f26d8caeec3d055",
        "gas": "0x41217",
        "value": "0x0",
        "input": "0x9e01510c000000000000000000000000000000000000000000000000000000000000006000000000000000000000000000000000000000000000000000000000000000a00000000000000000000000000000000000000000000000000000000000000100000000000000000000000000000000000000000000000000000000000000000b6865616c7468436865636b000000000000000000000000000000000000000000000000000000000000000000000000000000000000000000000000000000002a5465737420616c6c2052504320636f6e6e656374696f6e7320616e64207265706f727420737461747573000000000000000000000000000000000000000000000000000000000000000000000000000000000000000000000000000000000005302e312e30000000000000000000000000000000000000000000000000000000",
        "nonce": "0x1b",
        "chainId": "0x2105"
      },
      "additionalContracts": [],
      "isFixedGasLimit": false
    },
    {
      "hash": "0x38f9816e248c194d964b7779c548bad05dfb5465102f1bfd7b8a889e9782a670",
      "transactionType": "CALL",
      "contractName": "MCPRegistry",
      "contractAddress": "0x62402b65bfb4fd022285a6fc2f26d8caeec3d055",
      "function": "registerTool(string,string,string)",
      "arguments": [
        "batchQuery",
        "Execute batch read calls via Multicall3",
        "0.1.0"
      ],
      "transaction": {
        "from": "0x19bd49ae6e4732c91d541f9bd486dc75e3888971",
        "to": "0x62402b65bfb4fd022285a6fc2f26d8caeec3d055",
        "gas": "0x411d5",
        "value": "0x0",
        "input": "0x9e01510c000000000000000000000000000000000000000000000000000000000000006000000000000000000000000000000000000000000000000000000000000000a00000000000000000000000000000000000000000000000000000000000000100000000000000000000000000000000000000000000000000000000000000000a626174636851756572790000000000000000000000000000000000000000000000000000000000000000000000000000000000000000000000000000000000274578656375746520626174636820726561642063616c6c7320766961204d756c746963616c6c33000000000000000000000000000000000000000000000000000000000000000000000000000000000000000000000000000000000000000005302e312e30000000000000000000000000000000000000000000000000000000",
        "nonce": "0x1c",
        "chainId": "0x2105"
      },
      "additionalContracts": [],
      "isFixedGasLimit": false
    }
  ],
  "receipts": [
    {
      "status": "0x1",
      "cumulativeGasUsed": "0x23e895d",
      "logs": [
        {
          "address": "0x62402b65bfb4fd022285a6fc2f26d8caeec3d055",
          "topics": [
            "0x429fa3f2cc8331e73fa6082c4dc1b89b5be0a13383f325d93cb26d83a47ea298",
            "0xc6e48e23057a9367006698ee62874f5ca25b4faf8da0114dbac8e0f6787004c4"
          ],
          "data": "0x00000000000000000000000000000000000000000000000000000000000000400000000000000000000000000000000000000000000000000000000069cee8950000000000000000000000000000000000000000000000000000000000000005302e312e30000000000000000000000000000000000000000000000000000000",
          "blockHash": "0x0000000000000000000000000000000000000000000000000000000000000000",
          "blockNumber": "0x2a245d9",
          "blockTimestamp": "0x69cee895",
          "transactionHash": "0xb7a228fc4b892a6330af03a09ddf33d727a28ffedcc2152fb9c855043ea3cbf6",
          "transactionIndex": "0x7c",
          "logIndex": "0x3ef",
          "removed": false
        }
      ],
      "logsBloom": "0x00000000000000000000000000000000000000000000000000000000000000000000000000000000000000000000000000000000000000000000000000000000000000000000000000000000400000000000000000000000000000000000000000000004000000000000000000000000000000000000000000000000000001000000000000000000002000000000000000000000000000000000000000000000000000000000001000000000000000000000000000000000000000000000000000000000000000000000000000000000000000000080000000000000000200000000000000000000000800000000040000000000000000000000000000000000",
      "type": "0x2",
      "transactionHash": "0xb7a228fc4b892a6330af03a09ddf33d727a28ffedcc2152fb9c855043ea3cbf6",
      "transactionIndex": "0x7c",
      "blockHash": "0x0000000000000000000000000000000000000000000000000000000000000000",
      "blockNumber": "0x2a245d9",
      "gasUsed": "0x33625",
      "effectiveGasPrice": "0x4c4b8b",
      "blobGasUsed": "0x5874",
      "from": "0x19bd49ae6e4732c91d541f9bd486dc75e3888971",
      "to": "0x62402b65bfb4fd022285a6fc2f26d8caeec3d055",
      "contractAddress": null,
      "daFootprintGasScalar": "0x94",
      "l1BaseFeeScalar": "0x8dd",
      "l1BlobBaseFee": "0x49ecd8",
      "l1BlobBaseFeeScalar": "0x101c12",
      "l1Fee": "0x3207f83b",
      "l1GasPrice": "0x5622611",
      "l1GasUsed": "0x992"
    },
    {
      "status": "0x1",
      "cumulativeGasUsed": "0x2417cc2",
      "logs": [
        {
          "address": "0x62402b65bfb4fd022285a6fc2f26d8caeec3d055",
          "topics": [
            "0x429fa3f2cc8331e73fa6082c4dc1b89b5be0a13383f325d93cb26d83a47ea298",
            "0xdce17bd92bab6573d1db7bc84cb508b87d2b7a0d2581148e4a23d0dc75fddafd"
          ],
          "data": "0x00000000000000000000000000000000000000000000000000000000000000400000000000000000000000000000000000000000000000000000000069cee8950000000000000000000000000000000000000000000000000000000000000005302e312e30000000000000000000000000000000000000000000000000000000",
          "blockHash": "0x0000000000000000000000000000000000000000000000000000000000000000",
          "blockNumber": "0x2a245d9",
          "blockTimestamp": "0x69cee895",
          "transactionHash": "0x39b0086fc470688fed1847600951c87520a217cb7121c5ac1edf064eb76cc43e",
          "transactionIndex": "0x7d",
          "logIndex": "0x3f0",
          "removed": false
        }
      ],
      "logsBloom": "0x00000000000000000000000000004000000000000000000000000000000000000000000000000000000000000000000000000000004000000000000000000000000000000000000000000000400000000000000000000000000000000000000000000004000000001000000000000000000000000000000000000000000000000000000000000000000000000000000000000000000000000000000000000000000000000000001000000000000000000000000000000000000000000000000000000000000000000000000000000000000000000080000000000000000000000000000000000000000800000000040000000000000000000000000000000000",
      "type": "0x2",
      "transactionHash": "0x39b0086fc470688fed1847600951c87520a217cb7121c5ac1edf064eb76cc43e",
      "transactionIndex": "0x7d",
      "blockHash": "0x0000000000000000000000000000000000000000000000000000000000000000",
      "blockNumber": "0x2a245d9",
      "gasUsed": "0x2f365",
      "effectiveGasPrice": "0x4c4b8b",
      "blobGasUsed": "0x5874",
      "from": "0x19bd49ae6e4732c91d541f9bd486dc75e3888971",
      "to": "0x62402b65bfb4fd022285a6fc2f26d8caeec3d055",
      "contractAddress": null,
      "daFootprintGasScalar": "0x94",
      "l1BaseFeeScalar": "0x8dd",
      "l1BlobBaseFee": "0x49ecd8",
      "l1BlobBaseFeeScalar": "0x101c12",
      "l1Fee": "0x3207f83b",
      "l1GasPrice": "0x5622611",
      "l1GasUsed": "0x992"
    },
    {
      "status": "0x1",
      "cumulativeGasUsed": "0x2447003",
      "logs": [
        {
          "address": "0x62402b65bfb4fd022285a6fc2f26d8caeec3d055",
          "topics": [
            "0x429fa3f2cc8331e73fa6082c4dc1b89b5be0a13383f325d93cb26d83a47ea298",
            "0xd94888843b87e0ddc5cf70ddce7bb26b6b85b0dc4ccbb70a3d427e5f1a58bb36"
          ],
          "data": "0x00000000000000000000000000000000000000000000000000000000000000400000000000000000000000000000000000000000000000000000000069cee8950000000000000000000000000000000000000000000000000000000000000005302e312e30000000000000000000000000000000000000000000000000000000",
          "blockHash": "0x0000000000000000000000000000000000000000000000000000000000000000",
          "blockNumber": "0x2a245d9",
          "blockTimestamp": "0x69cee895",
          "transactionHash": "0x4f75fbb30e77cb562cb233fe54d70ca024f909d98ecde228d7945ce03d23ed05",
          "transactionIndex": "0x7e",
          "logIndex": "0x3f1",
          "removed": false
        }
      ],
      "logsBloom": "0x00000000000000000000001000000000000000000200000000000000000000000000000000000000000000000000000000000000000000000000000000000000000000000000000000000000400000000000000000000000000000000000000000000004000000000000000000000000000000000000000000000002000000000000000000000000000000000000000000000000000000000000000000000000000000000000001000000000000000000000000000000000000000000000000000000000000000000000000000000000000000000080000000000000000000000000000000000000000800000000040000000000000000000000000000000000",
      "type": "0x2",
      "transactionHash": "0x4f75fbb30e77cb562cb233fe54d70ca024f909d98ecde228d7945ce03d23ed05",
      "transactionIndex": "0x7e",
      "blockHash": "0x0000000000000000000000000000000000000000000000000000000000000000",
      "blockNumber": "0x2a245d9",
      "gasUsed": "0x2f341",
      "effectiveGasPrice": "0x4c4b8b",
      "blobGasUsed": "0x5874",
      "from": "0x19bd49ae6e4732c91d541f9bd486dc75e3888971",
      "to": "0x62402b65bfb4fd022285a6fc2f26d8caeec3d055",
      "contractAddress": null,
      "daFootprintGasScalar": "0x94",
      "l1BaseFeeScalar": "0x8dd",
      "l1BlobBaseFee": "0x49ecd8",
      "l1BlobBaseFeeScalar": "0x101c12",
      "l1Fee": "0x3207f83b",
      "l1GasPrice": "0x5622611",
      "l1GasUsed": "0x99f"
    },
    {
      "status": "0x1",
      "cumulativeGasUsed": "0x2476278",
      "logs": [
        {
          "address": "0x62402b65bfb4fd022285a6fc2f26d8caeec3d055",
          "topics": [
            "0x429fa3f2cc8331e73fa6082c4dc1b89b5be0a13383f325d93cb26d83a47ea298",
            "0x842a8ad6212e42c435505d02a4b7e89141d91318ffea3fe899f02cf0832fa4bb"
          ],
          "data": "0x00000000000000000000000000000000000000000000000000000000000000400000000000000000000000000000000000000000000000000000000069cee8950000000000000000000000000000000000000000000000000000000000000005302e312e30000000000000000000000000000000000000000000000000000000",
          "blockHash": "0x0000000000000000000000000000000000000000000000000000000000000000",
          "blockNumber": "0x2a245d9",
          "blockTimestamp": "0x69cee895",
          "transactionHash": "0x9dc0716fed08684812476eed2a96ed931832460c9ee48c63bd4094fb31b2177b",
          "transactionIndex": "0x7f",
          "logIndex": "0x3f2",
          "removed": false
        }
      ],
      "logsBloom": "0x00000000000000000000000000000000000000000000000000000000000000000000000000000000008000000000000000000000000000000000000000000000000000000000000000000000400000000000000000000000000000000000000000000004000000000000000000000000000000000000000000000000000000000000000000000000000000000000000000000000000000000000000000000000000000000000001000000000000000000000000000000000000000000000000000000000000000000000000000000000000000000080000002000000000000000000000000000000000800000000040000000040000000000000000000000000",
      "type": "0x2",
      "transactionHash": "0x9dc0716fed08684812476eed2a96ed931832460c9ee48c63bd4094fb31b2177b",
      "transactionIndex": "0x7f",
      "blockHash": "0x0000000000000000000000000000000000000000000000000000000000000000",
      "blockNumber": "0x2a245d9",
      "gasUsed": "0x2f275",
      "effectiveGasPrice": "0x4c4b8b",
      "blobGasUsed": "0x505c",
      "from": "0x19bd49ae6e4732c91d541f9bd486dc75e3888971",
      "to": "0x62402b65bfb4fd022285a6fc2f26d8caeec3d055",
      "contractAddress": null,
      "daFootprintGasScalar": "0x94",
      "l1BaseFeeScalar": "0x8dd",
      "l1BlobBaseFee": "0x49ecd8",
      "l1BlobBaseFeeScalar": "0x101c12",
      "l1Fee": "0x3207f83b",
      "l1GasPrice": "0x5622611",
      "l1GasUsed": "0x8bc"
    },
    {
      "status": "0x1",
      "cumulativeGasUsed": "0x24a54ed",
      "logs": [
        {
          "address": "0x62402b65bfb4fd022285a6fc2f26d8caeec3d055",
          "topics": [
            "0x429fa3f2cc8331e73fa6082c4dc1b89b5be0a13383f325d93cb26d83a47ea298",
            "0x2953357ad8f50b1ca2aa2600a4bac2cc64fc74ebc13e659225e3a4b39ed8dbb0"
          ],
          "data": "0x00000000000000000000000000000000000000000000000000000000000000400000000000000000000000000000000000000000000000000000000069cee8950000000000000000000000000000000000000000000000000000000000000005302e312e30000000000000000000000000000000000000000000000000000000",
          "blockHash": "0x0000000000000000000000000000000000000000000000000000000000000000",
          "blockNumber": "0x2a245d9",
          "blockTimestamp": "0x69cee895",
          "transactionHash": "0x166a4625789b70c94d6bdef71156ed9ef2427c85ea5b08e3ea6a5cbfabd3a6ca",
          "transactionIndex": "0x80",
          "logIndex": "0x3f3",
          "removed": false
        }
      ],
      "logsBloom": "0x00002000000000000000000000000000000000000000000000000000000000000000000000000000000000000000000000000000000000000000000000000000000000000000000000000000400000000000000000000000000000000000000000000004000000000000000000000000002000000000000000000000000000000000000000000000000000000000000000000000000000000000000000000000000000000000001000000000000000000000000000000004000000000000000000000000000000000000000000000000000000000080000000000000000000000000000000000000000800000000040000000000000000000000000000000000",
      "type": "0x2",
      "transactionHash": "0x166a4625789b70c94d6bdef71156ed9ef2427c85ea5b08e3ea6a5cbfabd3a6ca",
      "transactionIndex": "0x80",
      "blockHash": "0x0000000000000000000000000000000000000000000000000000000000000000",
      "blockNumber": "0x2a245d9",
      "gasUsed": "0x2f275",
      "effectiveGasPrice": "0x4c4b8b",
      "blobGasUsed": "0x5218",
      "from": "0x19bd49ae6e4732c91d541f9bd486dc75e3888971",
      "to": "0x62402b65bfb4fd022285a6fc2f26d8caeec3d055",
      "contractAddress": null,
      "daFootprintGasScalar": "0x94",
      "l1BaseFeeScalar": "0x8dd",
      "l1BlobBaseFee": "0x49ecd8",
      "l1BlobBaseFeeScalar": "0x101c12",
      "l1Fee": "0x3207f83b",
      "l1GasPrice": "0x5622611",
      "l1GasUsed": "0x8e4"
    },
    {
      "status": "0x1",
      "cumulativeGasUsed": "0x24d480a",
      "logs": [
        {
          "address": "0x62402b65bfb4fd022285a6fc2f26d8caeec3d055",
          "topics": [
            "0x429fa3f2cc8331e73fa6082c4dc1b89b5be0a13383f325d93cb26d83a47ea298",
            "0xe4d1a1bd71b2bfc91154d023711930004ce9aedb6c7740844575612231c75c66"
          ],
          "data": "0x00000000000000000000000000000000000000000000000000000000000000400000000000000000000000000000000000000000000000000000000069cee8950000000000000000000000000000000000000000000000000000000000000005302e312e30000000000000000000000000000000000000000000000000000000",
          "blockHash": "0x0000000000000000000000000000000000000000000000000000000000000000",
          "blockNumber": "0x2a245d9",
          "blockTimestamp": "0x69cee895",
          "transactionHash": "0xbbec2e08b12083edd4570219de8d7732f4284b33afba84287d37a0702a362a11",
          "transactionIndex": "0x81",
          "logIndex": "0x3f4",
          "removed": false
        }
      ],
      "logsBloom": "0x00000000000000000000000000000000000000000000000000000000000000000000000000000000000000000000000000000000000000000000400000000000000000000000000000000000400000000000000000000000000000000000000000000004000000000000000000000000000000000000000000000000000000000000000000000000000000000000000000000000000000000000000000000000000000000000001000000000000000000000000000000000000000000000000000000000000000000000000000000000000000000080000000000000000000000000000000000000001800000000040000000000000000000000000000000004",
      "type": "0x2",
      "transactionHash": "0xbbec2e08b12083edd4570219de8d7732f4284b33afba84287d37a0702a362a11",
      "transactionIndex": "0x81",
      "blockHash": "0x0000000000000000000000000000000000000000000000000000000000000000",
      "blockNumber": "0x2a245d9",
      "gasUsed": "0x2f31d",
      "effectiveGasPrice": "0x4c4b8b",
      "blobGasUsed": "0x5590",
      "from": "0x19bd49ae6e4732c91d541f9bd486dc75e3888971",
      "to": "0x62402b65bfb4fd022285a6fc2f26d8caeec3d055",
      "contractAddress": null,
      "daFootprintGasScalar": "0x94",
      "l1BaseFeeScalar": "0x8dd",
      "l1BlobBaseFee": "0x49ecd8",
      "l1BlobBaseFeeScalar": "0x101c12",
      "l1Fee": "0x3207f83b",
      "l1GasPrice": "0x5622611",
      "l1GasUsed": "0x94f"
    },
    {
      "status": "0x1",
      "cumulativeGasUsed": "0x24f8c36",
      "logs": [
        {
          "address": "0x62402b65bfb4fd022285a6fc2f26d8caeec3d055",
          "topics": [
            "0x429fa3f2cc8331e73fa6082c4dc1b89b5be0a13383f325d93cb26d83a47ea298",
            "0x30b56e18703b19c89b2be522ec5466febb9dc5dda837e6b81b9d03629398f789"
          ],
          "data": "0x00000000000000000000000000000000000000000000000000000000000000400000000000000000000000000000000000000000000000000000000069cee8950000000000000000000000000000000000000000000000000000000000000005302e312e30000000000000000000000000000000000000000000000000000000",
          "blockHash": "0x0000000000000000000000000000000000000000000000000000000000000000",
          "blockNumber": "0x2a245d9",
          "blockTimestamp": "0x69cee895",
          "transactionHash": "0xf6447c5179046870d1dfe061669bbd4275b29c91d4462a1c6c504fa2aebe6f0b",
          "transactionIndex": "0x82",
          "logIndex": "0x3f5",
          "removed": false
        }
      ],
      "logsBloom": "0x00000000000000000000000000000000000000000000000000000000000000000000000000000000000000000000000000000000000000000200000000000000000000000040000000000000400000000000000000000000000000000000000000000004000000000000000000000000000000000000000000000000000000008000000000000000000000000000000000000000000000000000000000000000000000000000001000000000000000000000000000000000000000000000000000000000000000000000000000000000000000000080000000000000000000000000000000000000000800000000040000000000000000000000000000000000",
      "type": "0x2",
      "transactionHash": "0xf6447c5179046870d1dfe061669bbd4275b29c91d4462a1c6c504fa2aebe6f0b",
      "transactionIndex": "0x82",
      "blockHash": "0x0000000000000000000000000000000000000000000000000000000000000000",
      "blockNumber": "0x2a245d9",
      "gasUsed": "0x2442c",
      "effectiveGasPrice": "0x4c4b8b",
      "blobGasUsed": "0x4a00",
      "from": "0x19bd49ae6e4732c91d541f9bd486dc75e3888971",
      "to": "0x62402b65bfb4fd022285a6fc2f26d8caeec3d055",
      "contractAddress": null,
      "daFootprintGasScalar": "0x94",
      "l1BaseFeeScalar": "0x8dd",
      "l1BlobBaseFee": "0x49ecd8",
      "l1BlobBaseFeeScalar": "0x101c12",
      "l1Fee": "0x3207f83b",
      "l1GasPrice": "0x5622611",
      "l1GasUsed": "0x800"
    },
    {
      "status": "0x1",
      "cumulativeGasUsed": "0x2527fb3",
      "logs": [
        {
          "address": "0x62402b65bfb4fd022285a6fc2f26d8caeec3d055",
          "topics": [
            "0x429fa3f2cc8331e73fa6082c4dc1b89b5be0a13383f325d93cb26d83a47ea298",
            "0xab495269b15384453a70d18733c068e1f06d3438f3c13714010df06105446d2b"
          ],
          "data": "0x00000000000000000000000000000000000000000000000000000000000000400000000000000000000000000000000000000000000000000000000069cee8950000000000000000000000000000000000000000000000000000000000000005302e312e30000000000000000000000000000000000000000000000000000000",
          "blockHash": "0x0000000000000000000000000000000000000000000000000000000000000000",
          "blockNumber": "0x2a245d9",
          "blockTimestamp": "0x69cee895",
          "transactionHash": "0xdbcc64ecd0b731c161b320592b5bc5a4a5864d0ba0fb60968dc49a9d895d356b",
          "transactionIndex": "0x83",
          "logIndex": "0x3f6",
          "removed": false
        }
      ],
      "logsBloom": "0x00000000000000000000000000000000000000000000000000000000000000000000000000000000000000000000000000000000000000000000000000000000000000000000000000000000400000000000000000000000000000000000000000000004000000000000000000000000000000000000000000000000000000000000000000000000000000000000000000000000000000000000000000000000000000000000001000000080000000000000000000000000000000000000000000000000000000000000000000000000000000000080000000000000000000000000000000000000000800008000040010000000000000000000000000000000",
      "type": "0x2",
      "transactionHash": "0xdbcc64ecd0b731c161b320592b5bc5a4a5864d0ba0fb60968dc49a9d895d356b",
      "transactionIndex": "0x83",
      "blockHash": "0x0000000000000000000000000000000000000000000000000000000000000000",
      "blockNumber": "0x2a245d9",
      "gasUsed": "0x2f37d",
      "effectiveGasPrice": "0x4c4b8b",
      "blobGasUsed": "0x5874",
      "from": "0x19bd49ae6e4732c91d541f9bd486dc75e3888971",
      "to": "0x62402b65bfb4fd022285a6fc2f26d8caeec3d055",
      "contractAddress": null,
      "daFootprintGasScalar": "0x94",
      "l1BaseFeeScalar": "0x8dd",
      "l1BlobBaseFee": "0x49ecd8",
      "l1BlobBaseFeeScalar": "0x101c12",
      "l1Fee": "0x3207f83b",
      "l1GasPrice": "0x5622611",
      "l1GasUsed": "0x99f"
    },
    {
      "status": "0x1",
      "cumulativeGasUsed": "0x25572ac",
      "logs": [
        {
          "address": "0x62402b65bfb4fd022285a6fc2f26d8caeec3d055",
          "topics": [
            "0x429fa3f2cc8331e73fa6082c4dc1b89b5be0a13383f325d93cb26d83a47ea298",
            "0xbd4765ed446999b5b26f8f36ddaa5311e796448f4d43f193b29447ef5a9ac758"
          ],
          "data": "0x00000000000000000000000000000000000000000000000000000000000000400000000000000000000000000000000000000000000000000000000069cee8950000000000000000000000000000000000000000000000000000000000000005302e312e30000000000000000000000000000000000000000000000000000000",
          "blockHash": "0x0000000000000000000000000000000000000000000000000000000000000000",
          "blockNumber": "0x2a245d9",
          "blockTimestamp": "0x69cee895",
          "transactionHash": "0x5bba22fdc33909836564121bd8241471f43ae204fea4d514ccc99081ea689c0a",
          "transactionIndex": "0x84",
          "logIndex": "0x3f7",
          "removed": false
        }
      ],
      "logsBloom": "0x00000000000000000000000000000000000000000000000000000000000000000000000000000000000000000000000000000000000000000080000000000000000000000000000000000000400000000000000000000000000000000000000000000004000000000000000000000000000000000000000000000000000000000000000000000000000000000000000000000000000000000000000000000000000000000100001000000000000000000000000000000000000000000000000000000000000000000000000000000000000000000080000000000000000000000000000000000000000800020000040000000000000000000000000000000000",
      "type": "0x2",
      "transactionHash": "0x5bba22fdc33909836564121bd8241471f43ae204fea4d514ccc99081ea689c0a",
      "transactionIndex": "0x84",
      "blockHash": "0x0000000000000000000000000000000000000000000000000000000000000000",
      "blockNumber": "0x2a245d9",
      "gasUsed": "0x2f2f9",
      "effectiveGasPrice": "0x4c4b8b",
      "blobGasUsed": "0x52ac",
      "from": "0x19bd49ae6e4732c91d541f9bd486dc75e3888971",
      "to": "0x62402b65bfb4fd022285a6fc2f26d8caeec3d055",
      "contractAddress": null,
      "daFootprintGasScalar": "0x94",
      "l1BaseFeeScalar": "0x8dd",
      "l1BlobBaseFee": "0x49ecd8",
      "l1BlobBaseFeeScalar": "0x101c12",
      "l1Fee": "0x3207f83b",
      "l1GasPrice": "0x5622611",
      "l1GasUsed": "0x8ff"
    },
    {
      "status": "0x1",
      "cumulativeGasUsed": "0x2586605",
      "logs": [
        {
          "address": "0x62402b65bfb4fd022285a6fc2f26d8caeec3d055",
          "topics": [
            "0x429fa3f2cc8331e73fa6082c4dc1b89b5be0a13383f325d93cb26d83a47ea298",
            "0x15793420384abe2cf78fbcad3f4411599f3143662a08ecd9ad056ddbac357b62"
          ],
          "data": "0x00000000000000000000000000000000000000000000000000000000000000400000000000000000000000000000000000000000000000000000000069cee8950000000000000000000000000000000000000000000000000000000000000005302e312e30000000000000000000000000000000000000000000000000000000",
          "blockHash": "0x0000000000000000000000000000000000000000000000000000000000000000",
          "blockNumber": "0x2a245d9",
          "blockTimestamp": "0x69cee895",
          "transactionHash": "0xb6d3fbbf8bded1157ce0b6421e1b82ca173043bb5e8b804ddd82faba220eb950",
          "transactionIndex": "0x85",
          "logIndex": "0x3f8",
          "removed": false
        }
      ],
      "logsBloom": "0x00000000000000000000000000000000000000000000000000000000000000000000000000000000000000000000000000000000000000000000000000000000000000000000000000000000400000000000000000000000000000000000000000000004000000000010000000000000000000000000000000000000000000000000000000000000000000000000000000000000000000000000000000000000000000000000001000000000000000000000000000000000000000000000000000004000000000000000000000000000000000000080000000000000000000000000000000000000000800000000040000000000000000000000000000000040",
      "type": "0x2",
      "transactionHash": "0xb6d3fbbf8bded1157ce0b6421e1b82ca173043bb5e8b804ddd82faba220eb950",
      "transactionIndex": "0x85",
      "blockHash": "0x0000000000000000000000000000000000000000000000000000000000000000",
      "blockNumber": "0x2a245d9",
      "gasUsed": "0x2f359",
      "effectiveGasPrice": "0x4c4b8b",
      "blobGasUsed": "0x5624",
      "from": "0x19bd49ae6e4732c91d541f9bd486dc75e3888971",
      "to": "0x62402b65bfb4fd022285a6fc2f26d8caeec3d055",
      "contractAddress": null,
      "daFootprintGasScalar": "0x94",
      "l1BaseFeeScalar": "0x8dd",
      "l1BlobBaseFee": "0x49ecd8",
      "l1BlobBaseFeeScalar": "0x101c12",
      "l1Fee": "0x3207f83b",
      "l1GasPrice": "0x5622611",
      "l1GasUsed": "0x95c"
    },
    {
      "status": "0x1",
      "cumulativeGasUsed": "0x25b59a6",
      "logs": [
        {
          "address": "0x62402b65bfb4fd022285a6fc2f26d8caeec3d055",
          "topics": [
            "0x429fa3f2cc8331e73fa6082c4dc1b89b5be0a13383f325d93cb26d83a47ea298",
            "0xb806d0bdb0a0672861e444d04f3a27cde645f1f6233ec1f4bef188af63552a72"
          ],
          "data": "0x00000000000000000000000000000000000000000000000000000000000000400000000000000000000000000000000000000000000000000000000069cee8950000000000000000000000000000000000000000000000000000000000000005302e312e30000000000000000000000000000000000000000000000000000000",
          "blockHash": "0x0000000000000000000000000000000000000000000000000000000000000000",
          "blockNumber": "0x2a245d9",
          "blockTimestamp": "0x69cee895",
          "transactionHash": "0xd06aa6e1c60da67e84cd6455f7f7be105a827896290dbb7c5be38adb0bff5e6b",
          "transactionIndex": "0x86",
          "logIndex": "0x3f9",
          "removed": false
        }
      ],
      "logsBloom": "0x00000000000000000000000000000000000000000000000000000000000000000000000000000000000000000000000000000000000000000000000000000000000000000000000000000000400000000000000000000000000000000000000000000004000000000000000000000000000000000000000000000000000000000000000000000000000000000000000000000000000000000000000000000000000000000000001000000000000000000000000000000000000000000000000000000000000000000000000000000000400000000080000000000000000000000000000001000000000800000000040000000000000010000000000000000000",
      "type": "0x2",
      "transactionHash": "0xd06aa6e1c60da67e84cd6455f7f7be105a827896290dbb7c5be38adb0bff5e6b",
      "transactionIndex": "0x86",
      "blockHash": "0x0000000000000000000000000000000000000000000000000000000000000000",
      "blockNumber": "0x2a245d9",
      "gasUsed": "0x2f3a1",
      "effectiveGasPrice": "0x4c4b8b",
      "blobGasUsed": "0x5908",
      "from": "0x19bd49ae6e4732c91d541f9bd486dc75e3888971",
      "to": "0x62402b65bfb4fd022285a6fc2f26d8caeec3d055",
      "contractAddress": null,
      "daFootprintGasScalar": "0x94",
      "l1BaseFeeScalar": "0x8dd",
      "l1BlobBaseFee": "0x49ecd8",
      "l1BlobBaseFeeScalar": "0x101c12",
      "l1Fee": "0x3207f83b",
      "l1GasPrice": "0x5622611",
      "l1GasUsed": "0x9ad"
    },
    {
      "status": "0x1",
      "cumulativeGasUsed": "0x25e4c1b",
      "logs": [
        {
          "address": "0x62402b65bfb4fd022285a6fc2f26d8caeec3d055",
          "topics": [
            "0x429fa3f2cc8331e73fa6082c4dc1b89b5be0a13383f325d93cb26d83a47ea298",
            "0xf09d13beb90c473ac4de7fcc4e5ed2e8d3d1cd681ef7776e04bbfb1ddef7dec7"
          ],
          "data": "0x00000000000000000000000000000000000000000000000000000000000000400000000000000000000000000000000000000000000000000000000069cee8950000000000000000000000000000000000000000000000000000000000000005302e312e30000000000000000000000000000000000000000000000000000000",
          "blockHash": "0x0000000000000000000000000000000000000000000000000000000000000000",
          "blockNumber": "0x2a245d9",
          "blockTimestamp": "0x69cee895",
          "transactionHash": "0x3c2edb62dba13c0b3aa86a72efcfbc0dc3ed0f9b08ddc330473095c14d30965d",
          "transactionIndex": "0x87",
          "logIndex": "0x3fa",
          "removed": false
        }
      ],
      "logsBloom": "0x00000000000000000000000000000000000000000000000000000000000000000000000000000000000000000000000000000000000000000000000000000000000000000000000000000000400000000000000000000000000000000000000000000004000000000000000000000000000000000000000000000000000000001000000000000000000000000000000000000000000000000000000000000000000000000000001000000000000400000000000000000000000000000000000000000000000000000000001000000000000000000080000000000000000000000000000000000000000800000000040000000000000000000000000000000000",
      "type": "0x2",
      "transactionHash": "0x3c2edb62dba13c0b3aa86a72efcfbc0dc3ed0f9b08ddc330473095c14d30965d",
      "transactionIndex": "0x87",
      "blockHash": "0x0000000000000000000000000000000000000000000000000000000000000000",
      "blockNumber": "0x2a245d9",
      "gasUsed": "0x2f275",
      "effectiveGasPrice": "0x4c4b8b",
      "blobGasUsed": "0x50f0",
      "from": "0x19bd49ae6e4732c91d541f9bd486dc75e3888971",
      "to": "0x62402b65bfb4fd022285a6fc2f26d8caeec3d055",
      "contractAddress": null,
      "daFootprintGasScalar": "0x94",
      "l1BaseFeeScalar": "0x8dd",
      "l1BlobBaseFee": "0x49ecd8",
      "l1BlobBaseFeeScalar": "0x101c12",
      "l1Fee": "0x3207f83b",
      "l1GasPrice": "0x5622611",
      "l1GasUsed": "0x8c9"
    },
    {
      "status": "0x1",
      "cumulativeGasUsed": "0x2613ec0",
      "logs": [
        {
          "address": "0x62402b65bfb4fd022285a6fc2f26d8caeec3d055",
          "topics": [
            "0x429fa3f2cc8331e73fa6082c4dc1b89b5be0a13383f325d93cb26d83a47ea298",
            "0xa3c6fbce4e2f5aa7edb0380e37459f0f1c931572791fc1696a17dedb186fd193"
          ],
          "data": "0x00000000000000000000000000000000000000000000000000000000000000400000000000000000000000000000000000000000000000000000000069cee8950000000000000000000000000000000000000000000000000000000000000005302e312e30000000000000000000000000000000000000000000000000000000",
          "blockHash": "0x0000000000000000000000000000000000000000000000000000000000000000",
          "blockNumber": "0x2a245d9",
          "blockTimestamp": "0x69cee895",
          "transactionHash": "0x5ca9c8dfa2724ef7ad1579f29972f39f2ca57d5f8bb63fc3236768474ae5b985",
          "transactionIndex": "0x88",
          "logIndex": "0x3fb",
          "removed": false
        }
      ],
      "logsBloom": "0x00000000000000000000000000000000000000000000000000000000000000000000000000000000000000000000000000000000000000000000000000000000000000000000000000000000400100000000000000000000000000000000000000000004000000000000000000000000000000000000000000000000020000000000000000000000000000000000000000000000000000000000000000000000000400000000001000000000000000000000000000000000000000000000000000000000000000000000000000000000000000000080000000000000000000000000000000000000000800000000040000000000000000000000000000000000",
      "type": "0x2",
      "transactionHash": "0x5ca9c8dfa2724ef7ad1579f29972f39f2ca57d5f8bb63fc3236768474ae5b985",
      "transactionIndex": "0x88",
      "blockHash": "0x0000000000000000000000000000000000000000000000000000000000000000",
      "blockNumber": "0x2a245d9",
      "gasUsed": "0x2f2a5",
      "effectiveGasPrice": "0x4c4b8b",
      "blobGasUsed": "0x53d4",
      "from": "0x19bd49ae6e4732c91d541f9bd486dc75e3888971",
      "to": "0x62402b65bfb4fd022285a6fc2f26d8caeec3d055",
      "contractAddress": null,
      "daFootprintGasScalar": "0x94",
      "l1BaseFeeScalar": "0x8dd",
      "l1BlobBaseFee": "0x49ecd8",
      "l1BlobBaseFeeScalar": "0x101c12",
      "l1Fee": "0x3207f83b",
      "l1GasPrice": "0x5622611",
      "l1GasUsed": "0x91a"
    },
    {
      "status": "0x1",
      "cumulativeGasUsed": "0x26431a1",
      "logs": [
        {
          "address": "0x62402b65bfb4fd022285a6fc2f26d8caeec3d055",
          "topics": [
            "0x429fa3f2cc8331e73fa6082c4dc1b89b5be0a13383f325d93cb26d83a47ea298",
            "0x589332b82a92616b9aad3a60c38a8e3167a7ab159521ff0084f5580a39f65776"
          ],
          "data": "0x00000000000000000000000000000000000000000000000000000000000000400000000000000000000000000000000000000000000000000000000069cee8950000000000000000000000000000000000000000000000000000000000000005302e312e30000000000000000000000000000000000000000000000000000000",
          "blockHash": "0x0000000000000000000000000000000000000000000000000000000000000000",
          "blockNumber": "0x2a245d9",
          "blockTimestamp": "0x69cee895",
          "transactionHash": "0xe917238201de559d1f410d02424520427f35178e11960d59f06393ea0833bfb6",
          "transactionIndex": "0x89",
          "logIndex": "0x3fc",
          "removed": false
        }
      ],
      "logsBloom": "0x00000000000000000000000000000000000000000000000000000000000000000000000000000000000000000000000000000000000000000000000000000000000000000020000000000000400000000000000000000008000000000000000000000004000000000000000000000000000000000000000000000000000000000002000000000000000000000000000000000000000000000000000000000000000000000000001000000000000000000000000000000000000000000000000000000000000000000000000000000000000000000080000000000000000000000000000000000000000800000000040000000000000000000000000000000000",
      "type": "0x2",
      "transactionHash": "0xe917238201de559d1f410d02424520427f35178e11960d59f06393ea0833bfb6",
      "transactionIndex": "0x89",
      "blockHash": "0x0000000000000000000000000000000000000000000000000000000000000000",
      "blockNumber": "0x2a245d9",
      "gasUsed": "0x2f2e1",
      "effectiveGasPrice": "0x4c4b8b",
      "blobGasUsed": "0x5590",
      "from": "0x19bd49ae6e4732c91d541f9bd486dc75e3888971",
      "to": "0x62402b65bfb4fd022285a6fc2f26d8caeec3d055",
      "contractAddress": null,
      "daFootprintGasScalar": "0x94",
      "l1BaseFeeScalar": "0x8dd",
      "l1BlobBaseFee": "0x49ecd8",
      "l1BlobBaseFeeScalar": "0x101c12",
      "l1Fee": "0x3207f83b",
      "l1GasPrice": "0x5622611",
      "l1GasUsed": "0x942"
    },
    {
      "status": "0x1",
      "cumulativeGasUsed": "0x26724b2",
      "logs": [
        {
          "address": "0x62402b65bfb4fd022285a6fc2f26d8caeec3d055",
          "topics": [
            "0x429fa3f2cc8331e73fa6082c4dc1b89b5be0a13383f325d93cb26d83a47ea298",
            "0xae5dd132b37c065cfb0d754e8d4402c44359fd18c817b808e7d111f4187464ab"
          ],
          "data": "0x00000000000000000000000000000000000000000000000000000000000000400000000000000000000000000000000000000000000000000000000069cee8950000000000000000000000000000000000000000000000000000000000000005302e312e30000000000000000000000000000000000000000000000000000000",
          "blockHash": "0x0000000000000000000000000000000000000000000000000000000000000000",
          "blockNumber": "0x2a245d9",
          "blockTimestamp": "0x69cee895",
          "transactionHash": "0x8297a7783b59b3745ec6628236ec63c8997e6433e3109314f78c8f27901069fb",
          "transactionIndex": "0x8a",
          "logIndex": "0x3fd",
          "removed": false
        }
      ],
      "logsBloom": "0x00000000040040000000000000000000000000000000000000000000000000000000000000000000000000000000000000000000000000000000000000000000000000000000000000000000400000000000000000000000000000000000000000000004000000000000000000000000000000000000000000000000000000000000000000000000000000000000000000000040000000000000000000000000000000000000001000000000000000000000000000000000000000000000000000000000000000000000000000000000000000000080000000000000000000000000000000000000000800000000040000000000000000000000000000000000",
      "type": "0x2",
      "transactionHash": "0x8297a7783b59b3745ec6628236ec63c8997e6433e3109314f78c8f27901069fb",
      "transactionIndex": "0x8a",
      "blockHash": "0x0000000000000000000000000000000000000000000000000000000000000000",
      "blockNumber": "0x2a245d9",
      "gasUsed": "0x2f311",
      "effectiveGasPrice": "0x4c4b8b",
      "blobGasUsed": "0x56b8",
      "from": "0x19bd49ae6e4732c91d541f9bd486dc75e3888971",
      "to": "0x62402b65bfb4fd022285a6fc2f26d8caeec3d055",
      "contractAddress": null,
      "daFootprintGasScalar": "0x94",
      "l1BaseFeeScalar": "0x8dd",
      "l1BlobBaseFee": "0x49ecd8",
      "l1BlobBaseFeeScalar": "0x101c12",
      "l1Fee": "0x3207f83b",
      "l1GasPrice": "0x5622611",
      "l1GasUsed": "0x96a"
    },
    {
      "status": "0x1",
      "cumulativeGasUsed": "0x26a16d3",
      "logs": [
        {
          "address": "0x62402b65bfb4fd022285a6fc2f26d8caeec3d055",
          "topics": [
            "0x429fa3f2cc8331e73fa6082c4dc1b89b5be0a13383f325d93cb26d83a47ea298",
            "0xe7ab371192efc8b046f516b43bdcb7953f6872b926da5ce541a2a6b572d9ae8b"
          ],
          "data": "0x00000000000000000000000000000000000000000000000000000000000000400000000000000000000000000000000000000000000000000000000069cee8950000000000000000000000000000000000000000000000000000000000000005302e312e30000000000000000000000000000000000000000000000000000000",
          "blockHash": "0x0000000000000000000000000000000000000000000000000000000000000000",
          "blockNumber": "0x2a245d9",
          "blockTimestamp": "0x69cee895",
          "transactionHash": "0x269bec23e49aeb8fee63b2c60bed36fef14a5d5a2270035f6ef53b5ca8057617",
          "transactionIndex": "0x8b",
          "logIndex": "0x3fe",
          "removed": false
        }
      ],
      "logsBloom": "0x00000000000000000000000000000000000000000000000000000000000000000000000000000000000000000000000000000000000000000000000000000000000000000000000000000000400000000000000000000000000000000000000000000004000000000000000000000000000000000000000000000000000000000000000000000000000000000000000000000000000000000000040000000000000000000400001000000000000000000000000000000000000000000000000000000000000000000000000000000000000000000080000000000000000000004000000000000000000800000000040000000000000000000000000000000000",
      "type": "0x2",
      "transactionHash": "0x269bec23e49aeb8fee63b2c60bed36fef14a5d5a2270035f6ef53b5ca8057617",
      "transactionIndex": "0x8b",
      "blockHash": "0x0000000000000000000000000000000000000000000000000000000000000000",
      "blockNumber": "0x2a245d9",
      "gasUsed": "0x2f221",
      "effectiveGasPrice": "0x4c4b8b",
      "blobGasUsed": "0x4e0c",
      "from": "0x19bd49ae6e4732c91d541f9bd486dc75e3888971",
      "to": "0x62402b65bfb4fd022285a6fc2f26d8caeec3d055",
      "contractAddress": null,
      "daFootprintGasScalar": "0x94",
      "l1BaseFeeScalar": "0x8dd",
      "l1BlobBaseFee": "0x49ecd8",
      "l1BlobBaseFeeScalar": "0x101c12",
      "l1Fee": "0x3207f83b",
      "l1GasPrice": "0x5622611",
      "l1GasUsed": "0x879"
    },
    {
      "status": "0x1",
      "cumulativeGasUsed": "0x26d0a74",
      "logs": [
        {
          "address": "0x62402b65bfb4fd022285a6fc2f26d8caeec3d055",
          "topics": [
            "0x429fa3f2cc8331e73fa6082c4dc1b89b5be0a13383f325d93cb26d83a47ea298",
            "0xef2b59eda577eacecf015647c5ef49c23cfc5cabf07b015f12dbd496cb79ba49"
          ],
          "data": "0x00000000000000000000000000000000000000000000000000000000000000400000000000000000000000000000000000000000000000000000000069cee8950000000000000000000000000000000000000000000000000000000000000005302e312e30000000000000000000000000000000000000000000000000000000",
          "blockHash": "0x0000000000000000000000000000000000000000000000000000000000000000",
          "blockNumber": "0x2a245d9",
          "blockTimestamp": "0x69cee895",
          "transactionHash": "0x33a1fce3b7dc3f8e0ae0b2a0b08c3d6ec4c8a25d129b848b1fd5810f2dc8d5aa",
          "transactionIndex": "0x8c",
          "logIndex": "0x3ff",
          "removed": false
        }
      ],
      "logsBloom": "0x00000000000000000000000000000000000000000000000000000000000000000000000000000000000000000000000000000000000000000000000000000000000000000000000000000000400000000000000000000000000000000000000000000004000000000000000000000000000000000000000000000000000000000000000000000000000000000800000000000000000000000000000000000000000000000000001000000000000000000000000000000000000000000000000000000000000000000000000000000000000000000080000000000000000000000000000000000000000800000000040000002000000000000000001000000000",
      "type": "0x2",
      "transactionHash": "0x33a1fce3b7dc3f8e0ae0b2a0b08c3d6ec4c8a25d129b848b1fd5810f2dc8d5aa",
      "transactionIndex": "0x8c",
      "blockHash": "0x0000000000000000000000000000000000000000000000000000000000000000",
      "blockNumber": "0x2a245d9",
      "gasUsed": "0x2f3a1",
      "effectiveGasPrice": "0x4c4b8b",
      "blobGasUsed": "0x57e0",
      "from": "0x19bd49ae6e4732c91d541f9bd486dc75e3888971",
      "to": "0x62402b65bfb4fd022285a6fc2f26d8caeec3d055",
      "contractAddress": null,
      "daFootprintGasScalar": "0x94",
      "l1BaseFeeScalar": "0x8dd",
      "l1BlobBaseFee": "0x49ecd8",
      "l1BlobBaseFeeScalar": "0x101c12",
      "l1Fee": "0x3207f83b",
      "l1GasPrice": "0x5622611",
      "l1GasUsed": "0x985"
    },
    {
      "status": "0x1",
      "cumulativeGasUsed": "0x26ffd31",
      "logs": [
        {
          "address": "0x62402b65bfb4fd022285a6fc2f26d8caeec3d055",
          "topics": [
            "0x429fa3f2cc8331e73fa6082c4dc1b89b5be0a13383f325d93cb26d83a47ea298",
            "0x96724e880688e064ea399e6f428c8885451ba62ba691b7fd524ae64b0cf916f8"
          ],
          "data": "0x00000000000000000000000000000000000000000000000000000000000000400000000000000000000000000000000000000000000000000000000069cee8950000000000000000000000000000000000000000000000000000000000000005302e312e30000000000000000000000000000000000000000000000000000000",
          "blockHash": "0x0000000000000000000000000000000000000000000000000000000000000000",
          "blockNumber": "0x2a245d9",
          "blockTimestamp": "0x69cee895",
          "transactionHash": "0xfb119660387c8e7eb8543308d1bd10c6535e8178340919d8efa6c45a64399c3b",
          "transactionIndex": "0x8d",
          "logIndex": "0x400",
          "removed": false
        }
      ],
      "logsBloom": "0x00000000000000000000000000000000002000000000000000000000000000000000000000000000000000000000000000000000000000000000000000000000000000000000000000000000400000000000000000000000000000000000000000000004000000000000000000000000000000000000000000000000000000000000000000000000000000000000000000000000000000000000000000000000000000000000001000000000000000000000000000000000000000000000000000000000000000000001000000000000000000000180000000000000000000000000000000000000000800000000040000000000000000000000000000000000",
      "type": "0x2",
      "transactionHash": "0xfb119660387c8e7eb8543308d1bd10c6535e8178340919d8efa6c45a64399c3b",
      "transactionIndex": "0x8d",
      "blockHash": "0x0000000000000000000000000000000000000000000000000000000000000000",
      "blockNumber": "0x2a245d9",
      "gasUsed": "0x2f2bd",
      "effectiveGasPrice": "0x4c4b8b",
      "blobGasUsed": "0x5184",
      "from": "0x19bd49ae6e4732c91d541f9bd486dc75e3888971",
      "to": "0x62402b65bfb4fd022285a6fc2f26d8caeec3d055",
      "contractAddress": null,
      "daFootprintGasScalar": "0x94",
      "l1BaseFeeScalar": "0x8dd",
      "l1BlobBaseFee": "0x49ecd8",
      "l1BlobBaseFeeScalar": "0x101c12",
      "l1Fee": "0x3207f83b",
      "l1GasPrice": "0x5622611",
      "l1GasUsed": "0x8d7"
    },
    {
      "status": "0x1",
      "cumulativeGasUsed": "0x272efb2",
      "logs": [
        {
          "address": "0x62402b65bfb4fd022285a6fc2f26d8caeec3d055",
          "topics": [
            "0x429fa3f2cc8331e73fa6082c4dc1b89b5be0a13383f325d93cb26d83a47ea298",
            "0xf18e986e3243c2c239a5c2485ba67e0873e9d3e9baf7db23f04f501e0fbad7da"
          ],
          "data": "0x00000000000000000000000000000000000000000000000000000000000000400000000000000000000000000000000000000000000000000000000069cee8950000000000000000000000000000000000000000000000000000000000000005302e312e30000000000000000000000000000000000000000000000000000000",
          "blockHash": "0x0000000000000000000000000000000000000000000000000000000000000000",
          "blockNumber": "0x2a245d9",
          "blockTimestamp": "0x69cee895",
          "transactionHash": "0xdff1147aa9d6315eb89aee0109c233072b8eb473dcbc486bfa1bc4979935e1d3",
          "transactionIndex": "0x8e",
          "logIndex": "0x401",
          "removed": false
        }
      ],
      "logsBloom": "0x00000000000000000000000000000000000000000000000000000000000000000000000002000000000000000000000000000000000000000000000000000000000000000000000000000000400000000000000000000000000000000000000000000004000000000000000000000000000000000000000000000000000000000000000000000000000000000000000000000000000000000000000000000000000000000000001000000000000000000000000000001000000000000000000000000000000000000000000000000000000000000080000000000000000000000000000000000000000800000000040400000000000000000000000000000000",
      "type": "0x2",
      "transactionHash": "0xdff1147aa9d6315eb89aee0109c233072b8eb473dcbc486bfa1bc4979935e1d3",
      "transactionIndex": "0x8e",
      "blockHash": "0x0000000000000000000000000000000000000000000000000000000000000000",
      "blockNumber": "0x2a245d9",
      "gasUsed": "0x2f281",
      "effectiveGasPrice": "0x4c4b8b",
      "blobGasUsed": "0x50f0",
      "from": "0x19bd49ae6e4732c91d541f9bd486dc75e3888971",
      "to": "0x62402b65bfb4fd022285a6fc2f26d8caeec3d055",
      "contractAddress": null,
      "daFootprintGasScalar": "0x94",
      "l1BaseFeeScalar": "0x8dd",
      "l1BlobBaseFee": "0x49ecd8",
      "l1BlobBaseFeeScalar": "0x101c12",
      "l1Fee": "0x3207f83b",
      "l1GasPrice": "0x5622611",
      "l1GasUsed": "0x8c9"
    },
    {
      "status": "0x1",
      "cumulativeGasUsed": "0x275e233",
      "logs": [
        {
          "address": "0x62402b65bfb4fd022285a6fc2f26d8caeec3d055",
          "topics": [
            "0x429fa3f2cc8331e73fa6082c4dc1b89b5be0a13383f325d93cb26d83a47ea298",
            "0x2b556d406a05655564d3148a21eb8b06a69ca0beb352b3089e523f9093128aa5"
          ],
          "data": "0x00000000000000000000000000000000000000000000000000000000000000400000000000000000000000000000000000000000000000000000000069cee8950000000000000000000000000000000000000000000000000000000000000005302e312e30000000000000000000000000000000000000000000000000000000",
          "blockHash": "0x0000000000000000000000000000000000000000000000000000000000000000",
          "blockNumber": "0x2a245d9",
          "blockTimestamp": "0x69cee895",
          "transactionHash": "0x5c429c9110e301ab29e90a5d83afc430f0c0c5c3724b019ba4866b5d8b399e57",
          "transactionIndex": "0x8f",
          "logIndex": "0x402",
          "removed": false
        }
      ],
      "logsBloom": "0x00000000000000000000000000000000000000000000000000000000000000000000000000000000000000000000000000000000000000000000000000000000000000000000000000000000400000000000000000000000000000000000000000000004000000000000000000000000000000000000000000000000000000000000000000000000000000000000000000000000000000000000000000000000000000000000001000000000008000000000000000000000000000000000002004000000000000000000000000000000000000000080000000000000000000000000000000000000000800000000040000000000000000000000000000000000",
      "type": "0x2",
      "transactionHash": "0x5c429c9110e301ab29e90a5d83afc430f0c0c5c3724b019ba4866b5d8b399e57",
      "transactionIndex": "0x8f",
      "blockHash": "0x0000000000000000000000000000000000000000000000000000000000000000",
      "blockNumber": "0x2a245d9",
      "gasUsed": "0x2f281",
      "effectiveGasPrice": "0x4c4b8b",
      "blobGasUsed": "0x50f0",
      "from": "0x19bd49ae6e4732c91d541f9bd486dc75e3888971",
      "to": "0x62402b65bfb4fd022285a6fc2f26d8caeec3d055",
      "contractAddress": null,
      "daFootprintGasScalar": "0x94",
      "l1BaseFeeScalar": "0x8dd",
      "l1BlobBaseFee": "0x49ecd8",
      "l1BlobBaseFeeScalar": "0x101c12",
      "l1Fee": "0x3207f83b",
      "l1GasPrice": "0x5622611",
      "l1GasUsed": "0x8c9"
    },
    {
      "status": "0x1",
      "cumulativeGasUsed": "0x278d4d8",
      "logs": [
        {
          "address": "0x62402b65bfb4fd022285a6fc2f26d8caeec3d055",
          "topics": [
            "0x429fa3f2cc8331e73fa6082c4dc1b89b5be0a13383f325d93cb26d83a47ea298",
            "0x792a5597def2a96444b65e08d6457769e0fad3270332c0b79ab95154f170c946"
          ],
          "data": "0x00000000000000000000000000000000000000000000000000000000000000400000000000000000000000000000000000000000000000000000000069cee8950000000000000000000000000000000000000000000000000000000000000005302e312e30000000000000000000000000000000000000000000000000000000",
          "blockHash": "0x0000000000000000000000000000000000000000000000000000000000000000",
          "blockNumber": "0x2a245d9",
          "blockTimestamp": "0x69cee895",
          "transactionHash": "0x094b6e010263450088ab18c98f5dc74c3e01ad9743636b23cd2168438119f49e",
          "transactionIndex": "0x90",
          "logIndex": "0x403",
          "removed": false
        }
      ],
      "logsBloom": "0x00000000000000000000000000000000000000000000000000000000000000000000000000000000000000000000000000000000000000000000000000000000000000000000000000000000400000000000000000000000000000000000000000000004000000000000000000000000000000000000000000000000000000000000000000000000000000000000000000000000000000000000000000000000000000200000001000000000000000000000000000000400000000000000000000000000000000000000000000000000000000000080002000000000000000000000000000000000000800000000040000000000000000000000000000000000",
      "type": "0x2",
      "transactionHash": "0x094b6e010263450088ab18c98f5dc74c3e01ad9743636b23cd2168438119f49e",
      "transactionIndex": "0x90",
      "blockHash": "0x0000000000000000000000000000000000000000000000000000000000000000",
      "blockNumber": "0x2a245d9",
      "gasUsed": "0x2f2a5",
      "effectiveGasPrice": "0x4c4b8b",
      "blobGasUsed": "0x52ac",
      "from": "0x19bd49ae6e4732c91d541f9bd486dc75e3888971",
      "to": "0x62402b65bfb4fd022285a6fc2f26d8caeec3d055",
      "contractAddress": null,
      "daFootprintGasScalar": "0x94",
      "l1BaseFeeScalar": "0x8dd",
      "l1BlobBaseFee": "0x49ecd8",
      "l1BlobBaseFeeScalar": "0x101c12",
      "l1Fee": "0x3207f83b",
      "l1GasPrice": "0x5622611",
      "l1GasUsed": "0x8ff"
    },
    {
      "status": "0x1",
      "cumulativeGasUsed": "0x27bc825",
      "logs": [
        {
          "address": "0x62402b65bfb4fd022285a6fc2f26d8caeec3d055",
          "topics": [
            "0x429fa3f2cc8331e73fa6082c4dc1b89b5be0a13383f325d93cb26d83a47ea298",
            "0xbf2b734602ecc889eb9f919a9f12bb234bab70b209e313375e6d26ecc5507cfd"
          ],
          "data": "0x00000000000000000000000000000000000000000000000000000000000000400000000000000000000000000000000000000000000000000000000069cee8950000000000000000000000000000000000000000000000000000000000000005302e312e30000000000000000000000000000000000000000000000000000000",
          "blockHash": "0x0000000000000000000000000000000000000000000000000000000000000000",
          "blockNumber": "0x2a245d9",
          "blockTimestamp": "0x69cee895",
          "transactionHash": "0x846776a4e1ea83f9681f5f92a7f74611688009f78cf4581dd8cd2c1e4899d635",
          "transactionIndex": "0x91",
          "logIndex": "0x404",
          "removed": false
        }
      ],
      "logsBloom": "0x00000000000000000000008000000000000000000000000000000000000000000000000000000000000000000000000000000000000000000000000000000000000000000000000000000000400000000001000000000000000000000000000000000004000000000000000000000000000000000000000000000000000000000000000000000000000000000000000000000000000000000000000000000000000000000000001000000000000000000000000000000000000000000000000000000000000000000000000000000000000000000080000000000000000000000000000000000000000800000000040000000000000010000000000000000000",
      "type": "0x2",
      "transactionHash": "0x846776a4e1ea83f9681f5f92a7f74611688009f78cf4581dd8cd2c1e4899d635",
      "transactionIndex": "0x91",
      "blockHash": "0x0000000000000000000000000000000000000000000000000000000000000000",
      "blockNumber": "0x2a245d9",
      "gasUsed": "0x2f34d",
      "effectiveGasPrice": "0x4c4b8b",
      "blobGasUsed": "0x5908",
      "from": "0x19bd49ae6e4732c91d541f9bd486dc75e3888971",
      "to": "0x62402b65bfb4fd022285a6fc2f26d8caeec3d055",
      "contractAddress": null,
      "daFootprintGasScalar": "0x94",
      "l1BaseFeeScalar": "0x8dd",
      "l1BlobBaseFee": "0x49ecd8",
      "l1BlobBaseFeeScalar": "0x101c12",
      "l1Fee": "0x3207f83b",
      "l1GasPrice": "0x5622611",
      "l1GasUsed": "0x9ad"
    },
    {
      "status": "0x1",
      "cumulativeGasUsed": "0x27ebbba",
      "logs": [
        {
          "address": "0x62402b65bfb4fd022285a6fc2f26d8caeec3d055",
          "topics": [
            "0x429fa3f2cc8331e73fa6082c4dc1b89b5be0a13383f325d93cb26d83a47ea298",
            "0xd1bdb3bbb76a13c06502e2541f85ddbd2aaf9d970c283d27152ce7bbf7305220"
          ],
          "data": "0x00000000000000000000000000000000000000000000000000000000000000400000000000000000000000000000000000000000000000000000000069cee8950000000000000000000000000000000000000000000000000000000000000005302e312e30000000000000000000000000000000000000000000000000000000",
          "blockHash": "0x0000000000000000000000000000000000000000000000000000000000000000",
          "blockNumber": "0x2a245d9",
          "blockTimestamp": "0x69cee895",
          "transactionHash": "0x38f9816e248c194d964b7779c548bad05dfb5465102f1bfd7b8a889e9782a670",
          "transactionIndex": "0x92",
          "logIndex": "0x405",
          "removed": false
        }
      ],
      "logsBloom": "0x00000000000000000000000000000000000000000000000000000000000000000000000000000000000000000000000000000000000000000000000000000000000000000000000000000000400000000000000000000000000000000000000000000004000000000000000000000000000000000000000000000000000000000000000000000000000000000000000000000000000000000000001000000000000000000000001000000000000000000000010000000000000000000000000000000000000000000000000080000000000000000080000000000000000000000000000000000000000800000000040000000000000000000000000000000000",
      "type": "0x2",
      "transactionHash": "0x38f9816e248c194d964b7779c548bad05dfb5465102f1bfd7b8a889e9782a670",
      "transactionIndex": "0x92",
      "blockHash": "0x0000000000000000000000000000000000000000000000000000000000000000",
      "blockNumber": "0x2a245d9",
      "gasUsed": "0x2f395",
      "effectiveGasPrice": "0x4c4b8b",
      "blobGasUsed": "0x5874",
      "from": "0x19bd49ae6e4732c91d541f9bd486dc75e3888971",
      "to": "0x62402b65bfb4fd022285a6fc2f26d8caeec3d055",
      "contractAddress": null,
      "daFootprintGasScalar": "0x94",
      "l1BaseFeeScalar": "0x8dd",
      "l1BlobBaseFee": "0x49ecd8",
      "l1BlobBaseFeeScalar": "0x101c12",
      "l1Fee": "0x3207f83b",
      "l1GasPrice": "0x5622611",
      "l1GasUsed": "0x992"
    },
    {
      "status": "0x1",
      "cumulativeGasUsed": "0x281ae2f",
      "logs": [
        {
          "address": "0x62402b65bfb4fd022285a6fc2f26d8caeec3d055",
          "topics": [
            "0x429fa3f2cc8331e73fa6082c4dc1b89b5be0a13383f325d93cb26d83a47ea298",
            "0x21866da1809075359a1b32a1f5ce23e8672370fee8d5558590ffa5bbf5f546be"
          ],
          "data": "0x00000000000000000000000000000000000000000000000000000000000000400000000000000000000000000000000000000000000000000000000069cee8950000000000000000000000000000000000000000000000000000000000000005302e312e30000000000000000000000000000000000000000000000000000000",
          "blockHash": "0x0000000000000000000000000000000000000000000000000000000000000000",
          "blockNumber": "0x2a245d9",
          "blockTimestamp": "0x69cee895",
          "transactionHash": "0xe4b5f5783d180556aeb3a4eb0d7c999a8d73e294d26ea3f795eaf22896318055",
          "transactionIndex": "0x93",
          "logIndex": "0x406",
          "removed": false
        }
      ],
      "logsBloom": "0x00000000000000000000000000000000000000000000000000000000000000220000000000000000000000000000000000000000000000000000000000000000000000000000000000000000400000000000000000000000000000000000000000000004000000000000000000000000000000000000000000000000000000000000000000000000000000000000000000000000000000000000000000000000000000000000001000000000000000000000000000000000000000000000000000000000000000000000000000000000000000000080000000000000000000000000000000000000000800000000040000000000000040000000000000000000",
      "type": "0x2",
      "transactionHash": "0xe4b5f5783d180556aeb3a4eb0d7c999a8d73e294d26ea3f795eaf22896318055",
      "transactionIndex": "0x93",
      "blockHash": "0x0000000000000000000000000000000000000000000000000000000000000000",
      "blockNumber": "0x2a245d9",
      "gasUsed": "0x2f275",
      "effectiveGasPrice": "0x4c4b8b",
      "blobGasUsed": "0x52ac",
      "from": "0x19bd49ae6e4732c91d541f9bd486dc75e3888971",
      "to": "0x62402b65bfb4fd022285a6fc2f26d8caeec3d055",
      "contractAddress": null,
      "daFootprintGasScalar": "0x94",
      "l1BaseFeeScalar": "0x8dd",
      "l1BlobBaseFee": "0x49ecd8",
      "l1BlobBaseFeeScalar": "0x101c12",
      "l1Fee": "0x3207f83b",
      "l1GasPrice": "0x5622611",
      "l1GasUsed": "0x8ff"
    },
    {
      "status": "0x1",
      "cumulativeGasUsed": "0x284a074",
      "logs": [
        {
          "address": "0x62402b65bfb4fd022285a6fc2f26d8caeec3d055",
          "topics": [
            "0x429fa3f2cc8331e73fa6082c4dc1b89b5be0a13383f325d93cb26d83a47ea298",
            "0x49b31b50bdeb6cece5dc388aadbb5e9bdf4c3874546a97b90ce91f41ca7bbb40"
          ],
          "data": "0x00000000000000000000000000000000000000000000000000000000000000400000000000000000000000000000000000000000000000000000000069cee8950000000000000000000000000000000000000000000000000000000000000005302e312e30000000000000000000000000000000000000000000000000000000",
          "blockHash": "0x0000000000000000000000000000000000000000000000000000000000000000",
          "blockNumber": "0x2a245d9",
          "blockTimestamp": "0x69cee895",
          "transactionHash": "0x94740dc3bb0065f31f8451f8da300dc7335a6fa1125ab59af6427917c608dc40",
          "transactionIndex": "0x94",
          "logIndex": "0x407",
          "removed": false
        }
      ],
      "logsBloom": "0x00000000000000000000000000000000000000000000000000000000000000000000000000000000000000000000000000000000000000000000000000000000000000000000000000000000400000000000000000000080000000000000000000000004000000000000000000000000000000000000000000000000000000000000000000000000000000000000000000000000000000000000000000000000000000000000001000400000000000000000000000000000000000000000000000000000000000000000000000000000000000000080200000000000000000000000000000000000000800000000040000000000000000000000000000000000",
      "type": "0x2",
      "transactionHash": "0x94740dc3bb0065f31f8451f8da300dc7335a6fa1125ab59af6427917c608dc40",
      "transactionIndex": "0x94",
      "blockHash": "0x0000000000000000000000000000000000000000000000000000000000000000",
      "blockNumber": "0x2a245d9",
      "gasUsed": "0x2f245",
      "effectiveGasPrice": "0x4c4b8b",
      "blobGasUsed": "0x4f34",
      "from": "0x19bd49ae6e4732c91d541f9bd486dc75e3888971",
      "to": "0x62402b65bfb4fd022285a6fc2f26d8caeec3d055",
      "contractAddress": null,
      "daFootprintGasScalar": "0x94",
      "l1BaseFeeScalar": "0x8dd",
      "l1BlobBaseFee": "0x49ecd8",
      "l1BlobBaseFeeScalar": "0x101c12",
      "l1Fee": "0x3207f83b",
      "l1GasPrice": "0x5622611",
      "l1GasUsed": "0x894"
    }
  ],
  "libraries": [],
  "pending": [],
  "returns": {},
  "timestamp": 1775167635543,
  "chain": 8453,
  "commit": "3284e9f"
}